{
  "_format": "hh-sol-artifact-1",
  "contractName": "Bridge",
  "sourceName": "contracts/Bridge.sol",
  "abi": [
    {
      "inputs": [
        {
          "internalType": "string",
          "name": "contractName",
          "type": "string"
        }
      ],
      "stateMutability": "nonpayable",
      "type": "constructor"
    },
    {
      "inputs": [],
      "name": "AddressIsNotTheOwner",
      "type": "error"
    },
    {
      "inputs": [],
      "name": "AlreadyClaimed",
      "type": "error"
    },
    {
      "inputs": [],
      "name": "CurrentAndProvidedChainsDoNotMatch",
      "type": "error"
    },
    {
      "inputs": [],
      "name": "DestinationChainCantBeCurrentChain",
      "type": "error"
    },
    {
      "inputs": [],
      "name": "FromAndSenderMustMatch",
      "type": "error"
    },
    {
      "inputs": [],
      "name": "IncorrectDestinationChain",
      "type": "error"
    },
    {
      "inputs": [],
      "name": "InvalidAddress",
      "type": "error"
    },
    {
      "inputs": [],
      "name": "InvalidChainId",
      "type": "error"
    },
    {
      "inputs": [],
      "name": "InvalidTokenAmount",
      "type": "error"
    },
    {
      "inputs": [],
      "name": "TransferFromIsUnsuccessful",
      "type": "error"
    },
    {
      "inputs": [],
      "name": "TransferIsUnsuccessful",
      "type": "error"
    },
    {
      "anonymous": false,
      "inputs": [
        {
          "indexed": false,
          "internalType": "address",
          "name": "burnedWrappedTokenAddress",
          "type": "address"
        },
        {
          "indexed": false,
          "internalType": "uint256",
          "name": "value",
          "type": "uint256"
        },
        {
          "indexed": true,
          "internalType": "address",
          "name": "sender",
          "type": "address"
        },
        {
          "indexed": true,
          "internalType": "address",
          "name": "recepient",
          "type": "address"
        },
        {
          "indexed": false,
          "internalType": "uint256",
          "name": "sourceChainId",
          "type": "uint256"
        },
        {
          "indexed": false,
          "internalType": "uint256",
          "name": "toChainId",
          "type": "uint256"
        },
        {
          "indexed": true,
          "internalType": "address",
          "name": "originalTokenAddress",
          "type": "address"
        },
        {
          "indexed": false,
          "internalType": "uint256",
          "name": "originalTokenChainId",
          "type": "uint256"
        }
      ],
      "name": "BurnWrappedToken",
      "type": "event"
    },
    {
      "anonymous": false,
      "inputs": [
        {
          "indexed": true,
          "internalType": "address",
          "name": "lockedTokenAddress",
          "type": "address"
        },
        {
          "indexed": false,
          "internalType": "uint256",
          "name": "value",
          "type": "uint256"
        },
        {
          "indexed": true,
          "internalType": "address",
          "name": "sender",
          "type": "address"
        },
        {
          "indexed": true,
          "internalType": "address",
          "name": "recepient",
          "type": "address"
        },
        {
          "indexed": false,
          "internalType": "uint256",
          "name": "sourceChainId",
          "type": "uint256"
        },
        {
          "indexed": false,
          "internalType": "uint256",
          "name": "toChainId",
          "type": "uint256"
        }
      ],
      "name": "LockOriginalToken",
      "type": "event"
    },
    {
      "anonymous": false,
      "inputs": [
        {
          "indexed": false,
          "internalType": "address",
          "name": "mintedTokenAddress",
          "type": "address"
        },
        {
          "indexed": false,
          "internalType": "uint256",
          "name": "value",
          "type": "uint256"
        },
        {
          "indexed": false,
          "internalType": "address",
          "name": "sender",
          "type": "address"
        },
        {
          "indexed": true,
          "internalType": "address",
          "name": "recepient",
          "type": "address"
        },
        {
          "indexed": false,
          "internalType": "uint256",
          "name": "sourceChainId",
          "type": "uint256"
        },
        {
          "indexed": false,
          "internalType": "uint256",
          "name": "toChainId",
          "type": "uint256"
        },
        {
          "indexed": true,
          "internalType": "address",
          "name": "originalTokenAddress",
          "type": "address"
        },
        {
          "indexed": false,
          "internalType": "uint256",
          "name": "originalChainId",
          "type": "uint256"
        },
        {
          "indexed": true,
          "internalType": "bytes32",
          "name": "transactionHash",
          "type": "bytes32"
        },
        {
          "indexed": false,
          "internalType": "bytes32",
          "name": "blockHash",
          "type": "bytes32"
        },
        {
          "indexed": false,
          "internalType": "uint256",
          "name": "logIndex",
          "type": "uint256"
        }
      ],
      "name": "MintWrappedToken",
      "type": "event"
    },
    {
      "anonymous": false,
      "inputs": [
        {
          "indexed": true,
          "internalType": "address",
          "name": "previousOwner",
          "type": "address"
        },
        {
          "indexed": true,
          "internalType": "address",
          "name": "newOwner",
          "type": "address"
        }
      ],
      "name": "OwnershipTransferred",
      "type": "event"
    },
    {
      "anonymous": false,
      "inputs": [
        {
          "indexed": false,
          "internalType": "address",
          "name": "account",
          "type": "address"
        }
      ],
      "name": "Paused",
      "type": "event"
    },
    {
      "anonymous": false,
      "inputs": [
        {
          "indexed": true,
          "internalType": "address",
          "name": "releasedTokenAddress",
          "type": "address"
        },
        {
          "indexed": false,
          "internalType": "uint256",
          "name": "value",
          "type": "uint256"
        },
        {
          "indexed": false,
          "internalType": "address",
          "name": "sender",
          "type": "address"
        },
        {
          "indexed": true,
          "internalType": "address",
          "name": "recepient",
          "type": "address"
        },
        {
          "indexed": false,
          "internalType": "uint256",
          "name": "sourceChainId",
          "type": "uint256"
        },
        {
          "indexed": false,
          "internalType": "uint256",
          "name": "toChainId",
          "type": "uint256"
        },
        {
          "indexed": false,
          "internalType": "address",
          "name": "sourceWrappedTokenAddress",
          "type": "address"
        },
        {
          "indexed": true,
          "internalType": "bytes32",
          "name": "transactionHash",
          "type": "bytes32"
        },
        {
          "indexed": false,
          "internalType": "bytes32",
          "name": "blockHash",
          "type": "bytes32"
        },
        {
          "indexed": false,
          "internalType": "uint256",
          "name": "logIndex",
          "type": "uint256"
        }
      ],
      "name": "ReleaseOriginalToken",
      "type": "event"
    },
    {
      "anonymous": false,
      "inputs": [
        {
          "indexed": false,
          "internalType": "address",
          "name": "account",
          "type": "address"
        }
      ],
      "name": "Unpaused",
      "type": "event"
    },
    {
      "inputs": [],
      "name": "CLAIMDATA_TYPEHASH",
      "outputs": [
        {
          "internalType": "bytes32",
          "name": "",
          "type": "bytes32"
        }
      ],
      "stateMutability": "view",
      "type": "function"
    },
    {
      "inputs": [],
      "name": "CLAIM_TYPEHASH",
      "outputs": [
        {
          "internalType": "bytes32",
          "name": "",
          "type": "bytes32"
        }
      ],
      "stateMutability": "view",
      "type": "function"
    },
    {
      "inputs": [],
      "name": "DOMAIN_SEPARATOR",
      "outputs": [
        {
          "internalType": "bytes32",
          "name": "",
          "type": "bytes32"
        }
      ],
      "stateMutability": "view",
      "type": "function"
    },
    {
      "inputs": [],
      "name": "ORIGINAL_TOKEN_TYPEHASH",
      "outputs": [
        {
          "internalType": "bytes32",
          "name": "",
          "type": "bytes32"
        }
      ],
      "stateMutability": "view",
      "type": "function"
    },
    {
      "inputs": [],
      "name": "SOURCE_TX_DATA_TYPEHASH",
      "outputs": [
        {
          "internalType": "bytes32",
          "name": "",
          "type": "bytes32"
        }
      ],
      "stateMutability": "view",
      "type": "function"
    },
    {
      "inputs": [],
      "name": "USER_TYPEHASH",
      "outputs": [
        {
          "internalType": "bytes32",
          "name": "",
          "type": "bytes32"
        }
      ],
      "stateMutability": "view",
      "type": "function"
    },
    {
      "inputs": [
        {
          "components": [
            {
              "components": [
                {
                  "internalType": "address",
                  "name": "_address",
                  "type": "address"
                },
                {
                  "internalType": "uint256",
                  "name": "chainId",
                  "type": "uint256"
                }
              ],
              "internalType": "struct IBridge.User",
              "name": "from",
              "type": "tuple"
            },
            {
              "components": [
                {
                  "internalType": "address",
                  "name": "_address",
                  "type": "address"
                },
                {
                  "internalType": "uint256",
                  "name": "chainId",
                  "type": "uint256"
                }
              ],
              "internalType": "struct IBridge.User",
              "name": "to",
              "type": "tuple"
            },
            {
              "internalType": "uint256",
              "name": "value",
              "type": "uint256"
            },
            {
              "components": [
                {
                  "internalType": "address",
                  "name": "tokenAddress",
                  "type": "address"
                },
                {
                  "internalType": "uint256",
                  "name": "originChainId",
                  "type": "uint256"
                }
              ],
              "internalType": "struct IBridge.OriginalToken",
              "name": "token",
              "type": "tuple"
            },
            {
              "internalType": "address",
              "name": "depositTxSourceToken",
              "type": "address"
            },
            {
              "internalType": "address",
              "name": "targetTokenAddress",
              "type": "address"
            },
            {
              "internalType": "string",
              "name": "targetTokenName",
              "type": "string"
            },
            {
              "internalType": "string",
              "name": "targetTokenSymbol",
              "type": "string"
            },
            {
              "internalType": "uint256",
              "name": "deadline",
              "type": "uint256"
            },
            {
              "components": [
                {
                  "internalType": "bytes32",
                  "name": "transactionHash",
                  "type": "bytes32"
                },
                {
                  "internalType": "bytes32",
                  "name": "blockHash",
                  "type": "bytes32"
                },
                {
                  "internalType": "uint256",
                  "name": "logIndex",
                  "type": "uint256"
                }
              ],
              "internalType": "struct IBridge.SourceTxData",
              "name": "sourceTxData",
              "type": "tuple"
            }
          ],
          "internalType": "struct IBridge.ClaimData",
          "name": "_claimData",
          "type": "tuple"
        },
        {
          "components": [
            {
              "internalType": "uint8",
              "name": "v",
              "type": "uint8"
            },
            {
              "internalType": "bytes32",
              "name": "r",
              "type": "bytes32"
            },
            {
              "internalType": "bytes32",
              "name": "s",
              "type": "bytes32"
            }
          ],
          "internalType": "struct IBridge.Signature",
          "name": "claimSig",
          "type": "tuple"
        }
      ],
      "name": "claim",
      "outputs": [],
      "stateMutability": "nonpayable",
      "type": "function"
    },
    {
      "inputs": [
        {
          "components": [
            {
              "components": [
                {
                  "internalType": "address",
                  "name": "_address",
                  "type": "address"
                },
                {
                  "internalType": "uint256",
                  "name": "chainId",
                  "type": "uint256"
                }
              ],
              "internalType": "struct IBridge.User",
              "name": "from",
              "type": "tuple"
            },
            {
              "components": [
                {
                  "internalType": "address",
                  "name": "_address",
                  "type": "address"
                },
                {
                  "internalType": "uint256",
                  "name": "chainId",
                  "type": "uint256"
                }
              ],
              "internalType": "struct IBridge.User",
              "name": "to",
              "type": "tuple"
            },
            {
              "internalType": "address",
              "name": "spender",
              "type": "address"
            },
            {
              "internalType": "address",
              "name": "token",
              "type": "address"
            },
            {
              "internalType": "uint256",
              "name": "value",
              "type": "uint256"
            },
            {
              "internalType": "uint256",
              "name": "deadline",
              "type": "uint256"
            },
            {
              "components": [
                {
                  "internalType": "uint8",
                  "name": "v",
                  "type": "uint8"
                },
                {
                  "internalType": "bytes32",
                  "name": "r",
                  "type": "bytes32"
                },
                {
                  "internalType": "bytes32",
                  "name": "s",
                  "type": "bytes32"
                }
              ],
              "internalType": "struct IBridge.Signature",
              "name": "approveTokenTransferSig",
              "type": "tuple"
            }
          ],
          "internalType": "struct IBridge.DepositData",
          "name": "_depositData",
          "type": "tuple"
        }
      ],
      "name": "deposit",
      "outputs": [],
      "stateMutability": "nonpayable",
      "type": "function"
    },
    {
      "inputs": [
        {
          "components": [
            {
              "components": [
                {
                  "internalType": "address",
                  "name": "_address",
                  "type": "address"
                },
                {
                  "internalType": "uint256",
                  "name": "chainId",
                  "type": "uint256"
                }
              ],
              "internalType": "struct IBridge.User",
              "name": "from",
              "type": "tuple"
            },
            {
              "components": [
                {
                  "internalType": "address",
                  "name": "_address",
                  "type": "address"
                },
                {
                  "internalType": "uint256",
                  "name": "chainId",
                  "type": "uint256"
                }
              ],
              "internalType": "struct IBridge.User",
              "name": "to",
              "type": "tuple"
            },
            {
              "internalType": "address",
              "name": "spender",
              "type": "address"
            },
            {
              "internalType": "address",
              "name": "token",
              "type": "address"
            },
            {
              "internalType": "uint256",
              "name": "value",
              "type": "uint256"
            },
            {
              "internalType": "uint256",
              "name": "deadline",
              "type": "uint256"
            },
            {
              "components": [
                {
                  "internalType": "uint8",
                  "name": "v",
                  "type": "uint8"
                },
                {
                  "internalType": "bytes32",
                  "name": "r",
                  "type": "bytes32"
                },
                {
                  "internalType": "bytes32",
                  "name": "s",
                  "type": "bytes32"
                }
              ],
              "internalType": "struct IBridge.Signature",
              "name": "approveTokenTransferSig",
              "type": "tuple"
            }
          ],
          "internalType": "struct IBridge.DepositData",
          "name": "_depositData",
          "type": "tuple"
        }
      ],
      "name": "depositWithPermit",
      "outputs": [],
      "stateMutability": "nonpayable",
      "type": "function"
    },
    {
      "inputs": [],
      "name": "getNumberOfWrappedTokens",
      "outputs": [
        {
          "internalType": "uint256",
          "name": "",
          "type": "uint256"
        }
      ],
      "stateMutability": "view",
      "type": "function"
    },
    {
      "inputs": [
        {
          "internalType": "bytes32",
          "name": "transactionDataHash",
          "type": "bytes32"
        }
      ],
      "name": "isClaimed",
      "outputs": [
        {
          "internalType": "bool",
          "name": "",
          "type": "bool"
        }
      ],
      "stateMutability": "view",
      "type": "function"
    },
    {
      "inputs": [],
      "name": "name",
      "outputs": [
        {
          "internalType": "string",
          "name": "",
          "type": "string"
        }
      ],
      "stateMutability": "view",
      "type": "function"
    },
    {
      "inputs": [
        {
          "internalType": "address",
          "name": "_owner",
          "type": "address"
        }
      ],
      "name": "nonce",
      "outputs": [
        {
          "internalType": "uint256",
          "name": "",
          "type": "uint256"
        }
      ],
      "stateMutability": "view",
      "type": "function"
    },
    {
      "inputs": [
        {
          "internalType": "address",
          "name": "",
          "type": "address"
        }
      ],
      "name": "originalTokenByWrappedToken",
      "outputs": [
        {
          "internalType": "address",
          "name": "tokenAddress",
          "type": "address"
        },
        {
          "internalType": "uint256",
          "name": "originChainId",
          "type": "uint256"
        }
      ],
      "stateMutability": "view",
      "type": "function"
    },
    {
      "inputs": [],
      "name": "owner",
      "outputs": [
        {
          "internalType": "address",
          "name": "",
          "type": "address"
        }
      ],
      "stateMutability": "view",
      "type": "function"
    },
    {
      "inputs": [],
      "name": "pause",
      "outputs": [],
      "stateMutability": "nonpayable",
      "type": "function"
    },
    {
      "inputs": [],
      "name": "paused",
      "outputs": [
        {
          "internalType": "bool",
          "name": "",
          "type": "bool"
        }
      ],
      "stateMutability": "view",
      "type": "function"
    },
    {
      "inputs": [],
      "name": "renounceOwnership",
      "outputs": [],
      "stateMutability": "nonpayable",
      "type": "function"
    },
    {
      "inputs": [
        {
          "internalType": "address",
          "name": "newOwner",
          "type": "address"
        }
      ],
      "name": "transferOwnership",
      "outputs": [],
      "stateMutability": "nonpayable",
      "type": "function"
    },
    {
      "inputs": [],
      "name": "unpause",
      "outputs": [],
      "stateMutability": "nonpayable",
      "type": "function"
    },
    {
      "inputs": [
        {
          "internalType": "uint256",
          "name": "",
          "type": "uint256"
        },
        {
          "internalType": "address",
          "name": "",
          "type": "address"
        }
      ],
      "name": "wrappedTokenByOriginalTokenByChainId",
      "outputs": [
        {
          "internalType": "address",
          "name": "",
          "type": "address"
        }
      ],
      "stateMutability": "view",
      "type": "function"
    },
    {
      "inputs": [
        {
          "internalType": "uint256",
          "name": "",
          "type": "uint256"
        }
      ],
      "name": "wrappedTokens",
      "outputs": [
        {
          "internalType": "address",
          "name": "",
          "type": "address"
        }
      ],
      "stateMutability": "view",
      "type": "function"
    }
  ],
  "bytecode": "0x60806040523480156200001157600080fd5b50604051620042e3380380620042e3833981016040819052620000349162000232565b6200003f336200010e565b6000805460ff60a01b19169055600180556200005a6200015e565b600262000068828262000396565b50805160208083019190912060408051808201825260018152603160f81b9084015280517f8b73c3c69bb8fe3d512ecc4cf759cc79239f7b179b0ffacaa9a75d522b39400f938101939093528201527fc89efdaa54c0f20c7adf612882df0950f5a951637e0307cdcb4c672f298b8bc660608201524660808201523060a082015260c00160408051601f1981840301815291905280516020909101206008555062000462565b600080546001600160a01b038381166001600160a01b0319831681178455604051919092169283917f8be0079c531659141344cd1fd0a4f28419497f9722a3daafe3b4186f6b6457e09190a35050565b62000168620001c1565b6000805460ff60a01b1916600160a01b1790557f62e78cea01bee320cd4e420270b5ea74000d11b0c9f74754ebdbfc544b05a258620001a43390565b6040516001600160a01b03909116815260200160405180910390a1565b620001d5600054600160a01b900460ff1690565b156200021a5760405162461bcd60e51b815260206004820152601060248201526f14185d5cd8589b194e881c185d5cd95960821b604482015260640160405180910390fd5b565b634e487b7160e01b600052604160045260246000fd5b600060208083850312156200024657600080fd5b82516001600160401b03808211156200025e57600080fd5b818501915085601f8301126200027357600080fd5b8151818111156200028857620002886200021c565b604051601f8201601f19908116603f01168101908382118183101715620002b357620002b36200021c565b816040528281528886848701011115620002cc57600080fd5b600093505b82841015620002f05784840186015181850187015292850192620002d1565b600086848301015280965050505050505092915050565b600181811c908216806200031c57607f821691505b6020821081036200033d57634e487b7160e01b600052602260045260246000fd5b50919050565b601f8211156200039157600081815260208120601f850160051c810160208610156200036c5750805b601f850160051c820191505b818110156200038d5782815560010162000378565b5050505b505050565b81516001600160401b03811115620003b257620003b26200021c565b620003ca81620003c3845462000307565b8462000343565b602080601f831160018114620004025760008415620003e95750858301515b600019600386901b1c1916600185901b1785556200038d565b600085815260208120601f198616915b82811015620004335788860151825594840194600190910190840162000412565b5085821015620004525787850151600019600388901b60f8161c191681555b5050505050600190811b01905550565b613e7180620004726000396000f3fe60806040523480156200001157600080fd5b50600436106200015d5760003560e01c80636b0509b111620000c757806383f38f36116200008657806383f38f36146200039e5780638456cb5914620003b55780638da5cb5b14620003bf578063923540f814620003d1578063b89c395214620003e8578063f2fde38b146200040e57600080fd5b80636b0509b1146200030157806370ae92d21462000329578063715018a61462000355578063794ae4fe146200035f578063821ae211146200037657600080fd5b80633644e51511620001205780633644e51514620002175780633f4ba83a146200022157806341439c79146200022d5780634233666814620002645780635c975abb14620002ba5780635f98ba0214620002d957600080fd5b806306fdde03146200016257806309b9c5ba146200018457806314dd14b314620001975780631add310814620001c75780631dc8862d14620001ef575b600080fd5b6200016c62000425565b6040516200017b919062001a28565b60405180910390f35b6007545b6040519081526020016200017b565b620001ae620001a836600462001a78565b620004bf565b6040516001600160a01b0390911681526020016200017b565b620001887f265b4089f698d180c71c21e5c5a755d17cec5ca245cab57cf1f26696020008b681565b620001887f4cd5b84e84b8fa61fabcda6f7ac943dd7f8f6ff0558df9278a6e0af16964fad281565b6200018860085481565b6200022b620004ea565b005b620001ae6200023e36600462001aaf565b60036020908152600092835260408084209091529082529020546001600160a01b031681565b6200029a6200027536600462001ade565b600460205260009081526040902080546001909101546001600160a01b039091169082565b604080516001600160a01b0390931683526020830191909152016200017b565b600054600160a01b900460ff165b60405190151581526020016200017b565b620001887fa24126880bed04190203d04ec4d6365915e96e5977ee3b881ec3cfafa2b71c4981565b620001887f41bf1b4d5cbfc2a05c9782673bb5f5a23e08a0db24ab22f7c866061264bc1b4681565b620001886200033a36600462001ade565b6001600160a01b031660009081526005602052604090205490565b6200022b62000500565b6200022b6200037036600462001b03565b62000516565b620001887f5f23425bc5e9b2af73df7fcf795646c5a25e4dbaa56cf0bf4a0ff6037ea50a6881565b6200022b620003af36600462001b1d565b6200067b565b6200022b62000935565b6000546001600160a01b0316620001ae565b6200022b620003e236600462001b03565b62000949565b620002c8620003f936600462001a78565b60009081526006602052604090205460ff1690565b6200022b6200041f36600462001ade565b62000ba4565b606060028054620004369062001b81565b80601f0160208091040260200160405190810160405280929190818152602001828054620004649062001b81565b8015620004b55780601f106200048957610100808354040283529160200191620004b5565b820191906000526020600020905b8154815290600101906020018083116200049757829003601f168201915b5050505050905090565b60078181548110620004d057600080fd5b6000918252602090912001546001600160a01b0316905081565b620004f462000c24565b620004fe62000c80565b565b6200050a62000c24565b620004fe600062000cd7565b6200052062000d27565b6200052a62000d76565b62000539602082018262001ade565b6200054b606083016040840162001ade565b6200055d60c0840160a0850162001ade565b60c08401356001600160a01b0384166200058a5760405163e6c4247b60e01b815260040160405180910390fd5b6001600160a01b038316620005b25760405163e6c4247b60e01b815260040160405180910390fd5b6001600160a01b038216620005da5760405163e6c4247b60e01b815260040160405180910390fd5b80600003620005fc57604051632160733960e01b815260040160405180910390fd5b6200060e60a086016080870162001ade565b60608601356001600160a01b0382166200063b5760405163e6c4247b60e01b815260040160405180910390fd5b806000036200065d57604051633d23e4d160e11b815260040160405180910390fd5b620006688762000dd1565b5050505050506200067860018055565b50565b6200068562000d27565b6200068f62000d76565b6200069e602083018362001ade565b620006b0606084016040850162001ade565b620006c260c0850160a0860162001ade565b60808501356001600160a01b038416620006ef5760405163e6c4247b60e01b815260040160405180910390fd5b6001600160a01b038316620007175760405163e6c4247b60e01b815260040160405180910390fd5b6001600160a01b0382166200073f5760405163e6c4247b60e01b815260040160405180910390fd5b806000036200076157604051632160733960e01b815260040160405180910390fd5b6008546000907f41bf1b4d5cbfc2a05c9782673bb5f5a23e08a0db24ab22f7c866061264bc1b46620007938962000fe8565b60056000620007a660208d018d62001ade565b6001600160a01b0316815260208101919091526040016000908120805491620007cf8362001bb7565b909155506040805160208101949094528301919091526060820152608001604051602081830303815290604052805190602001206040516020016200082b92919061190160f01b81526002810192909252602282015260420190565b60405160208183030381529060405280519060200120905060006001828860000160208101906200085d919062001bdf565b604080516000815260208181018084529490945260ff90921682820152918a0135606082015290890135608082015260a0016020604051602081039080840390855afa158015620008b2573d6000803e3d6000fd5b5050604051601f1901519150506001600160a01b038116620008e75760405163e6c4247b60e01b815260040160405180910390fd5b6000546001600160a01b03828116911614620009165760405163828d7ab360e01b815260040160405180910390fd5b62000921886200113e565b5050505050506200093160018055565b5050565b6200093f62000c24565b620004fe620015a0565b6200095362000d27565b6200095d62000d76565b6200096c602082018262001ade565b6200097e606083016040840162001ade565b6200099060c0840160a0850162001ade565b60c08401356001600160a01b038416620009bd5760405163e6c4247b60e01b815260040160405180910390fd5b6001600160a01b038316620009e55760405163e6c4247b60e01b815260040160405180910390fd5b6001600160a01b03821662000a0d5760405163e6c4247b60e01b815260040160405180910390fd5b8060000362000a2f57604051632160733960e01b815260040160405180910390fd5b62000a4160a086016080870162001ade565b60608601356001600160a01b03821662000a6e5760405163e6c4247b60e01b815260040160405180910390fd5b8060000362000a9057604051633d23e4d160e11b815260040160405180910390fd5b600062000aa460c0890160a08a0162001ade565b90506001600160a01b03811663d505accf62000ac460208b018b62001ade565b62000ad660a08c0160808d0162001ade565b8b60c001358c60e001358d61010001600001602081019062000af9919062001bdf565b6040516001600160e01b031960e088901b1681526001600160a01b0395861660048201529490931660248501526044840191909152606483015260ff1660848201526101208b013560a48201526101408b013560c482015260e401600060405180830381600087803b15801562000b6f57600080fd5b505af115801562000b84573d6000803e3d6000fd5b5050505062000b938862000dd1565b505050505050506200067860018055565b62000bae62000c24565b6001600160a01b03811662000c195760405162461bcd60e51b815260206004820152602660248201527f4f776e61626c653a206e6577206f776e657220697320746865207a65726f206160448201526564647265737360d01b60648201526084015b60405180910390fd5b620006788162000cd7565b6000546001600160a01b03163314620004fe5760405162461bcd60e51b815260206004820181905260248201527f4f776e61626c653a2063616c6c6572206973206e6f7420746865206f776e6572604482015260640162000c10565b62000c8a620015e6565b6000805460ff60a01b191690557f5db9ee0a495bf2e6ff9c91a7834c1ba4fdd244a5e8aa4e537bd38aeae4b073aa335b6040516001600160a01b03909116815260200160405180910390a1565b600080546001600160a01b038381166001600160a01b0319831681178455604051919092169283917f8be0079c531659141344cd1fd0a4f28419497f9722a3daafe3b4186f6b6457e09190a35050565b600054600160a01b900460ff1615620004fe5760405162461bcd60e51b815260206004820152601060248201526f14185d5cd8589b194e881c185d5cd95960821b604482015260640162000c10565b60026001540362000dca5760405162461bcd60e51b815260206004820152601f60248201527f5265656e7472616e637947756172643a207265656e7472616e742063616c6c00604482015260640162000c10565b6002600155565b62000de0602082018262001ade565b6001600160a01b0316336001600160a01b03161462000e125760405163fbc132d360e01b815260040160405180910390fd5b600062000e2660c0830160a0840162001ade565b905060006001600160a01b0382166323b872dd3362000e4c60a087016080880162001ade565b6040516001600160e01b031960e085901b1681526001600160a01b0392831660048201529116602482015260c086013560448201526064016020604051808303816000875af115801562000ea4573d6000803e3d6000fd5b505050506040513d601f19601f8201168201806040525081019062000eca919062001c04565b90508062000eeb576040516301c6765160e11b815260040160405180910390fd5b600060048162000f0260c0870160a0880162001ade565b6001600160a01b0390811682526020808301939093526040918201600020825180840190935280549091168083526001909101549282019290925291501580159062000fd65762000f5a60c0860160a0870162001ade565b604051630852cd8d60e31b815260c087013560048201526001600160a01b0391909116906342966c6890602401600060405180830381600087803b15801562000fa257600080fd5b505af115801562000fb7573d6000803e3d6000fd5b5050505062000fd0858360000151846020015162001638565b62000fe1565b62000fe185620016e9565b5050505050565b60007f5f23425bc5e9b2af73df7fcf795646c5a25e4dbaa56cf0bf4a0ff6037ea50a68620010168362001788565b620010248460400162001788565b8460800135620010378660a001620017e8565b6200104a610100880160e0890162001ade565b6200105e61012089016101008a0162001ade565b6200106e6101208a018a62001c28565b6040516200107e92919062001c79565b604051908190039020620010976101408b018b62001c28565b604051620010a792919062001c79565b60405180910390208a6101600135620010c48c610180016200181a565b60408051602081019c909c528b019990995260608a0197909752608089019590955260a08801939093526001600160a01b0391821660c08801521660e0860152610100850152610120840152610140830152610160820152610180015b604051602081830303815290604052805190602001209050919050565b60208101356000036200116457604051633d23e4d160e11b815260040160405180910390fd5b606081013546146200118c57604051600162fac06160e01b0319815260040160405180910390fd5b604080516101808301356020808301919091526101a0840135828401526101c08401356060808401919091528351808403909101815260809092018352815191810191909120600081815260069092529190205460ff16156200120257604051630c8d9eab60e31b815260040160405180910390fd5b6000818152600660205260408120805460ff191660011790556200122f6101208401610100850162001ade565b6001600160a01b031603620014bc5760c082018035600090815260036020526040812090918290620012659060a0870162001ade565b6001600160a01b0390811682526020820192909252604001600020541603620013e25760006200129a61012084018462001c28565b620012aa61014086018662001c28565b604051620012b89062001a1a565b620012c7949392919062001cb2565b604051809103906000f080158015620012e4573d6000803e3d6000fd5b5060c084018035600090815260036020526040812092935083928392909190620013129060a0890162001ade565b6001600160a01b0390811682526020820192909252604090810160002080546001600160a01b031916939092169290921790558051808201909152806200136060c0870160a0880162001ade565b6001600160a01b03908116825260c0870135602092830152928316600081815260048352604081208451815496166001600160a01b031996871617815593909201516001938401556007805493840181559091527fa66cc928b5edb82af9bd49922954155ab7b0942694bea4ce44661d9a8736c6889091018054909216179055505b60c082018035600090815260036020526040812090918290620014099060a0870162001ade565b6001600160a01b0390811682526020820192909252604090810160002054909116915081906340c10f199062001446906060870190870162001ade565b6040516001600160e01b031960e084901b1681526001600160a01b03909116600482015260808601356024820152604401600060405180830381600087803b1580156200149257600080fd5b505af1158015620014a7573d6000803e3d6000fd5b50505050620014b783826200186b565b505050565b6000620014d26101208401610100850162001ade565b905060006001600160a01b03821663a9059cbb620014f7606087016040880162001ade565b6040516001600160e01b031960e084901b1681526001600160a01b039091166004820152608087013560248201526044016020604051808303816000875af115801562001548573d6000803e3d6000fd5b505050506040513d601f19601f820116820180604052508101906200156e919062001c04565b9050806200158f57604051631a3a0fa560e11b815260040160405180910390fd5b6200159a8462001943565b50505050565b620015aa62000d27565b6000805460ff60a01b1916600160a01b1790557f62e78cea01bee320cd4e420270b5ea74000d11b0c9f74754ebdbfc544b05a25862000cba3390565b600054600160a01b900460ff16620004fe5760405162461bcd60e51b815260206004820152601460248201527314185d5cd8589b194e881b9bdd081c185d5cd95960621b604482015260640162000c10565b6001600160a01b03821662001654606085016040860162001ade565b6001600160a01b03166200166c602086018662001ade565b6001600160a01b03167f1007c5a30d556aa881634fee3f390d56a3c45cab419a08c67c07432d06f8bcdb620016a860c0880160a0890162001ade565b604080516001600160a01b03909216825260c089013560208301524690820152606080890135908201526080810186905260a00160405180910390a4505050565b620016fb606082016040830162001ade565b6001600160a01b031662001713602083018362001ade565b6001600160a01b03166200172e60c0840160a0850162001ade565b6040805160c08601358152466020820152606080870135928201929092526001600160a01b0392909216917f6d31f0c03e4fdb705b56d996d8af8b7eac9e00feb148fdf166ab3f31b48ead1491015b60405180910390a450565b60007f265b4089f698d180c71c21e5c5a755d17cec5ca245cab57cf1f26696020008b6620017ba602084018462001ade565b604080516020818101949094526001600160a01b039092169082015290830135606082015260800162001121565b60007fa24126880bed04190203d04ec4d6365915e96e5977ee3b881ec3cfafa2b71c49620017ba602084018462001ade565b604080517f4cd5b84e84b8fa61fabcda6f7ac943dd7f8f6ff0558df9278a6e0af16964fad2602080830191909152833582840152830135606082015290820135608082015260009060a00162001121565b6101808201356200188360c0840160a0850162001ade565b6001600160a01b03166200189e606085016040860162001ade565b6001600160a01b03167fcd7a7dc644e9df2277bd5fae4a5ca441c90939be6bc2717c8c7e5b021533b80b846080870135620018dd602089018962001ade565b604080516001600160a01b0394851681526020808201949094529390911690830152870135606080830191909152870135608082015260c08088013560a08301526101a0880135908201526101c087013560e08201526101000160405180910390a45050565b6101808101356200195b606083016040840162001ade565b6001600160a01b0316620019786101208401610100850162001ade565b6001600160a01b03167f990da0a36e78f73d4c864ee1cc23b2a252bcc13d54611bfe9a4d70e65e2241e26080850135620019b6602087018762001ade565b60208701356060880135620019d36101008a0160e08b0162001ade565b604080519586526001600160a01b03948516602087015285019290925260608401521660808201526101a086013560a08201526101c086013560c082015260e0016200177d565b6121538062001ce983390190565b600060208083528351808285015260005b8181101562001a575785810183015185820160400152820162001a39565b506000604082860101526040601f19601f8301168501019250505092915050565b60006020828403121562001a8b57600080fd5b5035919050565b80356001600160a01b038116811462001aaa57600080fd5b919050565b6000806040838503121562001ac357600080fd5b8235915062001ad56020840162001a92565b90509250929050565b60006020828403121562001af157600080fd5b62001afc8262001a92565b9392505050565b6000610160828403121562001b1757600080fd5b50919050565b600080828403608081121562001b3257600080fd5b833567ffffffffffffffff81111562001b4a57600080fd5b84016101e0818703121562001b5e57600080fd5b92506060601f198201121562001b7357600080fd5b506020830190509250929050565b600181811c9082168062001b9657607f821691505b60208210810362001b1757634e487b7160e01b600052602260045260246000fd5b60006001820162001bd857634e487b7160e01b600052601160045260246000fd5b5060010190565b60006020828403121562001bf257600080fd5b813560ff8116811462001afc57600080fd5b60006020828403121562001c1757600080fd5b8151801515811462001afc57600080fd5b6000808335601e1984360301811262001c4057600080fd5b83018035915067ffffffffffffffff82111562001c5c57600080fd5b60200191503681900382131562001c7257600080fd5b9250929050565b8183823760009101908152919050565b81835281816020850137506000828201602090810191909152601f909101601f19169091010190565b60408152600062001cc860408301868862001c89565b828103602084015262001cdd81858762001c89565b97965050505050505056fe60806040523480156200001157600080fd5b50604051620021533803806200215383398101604081905262000034916200039a565b81818181600562000046838262000492565b50600662000055828262000492565b50506007805460ff19169055506200006f60003362000170565b6200009b7f9f2df0fed2c77648de5860a4cc508cd0818c85b8b8a1ab4ceeef8d981c8956a63362000170565b620000c77f65d7a28e3265b37a6474929f336521b332c1681b933f6cb9f3376673440d862a3362000170565b5050815160208084019190912060408051808201825260018152603160f81b9084015280517f8b73c3c69bb8fe3d512ecc4cf759cc79239f7b179b0ffacaa9a75d522b39400f938101939093528201527fc89efdaa54c0f20c7adf612882df0950f5a951637e0307cdcb4c672f298b8bc660608201524660808201523060a082015260c0016040516020818303038152906040528051906020012060098190555050506200055e565b6200017c828262000180565b5050565b620001978282620001c360201b62000c0a1760201c565b6000828152600160209081526040909120620001be91839062000c8e62000263821b17901c565b505050565b6000828152602081815260408083206001600160a01b038516845290915290205460ff166200017c576000828152602081815260408083206001600160a01b03851684529091529020805460ff191660011790556200021f3390565b6001600160a01b0316816001600160a01b0316837f2f8788117e7eff1d82e926ec794901d17c78024a50270940304540a733656f0d60405160405180910390a45050565b60006200027a836001600160a01b03841662000283565b90505b92915050565b6000818152600183016020526040812054620002cc575081546001818101845560008481526020808220909301849055845484825282860190935260409020919091556200027d565b5060006200027d565b634e487b7160e01b600052604160045260246000fd5b600082601f830112620002fd57600080fd5b81516001600160401b03808211156200031a576200031a620002d5565b604051601f8301601f19908116603f01168101908282118183101715620003455762000345620002d5565b816040528381526020925086838588010111156200036257600080fd5b600091505b8382101562000386578582018301518183018401529082019062000367565b600093810190920192909252949350505050565b60008060408385031215620003ae57600080fd5b82516001600160401b0380821115620003c657600080fd5b620003d486838701620002eb565b93506020850151915080821115620003eb57600080fd5b50620003fa85828601620002eb565b9150509250929050565b600181811c908216806200041957607f821691505b6020821081036200043a57634e487b7160e01b600052602260045260246000fd5b50919050565b601f821115620001be57600081815260208120601f850160051c81016020861015620004695750805b601f850160051c820191505b818110156200048a5782815560010162000475565b505050505050565b81516001600160401b03811115620004ae57620004ae620002d5565b620004c681620004bf845462000404565b8462000440565b602080601f831160018114620004fe5760008415620004e55750858301515b600019600386901b1c1916600185901b1785556200048a565b600085815260208120601f198616915b828110156200052f578886015182559484019460019091019084016200050e565b50858210156200054e5787850151600019600388901b60f8161c191681555b5050505050600190811b01905550565b611be5806200056e6000396000f3fe608060405234801561001057600080fd5b50600436106101f05760003560e01c806370a082311161010f578063a457c2d7116100a2578063d539139311610071578063d539139314610447578063d547741f1461046e578063dd62ed3e14610481578063e63ab1e91461049457600080fd5b8063a457c2d7146103fb578063a9059cbb1461040e578063ca15c87314610421578063d505accf1461043457600080fd5b80639010d07c116100de5780639010d07c146103ad57806391d14854146103d857806395d89b41146103eb578063a217fddf146103f357600080fd5b806370a082311461034057806379cc6790146103695780637ecebe001461037c5780638456cb59146103a557600080fd5b8063313ce567116101875780633f4ba83a116101565780633f4ba83a1461030757806340c10f191461030f57806342966c68146103225780635c975abb1461033557600080fd5b8063313ce567146102c95780633644e515146102d857806336568abe146102e157806339509351146102f457600080fd5b806323b872dd116101c357806323b872dd14610257578063248a9ca31461026a5780632f2ff15d1461028d57806330adf81f146102a257600080fd5b806301ffc9a7146101f557806306fdde031461021d578063095ea7b31461023257806318160ddd14610245575b600080fd5b610208610203366004611819565b6104bb565b60405190151581526020015b60405180910390f35b6102256104e6565b6040516102149190611867565b6102086102403660046118b6565b610578565b6004545b604051908152602001610214565b6102086102653660046118e0565b610590565b61024961027836600461191c565b60009081526020819052604090206001015490565b6102a061029b366004611935565b6105b4565b005b6102497f6e71edae12b1b97f4d1f60370fef10105fa2faae0126114a169c64845d6126c981565b60405160128152602001610214565b61024960095481565b6102a06102ef366004611935565b6105de565b6102086103023660046118b6565b610661565b6102a0610683565b6102a061031d3660046118b6565b610729565b6102a061033036600461191c565b6107c8565b60075460ff16610208565b61024961034e366004611961565b6001600160a01b031660009081526002602052604090205490565b6102a06103773660046118b6565b6107d5565b61024961038a366004611961565b6001600160a01b031660009081526008602052604090205490565b6102a06107ea565b6103c06103bb36600461197c565b61088e565b6040516001600160a01b039091168152602001610214565b6102086103e6366004611935565b6108ad565b6102256108d6565b610249600081565b6102086104093660046118b6565b6108e5565b61020861041c3660046118b6565b610960565b61024961042f36600461191c565b61096e565b6102a061044236600461199e565b610985565b6102497f9f2df0fed2c77648de5860a4cc508cd0818c85b8b8a1ab4ceeef8d981c8956a681565b6102a061047c366004611935565b610bba565b61024961048f366004611a11565b610bdf565b6102497f65d7a28e3265b37a6474929f336521b332c1681b933f6cb9f3376673440d862a81565b60006001600160e01b03198216635a05180f60e01b14806104e057506104e082610ca3565b92915050565b6060600580546104f590611a3b565b80601f016020809104026020016040519081016040528092919081815260200182805461052190611a3b565b801561056e5780601f106105435761010080835404028352916020019161056e565b820191906000526020600020905b81548152906001019060200180831161055157829003601f168201915b5050505050905090565b600033610586818585610cd8565b5060019392505050565b60003361059e858285610dfc565b6105a9858585610e76565b506001949350505050565b6000828152602081905260409020600101546105cf8161102c565b6105d98383611036565b505050565b6001600160a01b03811633146106535760405162461bcd60e51b815260206004820152602f60248201527f416363657373436f6e74726f6c3a2063616e206f6e6c792072656e6f756e636560448201526e103937b632b9903337b91039b2b63360891b60648201526084015b60405180910390fd5b61065d8282611058565b5050565b6000336105868185856106748383610bdf565b61067e9190611a8b565b610cd8565b6106ad7f65d7a28e3265b37a6474929f336521b332c1681b933f6cb9f3376673440d862a336108ad565b61071f5760405162461bcd60e51b815260206004820152603960248201527f45524332305072657365744d696e7465725061757365723a206d75737420686160448201527f76652070617573657220726f6c6520746f20756e706175736500000000000000606482015260840161064a565b61072761107a565b565b6107537f9f2df0fed2c77648de5860a4cc508cd0818c85b8b8a1ab4ceeef8d981c8956a6336108ad565b6107be5760405162461bcd60e51b815260206004820152603660248201527f45524332305072657365744d696e7465725061757365723a206d7573742068616044820152751d99481b5a5b9d195c881c9bdb19481d1bc81b5a5b9d60521b606482015260840161064a565b61065d82826110cc565b6107d23382611199565b50565b6107e0823383610dfc565b61065d8282611199565b6108147f65d7a28e3265b37a6474929f336521b332c1681b933f6cb9f3376673440d862a336108ad565b6108865760405162461bcd60e51b815260206004820152603760248201527f45524332305072657365744d696e7465725061757365723a206d75737420686160448201527f76652070617573657220726f6c6520746f207061757365000000000000000000606482015260840161064a565b6107276112d9565b60008281526001602052604081206108a69083611316565b9392505050565b6000918252602082815260408084206001600160a01b0393909316845291905290205460ff1690565b6060600680546104f590611a3b565b600033816108f38286610bdf565b9050838110156109535760405162461bcd60e51b815260206004820152602560248201527f45524332303a2064656372656173656420616c6c6f77616e63652062656c6f77604482015264207a65726f60d81b606482015260840161064a565b6105a98286868403610cd8565b600033610586818585610e76565b60008181526001602052604081206104e090611322565b428410156109e05760405162461bcd60e51b815260206004820152602260248201527f4552433230576974685065726d69743a20455850495245445f5349474e415455604482015261524560f01b606482015260840161064a565b6009546001600160a01b038816600090815260086020526040812080549192917f6e71edae12b1b97f4d1f60370fef10105fa2faae0126114a169c64845d6126c9918b918b918b919087610a3383611a9e565b909155506040805160208101969096526001600160a01b0394851690860152929091166060840152608083015260a082015260c0810187905260e00160405160208183030381529060405280519060200120604051602001610aac92919061190160f01b81526002810192909252602282015260420190565b60408051601f198184030181528282528051602091820120600080855291840180845281905260ff88169284019290925260608301869052608083018590529092509060019060a0016020604051602081039080840390855afa158015610b17573d6000803e3d6000fd5b5050604051601f1901519150506001600160a01b03811615801590610b4d5750886001600160a01b0316816001600160a01b0316145b610ba45760405162461bcd60e51b815260206004820152602260248201527f4552433230576974685065726d69743a20494e56414c49445f5349474e415455604482015261524560f01b606482015260840161064a565b610baf898989610cd8565b505050505050505050565b600082815260208190526040902060010154610bd58161102c565b6105d98383611058565b6001600160a01b03918216600090815260036020908152604080832093909416825291909152205490565b610c1482826108ad565b61065d576000828152602081815260408083206001600160a01b03851684529091529020805460ff19166001179055610c4a3390565b6001600160a01b0316816001600160a01b0316837f2f8788117e7eff1d82e926ec794901d17c78024a50270940304540a733656f0d60405160405180910390a45050565b60006108a6836001600160a01b03841661132c565b60006001600160e01b03198216637965db0b60e01b14806104e057506301ffc9a760e01b6001600160e01b03198316146104e0565b6001600160a01b038316610d3a5760405162461bcd60e51b8152602060048201526024808201527f45524332303a20617070726f76652066726f6d20746865207a65726f206164646044820152637265737360e01b606482015260840161064a565b6001600160a01b038216610d9b5760405162461bcd60e51b815260206004820152602260248201527f45524332303a20617070726f766520746f20746865207a65726f206164647265604482015261737360f01b606482015260840161064a565b6001600160a01b0383811660008181526003602090815260408083209487168084529482529182902085905590518481527f8c5be1e5ebec7d5bd14f71427d1e84f3dd0314c0f7b2291e5b200ac8c7c3b925910160405180910390a3505050565b6000610e088484610bdf565b90506000198114610e705781811015610e635760405162461bcd60e51b815260206004820152601d60248201527f45524332303a20696e73756666696369656e7420616c6c6f77616e6365000000604482015260640161064a565b610e708484848403610cd8565b50505050565b6001600160a01b038316610eda5760405162461bcd60e51b815260206004820152602560248201527f45524332303a207472616e736665722066726f6d20746865207a65726f206164604482015264647265737360d81b606482015260840161064a565b6001600160a01b038216610f3c5760405162461bcd60e51b815260206004820152602360248201527f45524332303a207472616e7366657220746f20746865207a65726f206164647260448201526265737360e81b606482015260840161064a565b610f4783838361137b565b6001600160a01b03831660009081526002602052604090205481811015610fbf5760405162461bcd60e51b815260206004820152602660248201527f45524332303a207472616e7366657220616d6f756e7420657863656564732062604482015265616c616e636560d01b606482015260840161064a565b6001600160a01b0380851660008181526002602052604080822086860390559286168082529083902080548601905591517fddf252ad1be2c89b69c2b068fc378daa952ba7f163c4a11628f55a4df523b3ef9061101f9086815260200190565b60405180910390a3610e70565b6107d28133611386565b6110408282610c0a565b60008281526001602052604090206105d99082610c8e565b61106282826113df565b60008281526001602052604090206105d99082611444565b611082611459565b6007805460ff191690557f5db9ee0a495bf2e6ff9c91a7834c1ba4fdd244a5e8aa4e537bd38aeae4b073aa335b6040516001600160a01b03909116815260200160405180910390a1565b6001600160a01b0382166111225760405162461bcd60e51b815260206004820152601f60248201527f45524332303a206d696e7420746f20746865207a65726f206164647265737300604482015260640161064a565b61112e6000838361137b565b80600460008282546111409190611a8b565b90915550506001600160a01b0382166000818152600260209081526040808320805486019055518481527fddf252ad1be2c89b69c2b068fc378daa952ba7f163c4a11628f55a4df523b3ef910160405180910390a35050565b6001600160a01b0382166111f95760405162461bcd60e51b815260206004820152602160248201527f45524332303a206275726e2066726f6d20746865207a65726f206164647265736044820152607360f81b606482015260840161064a565b6112058260008361137b565b6001600160a01b038216600090815260026020526040902054818110156112795760405162461bcd60e51b815260206004820152602260248201527f45524332303a206275726e20616d6f756e7420657863656564732062616c616e604482015261636560f01b606482015260840161064a565b6001600160a01b03831660008181526002602090815260408083208686039055600480548790039055518581529192917fddf252ad1be2c89b69c2b068fc378daa952ba7f163c4a11628f55a4df523b3ef910160405180910390a3505050565b6112e16114a2565b6007805460ff191660011790557f62e78cea01bee320cd4e420270b5ea74000d11b0c9f74754ebdbfc544b05a2586110af3390565b60006108a683836114e8565b60006104e0825490565b6000818152600183016020526040812054611373575081546001818101845560008481526020808220909301849055845484825282860190935260409020919091556104e0565b5060006104e0565b6105d9838383611512565b61139082826108ad565b61065d5761139d81611578565b6113a883602061158a565b6040516020016113b9929190611ab7565b60408051601f198184030181529082905262461bcd60e51b825261064a91600401611867565b6113e982826108ad565b1561065d576000828152602081815260408083206001600160a01b0385168085529252808320805460ff1916905551339285917ff6391f5c32d9c69d2a47ea670b442974b53935d1edc7fd64eb21e047a839171b9190a45050565b60006108a6836001600160a01b038416611726565b60075460ff166107275760405162461bcd60e51b815260206004820152601460248201527314185d5cd8589b194e881b9bdd081c185d5cd95960621b604482015260640161064a565b60075460ff16156107275760405162461bcd60e51b815260206004820152601060248201526f14185d5cd8589b194e881c185d5cd95960821b604482015260640161064a565b60008260000182815481106114ff576114ff611b2c565b9060005260206000200154905092915050565b60075460ff16156105d95760405162461bcd60e51b815260206004820152602a60248201527f45524332305061757361626c653a20746f6b656e207472616e736665722077686044820152691a5b19481c185d5cd95960b21b606482015260840161064a565b60606104e06001600160a01b03831660145b60606000611599836002611b42565b6115a4906002611a8b565b67ffffffffffffffff8111156115bc576115bc611b59565b6040519080825280601f01601f1916602001820160405280156115e6576020820181803683370190505b509050600360fc1b8160008151811061160157611601611b2c565b60200101906001600160f81b031916908160001a905350600f60fb1b8160018151811061163057611630611b2c565b60200101906001600160f81b031916908160001a9053506000611654846002611b42565b61165f906001611a8b565b90505b60018111156116d7576f181899199a1a9b1b9c1cb0b131b232b360811b85600f166010811061169357611693611b2c565b1a60f81b8282815181106116a9576116a9611b2c565b60200101906001600160f81b031916908160001a90535060049490941c936116d081611b6f565b9050611662565b5083156108a65760405162461bcd60e51b815260206004820181905260248201527f537472696e67733a20686578206c656e67746820696e73756666696369656e74604482015260640161064a565b6000818152600183016020526040812054801561180f57600061174a600183611b86565b855490915060009061175e90600190611b86565b90508181146117c357600086600001828154811061177e5761177e611b2c565b90600052602060002001549050808760000184815481106117a1576117a1611b2c565b6000918252602080832090910192909255918252600188019052604090208390555b85548690806117d4576117d4611b99565b6001900381819060005260206000200160009055905585600101600086815260200190815260200160002060009055600193505050506104e0565b60009150506104e0565b60006020828403121561182b57600080fd5b81356001600160e01b0319811681146108a657600080fd5b60005b8381101561185e578181015183820152602001611846565b50506000910152565b6020815260008251806020840152611886816040850160208701611843565b601f01601f19169190910160400192915050565b80356001600160a01b03811681146118b157600080fd5b919050565b600080604083850312156118c957600080fd5b6118d28361189a565b946020939093013593505050565b6000806000606084860312156118f557600080fd5b6118fe8461189a565b925061190c6020850161189a565b9150604084013590509250925092565b60006020828403121561192e57600080fd5b5035919050565b6000806040838503121561194857600080fd5b823591506119586020840161189a565b90509250929050565b60006020828403121561197357600080fd5b6108a68261189a565b6000806040838503121561198f57600080fd5b50508035926020909101359150565b600080600080600080600060e0888a0312156119b957600080fd5b6119c28861189a565b96506119d06020890161189a565b95506040880135945060608801359350608088013560ff811681146119f457600080fd5b9699959850939692959460a0840135945060c09093013592915050565b60008060408385031215611a2457600080fd5b611a2d8361189a565b91506119586020840161189a565b600181811c90821680611a4f57607f821691505b602082108103611a6f57634e487b7160e01b600052602260045260246000fd5b50919050565b634e487b7160e01b600052601160045260246000fd5b808201808211156104e0576104e0611a75565b600060018201611ab057611ab0611a75565b5060010190565b7f416363657373436f6e74726f6c3a206163636f756e7420000000000000000000815260008351611aef816017850160208801611843565b7001034b99036b4b9b9b4b733903937b6329607d1b6017918401918201528351611b20816028840160208801611843565b01602801949350505050565b634e487b7160e01b600052603260045260246000fd5b80820281158282048414176104e0576104e0611a75565b634e487b7160e01b600052604160045260246000fd5b600081611b7e57611b7e611a75565b506000190190565b818103818111156104e0576104e0611a75565b634e487b7160e01b600052603160045260246000fdfea2646970667358221220851c01690a9fd31b9bf22b0274a02062fee53587f320d5a17d3ee73ddb851c4b64736f6c63430008110033a2646970667358221220c0b805677b33ae043862424474f552745d60a41fe3b573313dabbbe0f892e88a64736f6c63430008110033",
  "linkReferences": {},
  "deployedLinkReferences": {}
}