{
  "_format": "hh-sol-artifact-1",
  "contractName": "Bridge",
  "sourceName": "contracts/Bridge.sol",
  "abi": [
    {
      "inputs": [
        {
          "internalType": "string",
          "name": "contractName",
          "type": "string"
        }
      ],
      "stateMutability": "nonpayable",
      "type": "constructor"
    },
    {
      "inputs": [],
      "name": "AddressIsNotTheOwner",
      "type": "error"
    },
    {
      "inputs": [],
      "name": "CurrentAndProvidedChainsDoNotMatch",
      "type": "error"
    },
    {
      "inputs": [],
      "name": "DestinationChainCantBeCurrentChain",
      "type": "error"
    },
    {
      "inputs": [],
      "name": "FromAndSenderMustMatch",
      "type": "error"
    },
    {
      "inputs": [],
      "name": "IncorrectDestinationChain",
      "type": "error"
    },
    {
      "inputs": [],
      "name": "InvalidAddress",
      "type": "error"
    },
    {
      "inputs": [],
      "name": "InvalidChainId",
      "type": "error"
    },
    {
      "inputs": [],
      "name": "InvalidTokenAmount",
      "type": "error"
    },
    {
      "inputs": [],
      "name": "TransferFromIsUnsuccessful",
      "type": "error"
    },
    {
      "inputs": [],
      "name": "TransferIsUnsuccessful",
      "type": "error"
    },
    {
      "anonymous": false,
      "inputs": [
        {
          "indexed": false,
          "internalType": "address",
          "name": "burnedWrappedTokenAddress",
          "type": "address"
        },
        {
          "indexed": false,
          "internalType": "uint256",
          "name": "value",
          "type": "uint256"
        },
        {
          "indexed": false,
          "internalType": "address",
          "name": "sender",
          "type": "address"
        },
        {
          "indexed": false,
          "internalType": "address",
          "name": "recepient",
          "type": "address"
        },
        {
          "indexed": false,
          "internalType": "uint256",
          "name": "sourceChainId",
          "type": "uint256"
        },
        {
          "indexed": false,
          "internalType": "uint256",
          "name": "toChainId",
          "type": "uint256"
        },
        {
          "indexed": false,
          "internalType": "address",
          "name": "originalTokenAddress",
          "type": "address"
        },
        {
          "indexed": false,
          "internalType": "uint256",
          "name": "originalTokenChainId",
          "type": "uint256"
        }
      ],
      "name": "BurnWrappedToken",
      "type": "event"
    },
    {
      "anonymous": false,
      "inputs": [
        {
          "indexed": true,
          "internalType": "address",
          "name": "lockedTokenAddress",
          "type": "address"
        },
        {
          "indexed": false,
          "internalType": "uint256",
          "name": "value",
          "type": "uint256"
        },
        {
          "indexed": true,
          "internalType": "address",
          "name": "sender",
          "type": "address"
        },
        {
          "indexed": true,
          "internalType": "address",
          "name": "recepient",
          "type": "address"
        },
        {
          "indexed": false,
          "internalType": "uint256",
          "name": "sourceChainId",
          "type": "uint256"
        },
        {
          "indexed": false,
          "internalType": "uint256",
          "name": "toChainId",
          "type": "uint256"
        }
      ],
      "name": "LockOriginalToken",
      "type": "event"
    },
    {
      "anonymous": false,
      "inputs": [
        {
          "indexed": false,
          "internalType": "address",
          "name": "mintedTokenAddress",
          "type": "address"
        },
        {
          "indexed": false,
          "internalType": "uint256",
          "name": "value",
          "type": "uint256"
        },
        {
          "indexed": false,
          "internalType": "address",
          "name": "sender",
          "type": "address"
        },
        {
          "indexed": false,
          "internalType": "address",
          "name": "recepient",
          "type": "address"
        },
        {
          "indexed": false,
          "internalType": "uint256",
          "name": "sourceChainId",
          "type": "uint256"
        },
        {
          "indexed": false,
          "internalType": "uint256",
          "name": "toChainId",
          "type": "uint256"
        },
        {
          "indexed": false,
          "internalType": "address",
          "name": "originalTokenAddress",
          "type": "address"
        },
        {
          "indexed": false,
          "internalType": "uint256",
          "name": "originalChainId",
          "type": "uint256"
        }
      ],
      "name": "MintWrappedToken",
      "type": "event"
    },
    {
      "anonymous": false,
      "inputs": [
        {
          "indexed": true,
          "internalType": "address",
          "name": "previousOwner",
          "type": "address"
        },
        {
          "indexed": true,
          "internalType": "address",
          "name": "newOwner",
          "type": "address"
        }
      ],
      "name": "OwnershipTransferred",
      "type": "event"
    },
    {
      "anonymous": false,
      "inputs": [
        {
          "indexed": false,
          "internalType": "address",
          "name": "account",
          "type": "address"
        }
      ],
      "name": "Paused",
      "type": "event"
    },
    {
      "anonymous": false,
      "inputs": [
        {
          "indexed": false,
          "internalType": "address",
          "name": "releasedTokenAddress",
          "type": "address"
        },
        {
          "indexed": false,
          "internalType": "uint256",
          "name": "value",
          "type": "uint256"
        },
        {
          "indexed": false,
          "internalType": "address",
          "name": "sender",
          "type": "address"
        },
        {
          "indexed": false,
          "internalType": "address",
          "name": "recepient",
          "type": "address"
        },
        {
          "indexed": false,
          "internalType": "uint256",
          "name": "sourceChainId",
          "type": "uint256"
        },
        {
          "indexed": false,
          "internalType": "uint256",
          "name": "toChainId",
          "type": "uint256"
        },
        {
          "indexed": false,
          "internalType": "address",
          "name": "sourceWrappedTokenAddress",
          "type": "address"
        }
      ],
      "name": "ReleaseOriginalToken",
      "type": "event"
    },
    {
      "anonymous": false,
      "inputs": [
        {
          "indexed": false,
          "internalType": "address",
          "name": "account",
          "type": "address"
        }
      ],
      "name": "Unpaused",
      "type": "event"
    },
    {
      "inputs": [],
      "name": "CLAIMDATA_TYPEHASH",
      "outputs": [
        {
          "internalType": "bytes32",
          "name": "",
          "type": "bytes32"
        }
      ],
      "stateMutability": "view",
      "type": "function"
    },
    {
      "inputs": [],
      "name": "CLAIM_TYPEHASH",
      "outputs": [
        {
          "internalType": "bytes32",
          "name": "",
          "type": "bytes32"
        }
      ],
      "stateMutability": "view",
      "type": "function"
    },
    {
      "inputs": [],
      "name": "DOMAIN_SEPARATOR",
      "outputs": [
        {
          "internalType": "bytes32",
          "name": "",
          "type": "bytes32"
        }
      ],
      "stateMutability": "view",
      "type": "function"
    },
    {
      "inputs": [],
      "name": "ORIGINAL_TOKEN_TYPEHASH",
      "outputs": [
        {
          "internalType": "bytes32",
          "name": "",
          "type": "bytes32"
        }
      ],
      "stateMutability": "view",
      "type": "function"
    },
    {
      "inputs": [],
      "name": "SIGNATURE_TYPEHASH",
      "outputs": [
        {
          "internalType": "bytes32",
          "name": "",
          "type": "bytes32"
        }
      ],
      "stateMutability": "view",
      "type": "function"
    },
    {
      "inputs": [],
      "name": "USER_TYPEHASH",
      "outputs": [
        {
          "internalType": "bytes32",
          "name": "",
          "type": "bytes32"
        }
      ],
      "stateMutability": "view",
      "type": "function"
    },
    {
      "inputs": [
        {
          "components": [
            {
              "components": [
                {
                  "internalType": "address",
                  "name": "_address",
                  "type": "address"
                },
                {
                  "internalType": "uint256",
                  "name": "chainId",
                  "type": "uint256"
                }
              ],
              "internalType": "struct IBridge.User",
              "name": "from",
              "type": "tuple"
            },
            {
              "components": [
                {
                  "internalType": "address",
                  "name": "_address",
                  "type": "address"
                },
                {
                  "internalType": "uint256",
                  "name": "chainId",
                  "type": "uint256"
                }
              ],
              "internalType": "struct IBridge.User",
              "name": "to",
              "type": "tuple"
            },
            {
              "internalType": "uint256",
              "name": "value",
              "type": "uint256"
            },
            {
              "components": [
                {
                  "internalType": "address",
                  "name": "tokenAddress",
                  "type": "address"
                },
                {
                  "internalType": "uint256",
                  "name": "originChainId",
                  "type": "uint256"
                }
              ],
              "internalType": "struct IBridge.OriginalToken",
              "name": "token",
              "type": "tuple"
            },
            {
              "internalType": "address",
              "name": "depositTxSourceToken",
              "type": "address"
            },
            {
              "internalType": "address",
              "name": "targetTokenAddress",
              "type": "address"
            },
            {
              "internalType": "string",
              "name": "targetTokenName",
              "type": "string"
            },
            {
              "internalType": "string",
              "name": "targetTokenSymbol",
              "type": "string"
            },
            {
              "internalType": "uint256",
              "name": "deadline",
              "type": "uint256"
            }
          ],
          "internalType": "struct IBridge.ClaimData",
          "name": "_claimData",
          "type": "tuple"
        },
        {
          "components": [
            {
              "internalType": "uint8",
              "name": "v",
              "type": "uint8"
            },
            {
              "internalType": "bytes32",
              "name": "r",
              "type": "bytes32"
            },
            {
              "internalType": "bytes32",
              "name": "s",
              "type": "bytes32"
            }
          ],
          "internalType": "struct IBridge.Signature",
          "name": "claimSig",
          "type": "tuple"
        }
      ],
      "name": "claim",
      "outputs": [],
      "stateMutability": "nonpayable",
      "type": "function"
    },
    {
      "inputs": [
        {
          "components": [
            {
              "components": [
                {
                  "internalType": "address",
                  "name": "_address",
                  "type": "address"
                },
                {
                  "internalType": "uint256",
                  "name": "chainId",
                  "type": "uint256"
                }
              ],
              "internalType": "struct IBridge.User",
              "name": "from",
              "type": "tuple"
            },
            {
              "components": [
                {
                  "internalType": "address",
                  "name": "_address",
                  "type": "address"
                },
                {
                  "internalType": "uint256",
                  "name": "chainId",
                  "type": "uint256"
                }
              ],
              "internalType": "struct IBridge.User",
              "name": "to",
              "type": "tuple"
            },
            {
              "internalType": "address",
              "name": "spender",
              "type": "address"
            },
            {
              "internalType": "address",
              "name": "token",
              "type": "address"
            },
            {
              "internalType": "uint256",
              "name": "value",
              "type": "uint256"
            },
            {
              "internalType": "uint256",
              "name": "deadline",
              "type": "uint256"
            },
            {
              "components": [
                {
                  "internalType": "uint8",
                  "name": "v",
                  "type": "uint8"
                },
                {
                  "internalType": "bytes32",
                  "name": "r",
                  "type": "bytes32"
                },
                {
                  "internalType": "bytes32",
                  "name": "s",
                  "type": "bytes32"
                }
              ],
              "internalType": "struct IBridge.Signature",
              "name": "approveTokenTransferSig",
              "type": "tuple"
            }
          ],
          "internalType": "struct IBridge.DepositData",
          "name": "_depositData",
          "type": "tuple"
        }
      ],
      "name": "deposit",
      "outputs": [],
      "stateMutability": "nonpayable",
      "type": "function"
    },
    {
      "inputs": [
        {
          "components": [
            {
              "components": [
                {
                  "internalType": "address",
                  "name": "_address",
                  "type": "address"
                },
                {
                  "internalType": "uint256",
                  "name": "chainId",
                  "type": "uint256"
                }
              ],
              "internalType": "struct IBridge.User",
              "name": "from",
              "type": "tuple"
            },
            {
              "components": [
                {
                  "internalType": "address",
                  "name": "_address",
                  "type": "address"
                },
                {
                  "internalType": "uint256",
                  "name": "chainId",
                  "type": "uint256"
                }
              ],
              "internalType": "struct IBridge.User",
              "name": "to",
              "type": "tuple"
            },
            {
              "internalType": "address",
              "name": "spender",
              "type": "address"
            },
            {
              "internalType": "address",
              "name": "token",
              "type": "address"
            },
            {
              "internalType": "uint256",
              "name": "value",
              "type": "uint256"
            },
            {
              "internalType": "uint256",
              "name": "deadline",
              "type": "uint256"
            },
            {
              "components": [
                {
                  "internalType": "uint8",
                  "name": "v",
                  "type": "uint8"
                },
                {
                  "internalType": "bytes32",
                  "name": "r",
                  "type": "bytes32"
                },
                {
                  "internalType": "bytes32",
                  "name": "s",
                  "type": "bytes32"
                }
              ],
              "internalType": "struct IBridge.Signature",
              "name": "approveTokenTransferSig",
              "type": "tuple"
            }
          ],
          "internalType": "struct IBridge.DepositData",
          "name": "_depositData",
          "type": "tuple"
        }
      ],
      "name": "depositWithPermit",
      "outputs": [],
      "stateMutability": "nonpayable",
      "type": "function"
    },
    {
      "inputs": [],
      "name": "name",
      "outputs": [
        {
          "internalType": "string",
          "name": "",
          "type": "string"
        }
      ],
      "stateMutability": "view",
      "type": "function"
    },
    {
      "inputs": [
        {
          "internalType": "address",
          "name": "_owner",
          "type": "address"
        }
      ],
      "name": "nonce",
      "outputs": [
        {
          "internalType": "uint256",
          "name": "",
          "type": "uint256"
        }
      ],
      "stateMutability": "view",
      "type": "function"
    },
    {
      "inputs": [
        {
          "internalType": "address",
          "name": "",
          "type": "address"
        }
      ],
      "name": "originalTokenByWrappedToken",
      "outputs": [
        {
          "internalType": "address",
          "name": "tokenAddress",
          "type": "address"
        },
        {
          "internalType": "uint256",
          "name": "originChainId",
          "type": "uint256"
        }
      ],
      "stateMutability": "view",
      "type": "function"
    },
    {
      "inputs": [],
      "name": "owner",
      "outputs": [
        {
          "internalType": "address",
          "name": "",
          "type": "address"
        }
      ],
      "stateMutability": "view",
      "type": "function"
    },
    {
      "inputs": [],
      "name": "pause",
      "outputs": [],
      "stateMutability": "nonpayable",
      "type": "function"
    },
    {
      "inputs": [],
      "name": "paused",
      "outputs": [
        {
          "internalType": "bool",
          "name": "",
          "type": "bool"
        }
      ],
      "stateMutability": "view",
      "type": "function"
    },
    {
      "inputs": [],
      "name": "renounceOwnership",
      "outputs": [],
      "stateMutability": "nonpayable",
      "type": "function"
    },
    {
      "inputs": [
        {
          "internalType": "address",
          "name": "newOwner",
          "type": "address"
        }
      ],
      "name": "transferOwnership",
      "outputs": [],
      "stateMutability": "nonpayable",
      "type": "function"
    },
    {
      "inputs": [],
      "name": "unpause",
      "outputs": [],
      "stateMutability": "nonpayable",
      "type": "function"
    },
    {
      "inputs": [
        {
          "internalType": "uint256",
          "name": "",
          "type": "uint256"
        },
        {
          "internalType": "address",
          "name": "",
          "type": "address"
        }
      ],
      "name": "wrappedTokenByOriginalTokenByChainId",
      "outputs": [
        {
          "internalType": "address",
          "name": "",
          "type": "address"
        }
      ],
      "stateMutability": "view",
      "type": "function"
    }
  ],
  "bytecode": "0x60806040523480156200001157600080fd5b50604051620090e0380380620090e0833981810160405281019062000037919062000509565b620000576200004b620001c760201b60201c565b620001cf60201b60201c565b60008060146101000a81548160ff0219169083151502179055506001808190555062000094677131eba7652c208a60c01b6200029360201b60201c565b620000b0672edfcffe2c1ce4b660c01b6200029360201b60201c565b620000cc67ab66e74f9c11acd660c01b6200029360201b60201c565b620000dc6200029660201b60201c565b620000f8670f6b9250d2fbf98d60c01b6200029360201b60201c565b8060029081620001099190620007a5565b506200012667357aa10b0f5c29e960c01b6200029360201b60201c565b7f8b73c3c69bb8fe3d512ecc4cf759cc79239f7b179b0ffacaa9a75d522b39400f81805190602001206040518060400160405280600181526020017f3100000000000000000000000000000000000000000000000000000000000000815250805190602001204630604051602001620001a4959493929190620008fd565b6040516020818303038152906040528051906020012060068190555050620009fa565b600033905090565b60008060009054906101000a900473ffffffffffffffffffffffffffffffffffffffff169050816000806101000a81548173ffffffffffffffffffffffffffffffffffffffff021916908373ffffffffffffffffffffffffffffffffffffffff1602179055508173ffffffffffffffffffffffffffffffffffffffff168173ffffffffffffffffffffffffffffffffffffffff167f8be0079c531659141344cd1fd0a4f28419497f9722a3daafe3b4186f6b6457e060405160405180910390a35050565b50565b620002a66200030b60201b60201c565b6001600060146101000a81548160ff0219169083151502179055507f62e78cea01bee320cd4e420270b5ea74000d11b0c9f74754ebdbfc544b05a258620002f2620001c760201b60201c565b6040516200030191906200095a565b60405180910390a1565b6200031b6200036060201b60201c565b156200035e576040517f08c379a00000000000000000000000000000000000000000000000000000000081526004016200035590620009d8565b60405180910390fd5b565b60008060149054906101000a900460ff16905090565b6000604051905090565b600080fd5b600080fd5b600080fd5b600080fd5b6000601f19601f8301169050919050565b7f4e487b7100000000000000000000000000000000000000000000000000000000600052604160045260246000fd5b620003df8262000394565b810181811067ffffffffffffffff82111715620004015762000400620003a5565b5b80604052505050565b60006200041662000376565b9050620004248282620003d4565b919050565b600067ffffffffffffffff821115620004475762000446620003a5565b5b620004528262000394565b9050602081019050919050565b60005b838110156200047f57808201518184015260208101905062000462565b60008484015250505050565b6000620004a26200049c8462000429565b6200040a565b905082815260208101848484011115620004c157620004c06200038f565b5b620004ce8482856200045f565b509392505050565b600082601f830112620004ee57620004ed6200038a565b5b8151620005008482602086016200048b565b91505092915050565b60006020828403121562000522576200052162000380565b5b600082015167ffffffffffffffff81111562000543576200054262000385565b5b6200055184828501620004d6565b91505092915050565b600081519050919050565b7f4e487b7100000000000000000000000000000000000000000000000000000000600052602260045260246000fd5b60006002820490506001821680620005ad57607f821691505b602082108103620005c357620005c262000565565b5b50919050565b60008190508160005260206000209050919050565b60006020601f8301049050919050565b600082821b905092915050565b6000600883026200062d7fffffffffffffffffffffffffffffffffffffffffffffffffffffffffffffffff82620005ee565b620006398683620005ee565b95508019841693508086168417925050509392505050565b6000819050919050565b6000819050919050565b600062000686620006806200067a8462000651565b6200065b565b62000651565b9050919050565b6000819050919050565b620006a28362000665565b620006ba620006b1826200068d565b848454620005fb565b825550505050565b600090565b620006d1620006c2565b620006de81848462000697565b505050565b5b818110156200070657620006fa600082620006c7565b600181019050620006e4565b5050565b601f82111562000755576200071f81620005c9565b6200072a84620005de565b810160208510156200073a578190505b620007526200074985620005de565b830182620006e3565b50505b505050565b600082821c905092915050565b60006200077a600019846008026200075a565b1980831691505092915050565b600062000795838362000767565b9150826002028217905092915050565b620007b0826200055a565b67ffffffffffffffff811115620007cc57620007cb620003a5565b5b620007d8825462000594565b620007e58282856200070a565b600060209050601f8311600181146200081d576000841562000808578287015190505b62000814858262000787565b86555062000884565b601f1984166200082d86620005c9565b60005b82811015620008575784890151825560018201915060208501945060208101905062000830565b8683101562000877578489015162000873601f89168262000767565b8355505b6001600288020188555050505b505050505050565b6000819050919050565b620008a1816200088c565b82525050565b620008b28162000651565b82525050565b600073ffffffffffffffffffffffffffffffffffffffff82169050919050565b6000620008e582620008b8565b9050919050565b620008f781620008d8565b82525050565b600060a08201905062000914600083018862000896565b62000923602083018762000896565b62000932604083018662000896565b620009416060830185620008a7565b620009506080830184620008ec565b9695505050505050565b6000602082019050620009716000830184620008ec565b92915050565b600082825260208201905092915050565b7f5061757361626c653a2070617573656400000000000000000000000000000000600082015250565b6000620009c060108362000977565b9150620009cd8262000988565b602082019050919050565b60006020820190508181036000830152620009f381620009b1565b9050919050565b6186d68062000a0a6000396000f3fe60806040523480156200001157600080fd5b50600436106200013c5760003560e01c80636b0509b111620000bd5780638456cb59116200007b5780638456cb59146200032a5780638da5cb5b1462000336578063923540f81462000358578063c0bd65d71462000378578063f2fde38b146200039a576200013c565b80636b0509b1146200028457806370ae92d214620002a6578063715018a614620002dc578063794ae4fe14620002e8578063821ae2111462000308576200013c565b80633f4ba83a116200010b5780633f4ba83a14620001c757806341439c7914620001d35780634233666814620002095780635c975abb14620002405780635f98ba021462000262576200013c565b806305f5120e146200014157806306fdde0314620001615780631add310814620001835780633644e51514620001a5575b600080fd5b6200015f60048036038101906200015991906200359b565b620003ba565b005b6200016b62000b41565b6040516200017a91906200369b565b60405180910390f35b6200018d62000c1d565b6040516200019c9190620036da565b60405180910390f35b620001af62000c44565b604051620001be9190620036da565b60405180910390f35b620001d162000c4a565b005b620001f16004803603810190620001eb919062003797565b62000cce565b604051620002009190620037ef565b60405180910390f35b6200022760048036038101906200022191906200380c565b62000d10565b604051620002379291906200384f565b60405180910390f35b6200024a62000d54565b60405162000259919062003899565b60405180910390f35b6200026c62000d6a565b6040516200027b9190620036da565b60405180910390f35b6200028e62000d91565b6040516200029d9190620036da565b60405180910390f35b620002c46004803603810190620002be91906200380c565b62000db8565b604051620002d39190620038b6565b60405180910390f35b620002e662000e43565b005b620003066004803603810190620003009190620038f6565b62000e5b565b005b6200031262001460565b604051620003219190620036da565b60405180910390f35b6200033462001487565b005b620003406200150b565b6040516200034f9190620037ef565b60405180910390f35b620003766004803603810190620003709190620038f6565b62001534565b005b6200038262001c81565b604051620003919190620036da565b60405180910390f35b620003b86004803603810190620003b291906200380c565b62001ca8565b005b620003d067abe11def96fefe6e60c01b62001d32565b620003da62001d35565b620003f067a7a9dd2bb8d293fd60c01b62001d32565b6200040667883d1652c0dc19de60c01b62001d32565b6200041062001d84565b62000426679965c90195dadd1e60c01b62001d32565b6200043c67f6a94bcb45afe3e460c01b62001d32565b8160000160000160208101906200045491906200380c565b8260400160000160208101906200046c91906200380c565b8360a00160000160208101906200048491906200380c565b84608001356200049f670e67057dbc5f8bce60c01b62001d32565b620004b5673de20dda9586fea460c01b62001d32565b620004cb67fe49351a720d1bb860c01b62001d32565b600073ffffffffffffffffffffffffffffffffffffffff168473ffffffffffffffffffffffffffffffffffffffff160362000548576200051667105e341a9ecbc27c60c01b62001d32565b6040517fe6c4247b00000000000000000000000000000000000000000000000000000000815260040160405180910390fd5b6200055e6733d3b754f7fdc67460c01b62001d32565b620005746780a6d972464c93f160c01b62001d32565b6200058a676f60080af291540e60c01b62001d32565b600073ffffffffffffffffffffffffffffffffffffffff168373ffffffffffffffffffffffffffffffffffffffff16036200060757620005d5670a7d10f6897f0b9060c01b62001d32565b6040517fe6c4247b00000000000000000000000000000000000000000000000000000000815260040160405180910390fd5b6200061d677a0e2409a90d4b0460c01b62001d32565b62000633670431c444fac7216860c01b62001d32565b62000649672e56b2455887a7b660c01b62001d32565b600073ffffffffffffffffffffffffffffffffffffffff168273ffffffffffffffffffffffffffffffffffffffff1603620006c6576200069467bca9ac6a006490c260c01b62001d32565b6040517fe6c4247b00000000000000000000000000000000000000000000000000000000815260040160405180910390fd5b620006dc67188623531daa72fc60c01b62001d32565b620006f26735fafd9000e4900c60c01b62001d32565b620007086737a0535a42b1530560c01b62001d32565b60008103620007595762000727673ae2d84ec97928a660c01b62001d32565b6040517f2160733900000000000000000000000000000000000000000000000000000000815260040160405180910390fd5b6200076f678cfc7b12f213112960c01b62001d32565b6200078567e6a1fe4698d31b1260c01b62001d32565b6200079b67140593255366ce5560c01b62001d32565b620007b167dc8b785d8638669e60c01b62001d32565b620007c767250e1ce5b11c486560c01b62001d32565b620007dd671693495ac1e5088760c01b62001d32565b60006006547f92f0142b6bb6777332444e4f035b692e77419f18a5ee2cd84f10c07c47e1474f60001b620008118962001dd6565b600560008b60000160000160208101906200082d91906200380c565b73ffffffffffffffffffffffffffffffffffffffff1673ffffffffffffffffffffffffffffffffffffffff16815260200190815260200160002060008154809291906200087a9062003958565b919050556040516020016200089293929190620039a5565b60405160208183030381529060405280519060200120604051602001620008bb92919062003a62565b604051602081830303815290604052805190602001209050620008e9675b9bf4de6b77ae2d60c01b62001d32565b620008ff6721a4758c703d69a460c01b62001d32565b600060018288600001602081019062000919919062003add565b89602001358a604001356040516000815260200160405260405162000942949392919062003b20565b6020604051602081039080840390855afa15801562000965573d6000803e3d6000fd5b5050506020604051035190506200098767dff2e736670a1ced60c01b62001d32565b6200099d67669d1763595fde5a60c01b62001d32565b600073ffffffffffffffffffffffffffffffffffffffff168173ffffffffffffffffffffffffffffffffffffffff160362000a1957620009e766bdfd4a5a865c1e60c01b62001d32565b6040517fe6c4247b00000000000000000000000000000000000000000000000000000000815260040160405180910390fd5b62000a2f67a3f66de948e1c22460c01b62001d32565b62000a4567f650a2a684612bff60c01b62001d32565b62000a5b679bf1b258db4138c060c01b62001d32565b62000a656200150b565b73ffffffffffffffffffffffffffffffffffffffff168173ffffffffffffffffffffffffffffffffffffffff161462000ae05762000aae6719e484ec10a6abb760c01b62001d32565b6040517f828d7ab300000000000000000000000000000000000000000000000000000000815260040160405180910390fd5b62000af667aa964e41b42ee90c60c01b62001d32565b62000b0c6704e117d245188add60c01b62001d32565b62000b22677931b74e249f821260c01b62001d32565b62000b2d8862001f2c565b50505050505062000b3d62002817565b5050565b606062000b596759c7ccb8b139d03e60c01b62001d32565b62000b6f67dccb32e0246ebed460c01b62001d32565b62000b8567c3233aac2369cb9d60c01b62001d32565b6002805462000b949062003b9c565b80601f016020809104026020016040519081016040528092919081815260200182805462000bc29062003b9c565b801562000c135780601f1062000be75761010080835404028352916020019162000c13565b820191906000526020600020905b81548152906001019060200180831162000bf557829003601f168201915b5050505050905090565b7f265b4089f698d180c71c21e5c5a755d17cec5ca245cab57cf1f26696020008b660001b81565b60065481565b62000c60678648705b17d1d19960c01b62001d32565b62000c6a62002820565b62000c8067f05a8e4446d3de6960c01b62001d32565b62000c966723786c3a122bb76e60c01b62001d32565b62000cac6715be8a17c9d1b53960c01b62001d32565b62000cc2679f3d7626674d542b60c01b62001d32565b62000ccc620028a5565b565b60036020528160005260406000206020528060005260406000206000915091509054906101000a900473ffffffffffffffffffffffffffffffffffffffff1681565b60046020528060005260406000206000915090508060000160009054906101000a900473ffffffffffffffffffffffffffffffffffffffff16908060010154905082565b60008060149054906101000a900460ff16905090565b7fa24126880bed04190203d04ec4d6365915e96e5977ee3b881ec3cfafa2b71c4960001b81565b7f92f0142b6bb6777332444e4f035b692e77419f18a5ee2cd84f10c07c47e1474f60001b81565b600062000dd067fdb3033332884af060c01b62001d32565b62000de667d2f7e81941c2c16f60c01b62001d32565b62000dfc677664d1e0e40cae5b60c01b62001d32565b600560008373ffffffffffffffffffffffffffffffffffffffff1673ffffffffffffffffffffffffffffffffffffffff168152602001908152602001600020549050919050565b62000e4d62002820565b62000e5960006200290d565b565b62000e7167ba880535f3ed00dc60c01b62001d32565b62000e7b62001d35565b62000e916767a7fe88107578cd60c01b62001d32565b62000ea767ad9935ee6795f22c60c01b62001d32565b62000eb162001d84565b62000ec7674368266e4c80c80e60c01b62001d32565b62000edd6740af01d82d0c05ab60c01b62001d32565b80600001600001602081019062000ef591906200380c565b81604001600001602081019062000f0d91906200380c565b8260a001602081019062000f2291906200380c565b8360c0013562000f3d670e67057dbc5f8bce60c01b62001d32565b62000f53673de20dda9586fea460c01b62001d32565b62000f6967fe49351a720d1bb860c01b62001d32565b600073ffffffffffffffffffffffffffffffffffffffff168473ffffffffffffffffffffffffffffffffffffffff160362000fe65762000fb467105e341a9ecbc27c60c01b62001d32565b6040517fe6c4247b00000000000000000000000000000000000000000000000000000000815260040160405180910390fd5b62000ffc6733d3b754f7fdc67460c01b62001d32565b620010126780a6d972464c93f160c01b62001d32565b62001028676f60080af291540e60c01b62001d32565b600073ffffffffffffffffffffffffffffffffffffffff168373ffffffffffffffffffffffffffffffffffffffff1603620010a55762001073670a7d10f6897f0b9060c01b62001d32565b6040517fe6c4247b00000000000000000000000000000000000000000000000000000000815260040160405180910390fd5b620010bb677a0e2409a90d4b0460c01b62001d32565b620010d1670431c444fac7216860c01b62001d32565b620010e7672e56b2455887a7b660c01b62001d32565b600073ffffffffffffffffffffffffffffffffffffffff168273ffffffffffffffffffffffffffffffffffffffff160362001164576200113267bca9ac6a006490c260c01b62001d32565b6040517fe6c4247b00000000000000000000000000000000000000000000000000000000815260040160405180910390fd5b6200117a67188623531daa72fc60c01b62001d32565b620011906735fafd9000e4900c60c01b62001d32565b620011a66737a0535a42b1530560c01b62001d32565b60008103620011f757620011c5673ae2d84ec97928a660c01b62001d32565b6040517f2160733900000000000000000000000000000000000000000000000000000000815260040160405180910390fd5b6200120d678cfc7b12f213112960c01b62001d32565b6200122367e6a1fe4698d31b1260c01b62001d32565b62001239674073f80142570a5160c01b62001d32565b6200124f67bfb29987d3340cc760c01b62001d32565b8460800160208101906200126491906200380c565b856040016020013562001282674f65c01136649abd60c01b62001d32565b620012986784c5b90e6b7789b760c01b62001d32565b620012ae673905ace13992daac60c01b62001d32565b600073ffffffffffffffffffffffffffffffffffffffff168273ffffffffffffffffffffffffffffffffffffffff16036200132b57620012f9676aa54c687dc4de7460c01b62001d32565b6040517fe6c4247b00000000000000000000000000000000000000000000000000000000815260040160405180910390fd5b62001341676bd4abb2e284a79360c01b62001d32565b6200135767fac16f44e412297160c01b62001d32565b6200136d673d1d61e7c08548b360c01b62001d32565b60008103620013be576200138c67890444e4f6e777d860c01b62001d32565b6040517f7a47c9a200000000000000000000000000000000000000000000000000000000815260040160405180910390fd5b620013d46734d633d5f4938b2860c01b62001d32565b620013ea6766fd916af818990060c01b62001d32565b62001400670fdd86ad1df553a360c01b62001d32565b6200141667caeccc209e10d9ad60c01b62001d32565b6200142c67bbf5c87d2e4618eb60c01b62001d32565b620014426749cdcd1088dcebdc60c01b62001d32565b6200144d87620029d1565b5050505050506200145d62002817565b50565b7fe896384c688095ca54bad7d2e7b660c741bd270344665ff5a1e334e0e0c9f2df60001b81565b6200149d674a55ba82dde3725060c01b62001d32565b620014a762002820565b620014bd6718eb2ff94f3251aa60c01b62001d32565b620014d367c5abfe0805665f1c60c01b62001d32565b620014e96790303048e38ace9460c01b62001d32565b620014ff6723a7b8d1883aa34f60c01b62001d32565b6200150962002f48565b565b60008060009054906101000a900473ffffffffffffffffffffffffffffffffffffffff16905090565b6200154a67b7ba3afa088a378060c01b62001d32565b6200155462001d35565b6200156a6783285e0af086942260c01b62001d32565b6200158067cc6aab374efeae6860c01b62001d32565b6200158a62001d84565b620015a067409d500953e6f51360c01b62001d32565b620015b6673b9b1b23a84ccf5460c01b62001d32565b806000016000016020810190620015ce91906200380c565b816040016000016020810190620015e691906200380c565b8260a0016020810190620015fb91906200380c565b8360c0013562001616670e67057dbc5f8bce60c01b62001d32565b6200162c673de20dda9586fea460c01b62001d32565b6200164267fe49351a720d1bb860c01b62001d32565b600073ffffffffffffffffffffffffffffffffffffffff168473ffffffffffffffffffffffffffffffffffffffff1603620016bf576200168d67105e341a9ecbc27c60c01b62001d32565b6040517fe6c4247b00000000000000000000000000000000000000000000000000000000815260040160405180910390fd5b620016d56733d3b754f7fdc67460c01b62001d32565b620016eb6780a6d972464c93f160c01b62001d32565b62001701676f60080af291540e60c01b62001d32565b600073ffffffffffffffffffffffffffffffffffffffff168373ffffffffffffffffffffffffffffffffffffffff16036200177e576200174c670a7d10f6897f0b9060c01b62001d32565b6040517fe6c4247b00000000000000000000000000000000000000000000000000000000815260040160405180910390fd5b62001794677a0e2409a90d4b0460c01b62001d32565b620017aa670431c444fac7216860c01b62001d32565b620017c0672e56b2455887a7b660c01b62001d32565b600073ffffffffffffffffffffffffffffffffffffffff168273ffffffffffffffffffffffffffffffffffffffff16036200183d576200180b67bca9ac6a006490c260c01b62001d32565b6040517fe6c4247b00000000000000000000000000000000000000000000000000000000815260040160405180910390fd5b6200185367188623531daa72fc60c01b62001d32565b620018696735fafd9000e4900c60c01b62001d32565b6200187f6737a0535a42b1530560c01b62001d32565b60008103620018d0576200189e673ae2d84ec97928a660c01b62001d32565b6040517f2160733900000000000000000000000000000000000000000000000000000000815260040160405180910390fd5b620018e6678cfc7b12f213112960c01b62001d32565b620018fc67e6a1fe4698d31b1260c01b62001d32565b62001912674cdea0c7d603aa8660c01b62001d32565b6200192867fa49d3fbe8823c8660c01b62001d32565b8460800160208101906200193d91906200380c565b85604001602001356200195b674f65c01136649abd60c01b62001d32565b620019716784c5b90e6b7789b760c01b62001d32565b62001987673905ace13992daac60c01b62001d32565b600073ffffffffffffffffffffffffffffffffffffffff168273ffffffffffffffffffffffffffffffffffffffff160362001a0457620019d2676aa54c687dc4de7460c01b62001d32565b6040517fe6c4247b00000000000000000000000000000000000000000000000000000000815260040160405180910390fd5b62001a1a676bd4abb2e284a79360c01b62001d32565b62001a3067fac16f44e412297160c01b62001d32565b62001a46673d1d61e7c08548b360c01b62001d32565b6000810362001a975762001a6567890444e4f6e777d860c01b62001d32565b6040517f7a47c9a200000000000000000000000000000000000000000000000000000000815260040160405180910390fd5b62001aad6734d633d5f4938b2860c01b62001d32565b62001ac36766fd916af818990060c01b62001d32565b62001ad967a48338080e7872de60c01b62001d32565b62001aef67474eb9903bedfc7260c01b62001d32565b62001b05674ba5840b110c0e5b60c01b62001d32565b62001b1b672040c3b8de927f9e60c01b62001d32565b60008760a001602081019062001b3291906200380c565b905062001b4a672d48756133fe2d4f60c01b62001d32565b62001b6067dec297ff51e86c0860c01b62001d32565b8073ffffffffffffffffffffffffffffffffffffffff1663d505accf89600001600001602081019062001b9491906200380c565b8a608001602081019062001ba991906200380c565b8b60c001358c60e001358d61010001600001602081019062001bcc919062003add565b8e61010001602001358f61010001604001356040518863ffffffff1660e01b815260040162001c02979695949392919062003bd1565b600060405180830381600087803b15801562001c1d57600080fd5b505af115801562001c32573d6000803e3d6000fd5b5050505062001c4c67d6356298df7f0a2860c01b62001d32565b62001c62671293db5cdc44ba5560c01b62001d32565b62001c6d88620029d1565b5050505050505062001c7e62002817565b50565b7fcea59b5eccb60256d918b7a2e778f6161148c37e6dada57c32e20db10c50b63160001b81565b62001cb262002820565b600073ffffffffffffffffffffffffffffffffffffffff168173ffffffffffffffffffffffffffffffffffffffff160362001d24576040517f08c379a000000000000000000000000000000000000000000000000000000000815260040162001d1b9062003cc4565b60405180910390fd5b62001d2f816200290d565b50565b50565b62001d3f62000d54565b1562001d82576040517f08c379a000000000000000000000000000000000000000000000000000000000815260040162001d799062003d36565b60405180910390fd5b565b60026001540362001dcc576040517f08c379a000000000000000000000000000000000000000000000000000000000815260040162001dc39062003da8565b60405180910390fd5b6002600181905550565b600062001dee675f3008116690111260c01b62001d32565b62001e0467bf3ab56b9da1749760c01b62001d32565b62001e1a671bf579f2005db75660c01b62001d32565b7fe896384c688095ca54bad7d2e7b660c741bd270344665ff5a1e334e0e0c9f2df60001b62001e4c8360000162002fb1565b62001e5a8460400162002fb1565b846080013562001e6d8660a00162003064565b8660e001602081019062001e8291906200380c565b8761010001602081019062001e9891906200380c565b8880610120019062001eab919062003dd9565b60405162001ebb92919062003e88565b60405180910390208980610140019062001ed6919062003dd9565b60405162001ee692919062003e88565b60405180910390208a610160013560405160200162001f0f9a9998979695949392919062003ea3565b604051602081830303815290604052805190602001209050919050565b62001f4267831bdf7cc73ffb3260c01b62001d32565b62001f5867b45f35c7b49b9a3d60c01b62001d32565b62001f6e67ba1a84e171c748f360c01b62001d32565b600081600001602001350362001fc65762001f9467b15be8c7a749399760c01b62001d32565b6040517f7a47c9a200000000000000000000000000000000000000000000000000000000815260040160405180910390fd5b62001fdc677cd6d1d5ec316a8760c01b62001d32565b62001ff2677dc4a2c66045b92e60c01b62001d32565b6200200867954bfc26e6d911cf60c01b62001d32565b468160400160200135146200205f576200202d679ae7dfc15ec6563260c01b62001d32565b6040517fff053f9f00000000000000000000000000000000000000000000000000000000815260040160405180910390fd5b6200207567fe2b6e0044e4c25760c01b62001d32565b6200208b673157deced9c3c99360c01b62001d32565b620020a167974d1af2a08135ff60c01b62001d32565b600073ffffffffffffffffffffffffffffffffffffffff1681610100016020810190620020cf91906200380c565b73ffffffffffffffffffffffffffffffffffffffff1603620026205762002101672df9cf0468b267b160c01b62001d32565b62002117671de52f27ad5ceb6660c01b62001d32565b6200212d67367452ac4582aed360c01b62001d32565b600073ffffffffffffffffffffffffffffffffffffffff16600360008360a00160200135815260200190815260200160002060008360a00160000160208101906200217991906200380c565b73ffffffffffffffffffffffffffffffffffffffff1673ffffffffffffffffffffffffffffffffffffffff16815260200190815260200160002060009054906101000a900473ffffffffffffffffffffffffffffffffffffffff1673ffffffffffffffffffffffffffffffffffffffff1603620024535762002206672927c0d8d921e4c360c01b62001d32565b6200221c6786c5ea83e33cbc9560c01b62001d32565b620022326793135203d9a5df3c60c01b62001d32565b60008180610120019062002247919062003dd9565b838061014001906200225a919062003dd9565b604051620022689062003539565b62002277949392919062003f86565b604051809103906000f08015801562002294573d6000803e3d6000fd5b509050620022ad6790e4dd032f8f2f9c60c01b62001d32565b80600360008460a00160200135815260200190815260200160002060008460a0016000016020810190620022e291906200380c565b73ffffffffffffffffffffffffffffffffffffffff1673ffffffffffffffffffffffffffffffffffffffff16815260200190815260200160002060006101000a81548173ffffffffffffffffffffffffffffffffffffffff021916908373ffffffffffffffffffffffffffffffffffffffff1602179055506200237067bf1f1c7e98fdc5ef60c01b62001d32565b60405180604001604052808360a00160000160208101906200239391906200380c565b73ffffffffffffffffffffffffffffffffffffffff1681526020018360a00160200135815250600460008373ffffffffffffffffffffffffffffffffffffffff1673ffffffffffffffffffffffffffffffffffffffff16815260200190815260200160002060008201518160000160006101000a81548173ffffffffffffffffffffffffffffffffffffffff021916908373ffffffffffffffffffffffffffffffffffffffff16021790555060208201518160010155905050506200246a565b62002469679f82ec94149ad08560c01b62001d32565b5b6200248067b2c924c6a9a9d4a660c01b62001d32565b6200249667aad4eb61d85d23b360c01b62001d32565b6000600360008360a00160200135815260200190815260200160002060008360a0016000016020810190620024cc91906200380c565b73ffffffffffffffffffffffffffffffffffffffff1673ffffffffffffffffffffffffffffffffffffffff16815260200190815260200160002060009054906101000a900473ffffffffffffffffffffffffffffffffffffffff1690506200253f67663514616e7c788760c01b62001d32565b6200255567e9d9a513171fab7a60c01b62001d32565b8073ffffffffffffffffffffffffffffffffffffffff166340c10f198360400160000160208101906200258991906200380c565b84608001356040518363ffffffff1660e01b8152600401620025ad9291906200384f565b600060405180830381600087803b158015620025c857600080fd5b505af1158015620025dd573d6000803e3d6000fd5b50505050620025f7674fa6257fb0d1353b60c01b62001d32565b6200260d676ba0c999bbbcb33460c01b62001d32565b62002619828262003117565b5062002814565b62002636671fc4966737d9792260c01b62001d32565b6200264c67fb7d409d5796b22360c01b62001d32565b620026626715de528819c225d760c01b62001d32565b6000816101000160208101906200267a91906200380c565b90506200269267d5cb3c159fb1057460c01b62001d32565b620026a8670890b79e7456d33760c01b62001d32565b60008173ffffffffffffffffffffffffffffffffffffffff1663a9059cbb846040016000016020810190620026de91906200380c565b85608001356040518363ffffffff1660e01b8152600401620027029291906200384f565b6020604051808303816000875af115801562002722573d6000803e3d6000fd5b505050506040513d601f19601f8201168201806040525081019062002748919062003ff6565b90506200276067992d20ea37aad5e060c01b62001d32565b62002776672bc96949209a976e60c01b62001d32565b80620027c4576200279267a2ea137c7b8683e260c01b62001d32565b6040517f34741f4a00000000000000000000000000000000000000000000000000000000815260040160405180910390fd5b620027da67a997a9bb7605dbfb60c01b62001d32565b620027f0679fe7013fff8656ab60c01b62001d32565b62002806676efbd127ac686ef060c01b62001d32565b620028118362003201565b50505b50565b60018081905550565b6200282a620032f4565b73ffffffffffffffffffffffffffffffffffffffff166200284a6200150b565b73ffffffffffffffffffffffffffffffffffffffff1614620028a3576040517f08c379a00000000000000000000000000000000000000000000000000000000081526004016200289a9062004078565b60405180910390fd5b565b620028af620032fc565b60008060146101000a81548160ff0219169083151502179055507f5db9ee0a495bf2e6ff9c91a7834c1ba4fdd244a5e8aa4e537bd38aeae4b073aa620028f4620032f4565b604051620029039190620037ef565b60405180910390a1565b60008060009054906101000a900473ffffffffffffffffffffffffffffffffffffffff169050816000806101000a81548173ffffffffffffffffffffffffffffffffffffffff021916908373ffffffffffffffffffffffffffffffffffffffff1602179055508173ffffffffffffffffffffffffffffffffffffffff168173ffffffffffffffffffffffffffffffffffffffff167f8be0079c531659141344cd1fd0a4f28419497f9722a3daafe3b4186f6b6457e060405160405180910390a35050565b620029e767349961ece7de23a160c01b62001d32565b620029fd67b706987c2309e6b660c01b62001d32565b62002a136767b685cc5460fa3460c01b62001d32565b80600001600001602081019062002a2b91906200380c565b73ffffffffffffffffffffffffffffffffffffffff163373ffffffffffffffffffffffffffffffffffffffff161462002aa65762002a746750296c4e6e70c46d60c01b62001d32565b6040517ffbc132d300000000000000000000000000000000000000000000000000000000815260040160405180910390fd5b62002abc6780edde8a0a24915060c01b62001d32565b62002ad26718a0a4f5dbb0b41b60c01b62001d32565b62002ae867c197303a956ca6a260c01b62001d32565b60008160a001602081019062002aff91906200380c565b905062002b17675d5fee4b2b9d285560c01b62001d32565b62002b2d67dbb8fcced55e263b60c01b62001d32565b60008173ffffffffffffffffffffffffffffffffffffffff166323b872dd3385608001602081019062002b6191906200380c565b8660c001356040518463ffffffff1660e01b815260040162002b86939291906200409a565b6020604051808303816000875af115801562002ba6573d6000803e3d6000fd5b505050506040513d601f19601f8201168201806040525081019062002bcc919062003ff6565b905062002be467fba49c16db706afb60c01b62001d32565b62002bfa67e3947f22c4469cb360c01b62001d32565b8062002c485762002c1667dc692cf88f158e5460c01b62001d32565b6040517f038ceca200000000000000000000000000000000000000000000000000000000815260040160405180910390fd5b62002c5e67ad05c3d272bf814f60c01b62001d32565b62002c7467ad30ee4ab4e25fa760c01b62001d32565b62002c8a673beaa1c038ae1bbe60c01b62001d32565b6000600460008560a001602081019062002ca591906200380c565b73ffffffffffffffffffffffffffffffffffffffff1673ffffffffffffffffffffffffffffffffffffffff1681526020019081526020016000206040518060400160405290816000820160009054906101000a900473ffffffffffffffffffffffffffffffffffffffff1673ffffffffffffffffffffffffffffffffffffffff1673ffffffffffffffffffffffffffffffffffffffff168152602001600182015481525050905062002d6267bec384ebbae43d2e60c01b62001d32565b62002d78679d67052e7f2c0bee60c01b62001d32565b60008073ffffffffffffffffffffffffffffffffffffffff16826000015173ffffffffffffffffffffffffffffffffffffffff161415905062002dc66726f7b8378257fdd260c01b62001d32565b62002ddc67233c856f7be664e260c01b62001d32565b801562002ef35762002df9671dd03c90c776462660c01b62001d32565b62002e0f6766bb60f5959f816760c01b62001d32565b62002e25677ea78521d65cafe260c01b62001d32565b8460a001602081019062002e3a91906200380c565b73ffffffffffffffffffffffffffffffffffffffff166342966c688660c001356040518263ffffffff1660e01b815260040162002e789190620038b6565b600060405180830381600087803b15801562002e9357600080fd5b505af115801562002ea8573d6000803e3d6000fd5b5050505062002ec267efdd449df158eeeb60c01b62001d32565b62002ed8673c7dcb908635f94e60c01b62001d32565b62002eed85836000015184602001516200334a565b62002f41565b62002f096771974ff46d69ce6860c01b62001d32565b62002f1f6763df2632a120f06c60c01b62001d32565b62002f3567abb3cec7ca0b87b960c01b62001d32565b62002f408562003425565b5b5050505050565b62002f5262001d35565b6001600060146101000a81548160ff0219169083151502179055507f62e78cea01bee320cd4e420270b5ea74000d11b0c9f74754ebdbfc544b05a25862002f98620032f4565b60405162002fa79190620037ef565b60405180910390a1565b600062002fc967c0f696cb4807b82d60c01b62001d32565b62002fdf67dfef8acc0fcf49b460c01b62001d32565b62002ff5676e6eea982f028f7b60c01b62001d32565b7f265b4089f698d180c71c21e5c5a755d17cec5ca245cab57cf1f26696020008b660001b8260000160208101906200302e91906200380c565b83602001356040516020016200304793929190620040d7565b604051602081830303815290604052805190602001209050919050565b60006200307c67f20c9d031b3a682e60c01b62001d32565b620030926736a95b57ae3db2c260c01b62001d32565b620030a8672d88a2e7c29f6b3e60c01b62001d32565b7fa24126880bed04190203d04ec4d6365915e96e5977ee3b881ec3cfafa2b71c4960001b826000016020810190620030e191906200380c565b8360200135604051602001620030fa93929190620040d7565b604051602081830303815290604052805190602001209050919050565b6200312d67156c1f170722445a60c01b62001d32565b62003143673047dfb3c71a1c3060c01b62001d32565b62003159670c410bdcaa6dc1d960c01b62001d32565b7e3b247d68851bd7566dc2e4fcedb803c9f42864de3ac3ca3a4480c10ddd631d8183608001358460000160000160208101906200319791906200380c565b856040016000016020810190620031af91906200380c565b866000016020013587604001602001358860a0016000016020810190620031d791906200380c565b8960a00160200135604051620031f598979695949392919062004114565b60405180910390a15050565b62003217679eda4b65f5d08bad60c01b62001d32565b6200322d67b33b8e557c3f587060c01b62001d32565b6200324367fb7384fab76e4d4760c01b62001d32565b7f14ebc53bef98a089143aaebfa7feb42300412fb8eacb318e3e6333f521000e8e816101000160208101906200327a91906200380c565b82608001358360000160000160208101906200329791906200380c565b846040016000016020810190620032af91906200380c565b856000016020013586604001602001358760e0016020810190620032d491906200380c565b604051620032e99796959493929190620041a2565b60405180910390a150565b600033905090565b6200330662000d54565b62003348576040517f08c379a00000000000000000000000000000000000000000000000000000000081526004016200333f906200426f565b60405180910390fd5b565b6200336067cc8eae2d3df763e960c01b62001d32565b6200337667b318e7f0568fb65160c01b62001d32565b6200338c67f7c0fc10be6a905560c01b62001d32565b7f1007c5a30d556aa881634fee3f390d56a3c45cab419a08c67c07432d06f8bcdb8360a0016020810190620033c291906200380c565b8460c00135856000016000016020810190620033df91906200380c565b866040016000016020810190620033f791906200380c565b46886040016020013588886040516200341898979695949392919062004114565b60405180910390a1505050565b6200343b67ecd28ca944eea3e260c01b62001d32565b6200345167841b84e6330c01c560c01b62001d32565b6200346767ee9b3d5ea096ea8260c01b62001d32565b8060400160000160208101906200347f91906200380c565b73ffffffffffffffffffffffffffffffffffffffff16816000016000016020810190620034ad91906200380c565b73ffffffffffffffffffffffffffffffffffffffff168260a0016020810190620034d891906200380c565b73ffffffffffffffffffffffffffffffffffffffff167f6d31f0c03e4fdb705b56d996d8af8b7eac9e00feb148fdf166ab3f31b48ead148460c001354686604001602001356040516200352e9392919062004291565b60405180910390a450565b6143d280620042cf83390190565b600080fd5b600080fd5b600080fd5b6000610180828403121562003570576200356f62003551565b5b81905092915050565b60006060828403121562003592576200359162003551565b5b81905092915050565b60008060808385031215620035b557620035b462003547565b5b600083013567ffffffffffffffff811115620035d657620035d56200354c565b5b620035e48582860162003556565b9250506020620035f78582860162003579565b9150509250929050565b600081519050919050565b600082825260208201905092915050565b60005b838110156200363d57808201518184015260208101905062003620565b60008484015250505050565b6000601f19601f8301169050919050565b6000620036678262003601565b6200367381856200360c565b9350620036858185602086016200361d565b620036908162003649565b840191505092915050565b60006020820190508181036000830152620036b781846200365a565b905092915050565b6000819050919050565b620036d481620036bf565b82525050565b6000602082019050620036f16000830184620036c9565b92915050565b6000819050919050565b6200370c81620036f7565b81146200371857600080fd5b50565b6000813590506200372c8162003701565b92915050565b600073ffffffffffffffffffffffffffffffffffffffff82169050919050565b60006200375f8262003732565b9050919050565b620037718162003752565b81146200377d57600080fd5b50565b600081359050620037918162003766565b92915050565b60008060408385031215620037b157620037b062003547565b5b6000620037c1858286016200371b565b9250506020620037d48582860162003780565b9150509250929050565b620037e98162003752565b82525050565b6000602082019050620038066000830184620037de565b92915050565b60006020828403121562003825576200382462003547565b5b6000620038358482850162003780565b91505092915050565b6200384981620036f7565b82525050565b6000604082019050620038666000830185620037de565b6200387560208301846200383e565b9392505050565b60008115159050919050565b62003893816200387c565b82525050565b6000602082019050620038b0600083018462003888565b92915050565b6000602082019050620038cd60008301846200383e565b92915050565b60006101608284031215620038ed57620038ec62003551565b5b81905092915050565b6000610160828403121562003910576200390f62003547565b5b60006200392084828501620038d3565b91505092915050565b7f4e487b7100000000000000000000000000000000000000000000000000000000600052601160045260246000fd5b60006200396582620036f7565b91507fffffffffffffffffffffffffffffffffffffffffffffffffffffffffffffffff82036200399a576200399962003929565b5b600182019050919050565b6000606082019050620039bc6000830186620036c9565b620039cb6020830185620036c9565b620039da60408301846200383e565b949350505050565b600081905092915050565b7f1901000000000000000000000000000000000000000000000000000000000000600082015250565b600062003a25600283620039e2565b915062003a3282620039ed565b600282019050919050565b6000819050919050565b62003a5c62003a5682620036bf565b62003a3d565b82525050565b600062003a6f8262003a16565b915062003a7d828562003a47565b60208201915062003a8f828462003a47565b6020820191508190509392505050565b600060ff82169050919050565b62003ab78162003a9f565b811462003ac357600080fd5b50565b60008135905062003ad78162003aac565b92915050565b60006020828403121562003af65762003af562003547565b5b600062003b068482850162003ac6565b91505092915050565b62003b1a8162003a9f565b82525050565b600060808201905062003b376000830187620036c9565b62003b46602083018662003b0f565b62003b556040830185620036c9565b62003b646060830184620036c9565b95945050505050565b7f4e487b7100000000000000000000000000000000000000000000000000000000600052602260045260246000fd5b6000600282049050600182168062003bb557607f821691505b60208210810362003bcb5762003bca62003b6d565b5b50919050565b600060e08201905062003be8600083018a620037de565b62003bf76020830189620037de565b62003c0660408301886200383e565b62003c1560608301876200383e565b62003c24608083018662003b0f565b62003c3360a0830185620036c9565b62003c4260c0830184620036c9565b98975050505050505050565b7f4f776e61626c653a206e6577206f776e657220697320746865207a65726f206160008201527f6464726573730000000000000000000000000000000000000000000000000000602082015250565b600062003cac6026836200360c565b915062003cb98262003c4e565b604082019050919050565b6000602082019050818103600083015262003cdf8162003c9d565b9050919050565b7f5061757361626c653a2070617573656400000000000000000000000000000000600082015250565b600062003d1e6010836200360c565b915062003d2b8262003ce6565b602082019050919050565b6000602082019050818103600083015262003d518162003d0f565b9050919050565b7f5265656e7472616e637947756172643a207265656e7472616e742063616c6c00600082015250565b600062003d90601f836200360c565b915062003d9d8262003d58565b602082019050919050565b6000602082019050818103600083015262003dc38162003d81565b9050919050565b600080fd5b600080fd5b600080fd5b6000808335600160200384360303811262003df95762003df862003dca565b5b80840192508235915067ffffffffffffffff82111562003e1e5762003e1d62003dcf565b5b60208301925060018202360383131562003e3d5762003e3c62003dd4565b5b509250929050565b600081905092915050565b82818337600083830152505050565b600062003e6d838562003e45565b935062003e7c83858462003e50565b82840190509392505050565b600062003e9782848662003e5f565b91508190509392505050565b60006101408201905062003ebb600083018d620036c9565b62003eca602083018c620036c9565b62003ed9604083018b620036c9565b62003ee8606083018a6200383e565b62003ef76080830189620036c9565b62003f0660a0830188620037de565b62003f1560c0830187620037de565b62003f2460e0830186620036c9565b62003f34610100830185620036c9565b62003f446101208301846200383e565b9b9a5050505050505050505050565b600062003f6183856200360c565b935062003f7083858462003e50565b62003f7b8362003649565b840190509392505050565b6000604082019050818103600083015262003fa381868862003f53565b9050818103602083015262003fba81848662003f53565b905095945050505050565b62003fd0816200387c565b811462003fdc57600080fd5b50565b60008151905062003ff08162003fc5565b92915050565b6000602082840312156200400f576200400e62003547565b5b60006200401f8482850162003fdf565b91505092915050565b7f4f776e61626c653a2063616c6c6572206973206e6f7420746865206f776e6572600082015250565b6000620040606020836200360c565b91506200406d8262004028565b602082019050919050565b60006020820190508181036000830152620040938162004051565b9050919050565b6000606082019050620040b16000830186620037de565b620040c06020830185620037de565b620040cf60408301846200383e565b949350505050565b6000606082019050620040ee6000830186620036c9565b620040fd6020830185620037de565b6200410c60408301846200383e565b949350505050565b6000610100820190506200412c600083018b620037de565b6200413b602083018a6200383e565b6200414a6040830189620037de565b620041596060830188620037de565b6200416860808301876200383e565b6200417760a08301866200383e565b6200418660c0830185620037de565b6200419560e08301846200383e565b9998505050505050505050565b600060e082019050620041b9600083018a620037de565b620041c860208301896200383e565b620041d76040830188620037de565b620041e66060830187620037de565b620041f560808301866200383e565b6200420460a08301856200383e565b6200421360c0830184620037de565b98975050505050505050565b7f5061757361626c653a206e6f7420706175736564000000000000000000000000600082015250565b6000620042576014836200360c565b915062004264826200421f565b602082019050919050565b600060208201905081810360008301526200428a8162004248565b9050919050565b6000606082019050620042a860008301866200383e565b620042b760208301856200383e565b620042c660408301846200383e565b94935050505056fe60806040523480156200001157600080fd5b50604051620043d2380380620043d283398181016040528101906200003791906200062a565b8181818181600590816200004c9190620008fa565b5080600690816200005e9190620008fa565b5050506000600760006101000a81548160ff021916908315150217905550620000a06000801b62000094620001fe60201b60201c565b6200020660201b60201c565b620000e17f9f2df0fed2c77648de5860a4cc508cd0818c85b8b8a1ab4ceeef8d981c8956a6620000d5620001fe60201b60201c565b6200020660201b60201c565b620001227f65d7a28e3265b37a6474929f336521b332c1681b933f6cb9f3376673440d862a62000116620001fe60201b60201c565b6200020660201b60201c565b50506200014067cdb2753071cf914b60c01b6200021c60201b60201c565b6200015c67e9958df70116be8160c01b6200021c60201b60201c565b7f8b73c3c69bb8fe3d512ecc4cf759cc79239f7b179b0ffacaa9a75d522b39400f82805190602001206040518060400160405280600181526020017f3100000000000000000000000000000000000000000000000000000000000000815250805190602001204630604051602001620001da95949392919062000a52565b60405160208183030381529060405280519060200120600981905550505062000aaf565b600033905090565b6200021882826200021f60201b60201c565b5050565b50565b6200023682826200026760201b620011c01760201c565b6200026281600160008581526020019081526020016000206200035860201b620012a01790919060201c565b505050565b6200027982826200039060201b60201c565b6200035457600160008084815260200190815260200160002060000160008373ffffffffffffffffffffffffffffffffffffffff1673ffffffffffffffffffffffffffffffffffffffff16815260200190815260200160002060006101000a81548160ff021916908315150217905550620002f9620001fe60201b60201c565b73ffffffffffffffffffffffffffffffffffffffff168173ffffffffffffffffffffffffffffffffffffffff16837f2f8788117e7eff1d82e926ec794901d17c78024a50270940304540a733656f0d60405160405180910390a45b5050565b600062000388836000018373ffffffffffffffffffffffffffffffffffffffff1660001b620003fa60201b60201c565b905092915050565b600080600084815260200190815260200160002060000160008373ffffffffffffffffffffffffffffffffffffffff1673ffffffffffffffffffffffffffffffffffffffff16815260200190815260200160002060009054906101000a900460ff16905092915050565b60006200040e83836200047460201b60201c565b620004695782600001829080600181540180825580915050600190039060005260206000200160009091909190915055826000018054905083600101600084815260200190815260200160002081905550600190506200046e565b600090505b92915050565b600080836001016000848152602001908152602001600020541415905092915050565b6000604051905090565b600080fd5b600080fd5b600080fd5b600080fd5b6000601f19601f8301169050919050565b7f4e487b7100000000000000000000000000000000000000000000000000000000600052604160045260246000fd5b6200050082620004b5565b810181811067ffffffffffffffff82111715620005225762000521620004c6565b5b80604052505050565b60006200053762000497565b9050620005458282620004f5565b919050565b600067ffffffffffffffff821115620005685762000567620004c6565b5b6200057382620004b5565b9050602081019050919050565b60005b83811015620005a057808201518184015260208101905062000583565b60008484015250505050565b6000620005c3620005bd846200054a565b6200052b565b905082815260208101848484011115620005e257620005e1620004b0565b5b620005ef84828562000580565b509392505050565b600082601f8301126200060f576200060e620004ab565b5b815162000621848260208601620005ac565b91505092915050565b60008060408385031215620006445762000643620004a1565b5b600083015167ffffffffffffffff811115620006655762000664620004a6565b5b6200067385828601620005f7565b925050602083015167ffffffffffffffff811115620006975762000696620004a6565b5b620006a585828601620005f7565b9150509250929050565b600081519050919050565b7f4e487b7100000000000000000000000000000000000000000000000000000000600052602260045260246000fd5b600060028204905060018216806200070257607f821691505b602082108103620007185762000717620006ba565b5b50919050565b60008190508160005260206000209050919050565b60006020601f8301049050919050565b600082821b905092915050565b600060088302620007827fffffffffffffffffffffffffffffffffffffffffffffffffffffffffffffffff8262000743565b6200078e868362000743565b95508019841693508086168417925050509392505050565b6000819050919050565b6000819050919050565b6000620007db620007d5620007cf84620007a6565b620007b0565b620007a6565b9050919050565b6000819050919050565b620007f783620007ba565b6200080f6200080682620007e2565b84845462000750565b825550505050565b600090565b6200082662000817565b62000833818484620007ec565b505050565b5b818110156200085b576200084f6000826200081c565b60018101905062000839565b5050565b601f821115620008aa5762000874816200071e565b6200087f8462000733565b810160208510156200088f578190505b620008a76200089e8562000733565b83018262000838565b50505b505050565b600082821c905092915050565b6000620008cf60001984600802620008af565b1980831691505092915050565b6000620008ea8383620008bc565b9150826002028217905092915050565b6200090582620006af565b67ffffffffffffffff811115620009215762000920620004c6565b5b6200092d8254620006e9565b6200093a8282856200085f565b600060209050601f8311600181146200097257600084156200095d578287015190505b620009698582620008dc565b865550620009d9565b601f19841662000982866200071e565b60005b82811015620009ac5784890151825560018201915060208501945060208101905062000985565b86831015620009cc5784890151620009c8601f891682620008bc565b8355505b6001600288020188555050505b505050505050565b6000819050919050565b620009f681620009e1565b82525050565b62000a0781620007a6565b82525050565b600073ffffffffffffffffffffffffffffffffffffffff82169050919050565b600062000a3a8262000a0d565b9050919050565b62000a4c8162000a2d565b82525050565b600060a08201905062000a696000830188620009eb565b62000a786020830187620009eb565b62000a876040830186620009eb565b62000a966060830185620009fc565b62000aa5608083018462000a41565b9695505050505050565b6139138062000abf6000396000f3fe608060405234801561001057600080fd5b50600436106101f05760003560e01c806370a082311161010f578063a457c2d7116100a2578063d539139311610071578063d5391393146105e1578063d547741f146105ff578063dd62ed3e1461061b578063e63ab1e91461064b576101f0565b8063a457c2d714610535578063a9059cbb14610565578063ca15c87314610595578063d505accf146105c5576101f0565b80639010d07c116100de5780639010d07c1461049957806391d14854146104c957806395d89b41146104f9578063a217fddf14610517576101f0565b806370a082311461041357806379cc6790146104435780637ecebe001461045f5780638456cb591461048f576101f0565b8063313ce567116101875780633f4ba83a116101565780633f4ba83a146103b357806340c10f19146103bd57806342966c68146103d95780635c975abb146103f5576101f0565b8063313ce5671461032b5780633644e5151461034957806336568abe146103675780633950935114610383576101f0565b806323b872dd116101c357806323b872dd14610291578063248a9ca3146102c15780632f2ff15d146102f157806330adf81f1461030d576101f0565b806301ffc9a7146101f557806306fdde0314610225578063095ea7b31461024357806318160ddd14610273575b600080fd5b61020f600480360381019061020a9190612468565b610669565b60405161021c91906124b0565b60405180910390f35b61022d6106e3565b60405161023a919061255b565b60405180910390f35b61025d60048036038101906102589190612611565b610775565b60405161026a91906124b0565b60405180910390f35b61027b610798565b6040516102889190612660565b60405180910390f35b6102ab60048036038101906102a6919061267b565b6107a2565b6040516102b891906124b0565b60405180910390f35b6102db60048036038101906102d69190612704565b6107d1565b6040516102e89190612740565b60405180910390f35b61030b6004803603810190610306919061275b565b6107f0565b005b610315610811565b6040516103229190612740565b60405180910390f35b610333610838565b60405161034091906127b7565b60405180910390f35b610351610841565b60405161035e9190612740565b60405180910390f35b610381600480360381019061037c919061275b565b610847565b005b61039d60048036038101906103989190612611565b6108ca565b6040516103aa91906124b0565b60405180910390f35b6103bb610901565b005b6103d760048036038101906103d29190612611565b61097b565b005b6103f360048036038101906103ee91906127d2565b6109f9565b005b6103fd610a0d565b60405161040a91906124b0565b60405180910390f35b61042d600480360381019061042891906127ff565b610a24565b60405161043a9190612660565b60405180910390f35b61045d60048036038101906104589190612611565b610a6d565b005b610479600480360381019061047491906127ff565b610a8d565b6040516104869190612660565b60405180910390f35b610497610b12565b005b6104b360048036038101906104ae919061282c565b610b8c565b6040516104c0919061287b565b60405180910390f35b6104e360048036038101906104de919061275b565b610bbb565b6040516104f091906124b0565b60405180910390f35b610501610c25565b60405161050e919061255b565b60405180910390f35b61051f610cb7565b60405161052c9190612740565b60405180910390f35b61054f600480360381019061054a9190612611565b610cbe565b60405161055c91906124b0565b60405180910390f35b61057f600480360381019061057a9190612611565b610d35565b60405161058c91906124b0565b60405180910390f35b6105af60048036038101906105aa9190612704565b610d58565b6040516105bc9190612660565b60405180910390f35b6105df60048036038101906105da91906128c2565b610d7c565b005b6105e96110d0565b6040516105f69190612740565b60405180910390f35b6106196004803603810190610614919061275b565b6110f4565b005b61063560048036038101906106309190612964565b611115565b6040516106429190612660565b60405180910390f35b61065361119c565b6040516106609190612740565b60405180910390f35b60007f5a05180f000000000000000000000000000000000000000000000000000000007bffffffffffffffffffffffffffffffffffffffffffffffffffffffff1916827bffffffffffffffffffffffffffffffffffffffffffffffffffffffff191614806106dc57506106db826112d0565b5b9050919050565b6060600580546106f2906129d3565b80601f016020809104026020016040519081016040528092919081815260200182805461071e906129d3565b801561076b5780601f106107405761010080835404028352916020019161076b565b820191906000526020600020905b81548152906001019060200180831161074e57829003601f168201915b5050505050905090565b60008061078061134a565b905061078d818585611352565b600191505092915050565b6000600454905090565b6000806107ad61134a565b90506107ba85828561151b565b6107c58585856115a7565b60019150509392505050565b6000806000838152602001908152602001600020600101549050919050565b6107f9826107d1565b61080281611820565b61080c8383611834565b505050565b7f6e71edae12b1b97f4d1f60370fef10105fa2faae0126114a169c64845d6126c960001b81565b60006012905090565b60095481565b61084f61134a565b73ffffffffffffffffffffffffffffffffffffffff168173ffffffffffffffffffffffffffffffffffffffff16146108bc576040517f08c379a00000000000000000000000000000000000000000000000000000000081526004016108b390612a76565b60405180910390fd5b6108c68282611868565b5050565b6000806108d561134a565b90506108f68185856108e78589611115565b6108f19190612ac5565b611352565b600191505092915050565b6109327f65d7a28e3265b37a6474929f336521b332c1681b933f6cb9f3376673440d862a61092d61134a565b610bbb565b610971576040517f08c379a000000000000000000000000000000000000000000000000000000000815260040161096890612b6b565b60405180910390fd5b61097961189c565b565b6109ac7f9f2df0fed2c77648de5860a4cc508cd0818c85b8b8a1ab4ceeef8d981c8956a66109a761134a565b610bbb565b6109eb576040517f08c379a00000000000000000000000000000000000000000000000000000000081526004016109e290612bfd565b60405180910390fd5b6109f582826118ff565b5050565b610a0a610a0461134a565b82611a56565b50565b6000600760009054906101000a900460ff16905090565b6000600260008373ffffffffffffffffffffffffffffffffffffffff1673ffffffffffffffffffffffffffffffffffffffff168152602001908152602001600020549050919050565b610a7f82610a7961134a565b8361151b565b610a898282611a56565b5050565b6000610aa367babf5790a49e968b60c01b611c25565b610ab7673ee9e6a3ab2ab5f060c01b611c25565b610acb67d14c01ca36f1e7f660c01b611c25565b600860008373ffffffffffffffffffffffffffffffffffffffff1673ffffffffffffffffffffffffffffffffffffffff168152602001908152602001600020549050919050565b610b437f65d7a28e3265b37a6474929f336521b332c1681b933f6cb9f3376673440d862a610b3e61134a565b610bbb565b610b82576040517f08c379a0000000000000000000000000000000000000000000000000000000008152600401610b7990612c8f565b60405180910390fd5b610b8a611c28565b565b6000610bb38260016000868152602001908152602001600020611c8b90919063ffffffff16565b905092915050565b600080600084815260200190815260200160002060000160008373ffffffffffffffffffffffffffffffffffffffff1673ffffffffffffffffffffffffffffffffffffffff16815260200190815260200160002060009054906101000a900460ff16905092915050565b606060068054610c34906129d3565b80601f0160208091040260200160405190810160405280929190818152602001828054610c60906129d3565b8015610cad5780601f10610c8257610100808354040283529160200191610cad565b820191906000526020600020905b815481529060010190602001808311610c9057829003601f168201915b5050505050905090565b6000801b81565b600080610cc961134a565b90506000610cd78286611115565b905083811015610d1c576040517f08c379a0000000000000000000000000000000000000000000000000000000008152600401610d1390612d21565b60405180910390fd5b610d298286868403611352565b60019250505092915050565b600080610d4061134a565b9050610d4d8185856115a7565b600191505092915050565b6000610d7560016000848152602001908152602001600020611ca5565b9050919050565b610d9067823686818bd78bec60c01b611c25565b610da46721382c8219aaa99060c01b611c25565b610db867d34da3ef9a7d597260c01b611c25565b610dcc67a9240277a90e293f60c01b611c25565b42841015610e0f576040517f08c379a0000000000000000000000000000000000000000000000000000000008152600401610e0690612db3565b60405180910390fd5b610e2367bf68fc42d9625cff60c01b611c25565b610e3767f1fc16d7313f33c560c01b611c25565b610e4b67f5dc1dc15f8189fe60c01b611c25565b60006009547f6e71edae12b1b97f4d1f60370fef10105fa2faae0126114a169c64845d6126c960001b898989600860008e73ffffffffffffffffffffffffffffffffffffffff1673ffffffffffffffffffffffffffffffffffffffff1681526020019081526020016000206000815480929190610ec790612dd3565b919050558a604051602001610ee196959493929190612e1b565b60405160208183030381529060405280519060200120604051602001610f08929190612ef4565b604051602081830303815290604052805190602001209050610f34675507f4b15c7cca4160c01b611c25565b610f48678eee0220a2cfaab160c01b611c25565b600060018286868660405160008152602001604052604051610f6d9493929190612f2b565b6020604051602081039080840390855afa158015610f8f573d6000803e3d6000fd5b505050602060405103519050610faf6724a4c55682e4d64460c01b611c25565b610fc3675074b55bff2cbc5f60c01b611c25565b610fd7673736b2863013467a60c01b611c25565b600073ffffffffffffffffffffffffffffffffffffffff168173ffffffffffffffffffffffffffffffffffffffff161415801561103f57508873ffffffffffffffffffffffffffffffffffffffff168173ffffffffffffffffffffffffffffffffffffffff16145b61107e576040517f08c379a000000000000000000000000000000000000000000000000000000000815260040161107590612fe2565b60405180910390fd5b61109267e93529c7a030e91e60c01b611c25565b6110a6670637f7f6bb93328960c01b611c25565b6110ba670ff507695ededf3960c01b611c25565b6110c5898989611352565b505050505050505050565b7f9f2df0fed2c77648de5860a4cc508cd0818c85b8b8a1ab4ceeef8d981c8956a681565b6110fd826107d1565b61110681611820565b6111108383611868565b505050565b6000600360008473ffffffffffffffffffffffffffffffffffffffff1673ffffffffffffffffffffffffffffffffffffffff16815260200190815260200160002060008373ffffffffffffffffffffffffffffffffffffffff1673ffffffffffffffffffffffffffffffffffffffff16815260200190815260200160002054905092915050565b7f65d7a28e3265b37a6474929f336521b332c1681b933f6cb9f3376673440d862a81565b6111ca8282610bbb565b61129c57600160008084815260200190815260200160002060000160008373ffffffffffffffffffffffffffffffffffffffff1673ffffffffffffffffffffffffffffffffffffffff16815260200190815260200160002060006101000a81548160ff02191690831515021790555061124161134a565b73ffffffffffffffffffffffffffffffffffffffff168173ffffffffffffffffffffffffffffffffffffffff16837f2f8788117e7eff1d82e926ec794901d17c78024a50270940304540a733656f0d60405160405180910390a45b5050565b60006112c8836000018373ffffffffffffffffffffffffffffffffffffffff1660001b611cba565b905092915050565b60007f7965db0b000000000000000000000000000000000000000000000000000000007bffffffffffffffffffffffffffffffffffffffffffffffffffffffff1916827bffffffffffffffffffffffffffffffffffffffffffffffffffffffff19161480611343575061134282611d2a565b5b9050919050565b600033905090565b600073ffffffffffffffffffffffffffffffffffffffff168373ffffffffffffffffffffffffffffffffffffffff16036113c1576040517f08c379a00000000000000000000000000000000000000000000000000000000081526004016113b890613074565b60405180910390fd5b600073ffffffffffffffffffffffffffffffffffffffff168273ffffffffffffffffffffffffffffffffffffffff1603611430576040517f08c379a000000000000000000000000000000000000000000000000000000000815260040161142790613106565b60405180910390fd5b80600360008573ffffffffffffffffffffffffffffffffffffffff1673ffffffffffffffffffffffffffffffffffffffff16815260200190815260200160002060008473ffffffffffffffffffffffffffffffffffffffff1673ffffffffffffffffffffffffffffffffffffffff168152602001908152602001600020819055508173ffffffffffffffffffffffffffffffffffffffff168373ffffffffffffffffffffffffffffffffffffffff167f8c5be1e5ebec7d5bd14f71427d1e84f3dd0314c0f7b2291e5b200ac8c7c3b9258360405161150e9190612660565b60405180910390a3505050565b60006115278484611115565b90507fffffffffffffffffffffffffffffffffffffffffffffffffffffffffffffffff81146115a15781811015611593576040517f08c379a000000000000000000000000000000000000000000000000000000000815260040161158a90613172565b60405180910390fd5b6115a08484848403611352565b5b50505050565b600073ffffffffffffffffffffffffffffffffffffffff168373ffffffffffffffffffffffffffffffffffffffff1603611616576040517f08c379a000000000000000000000000000000000000000000000000000000000815260040161160d90613204565b60405180910390fd5b600073ffffffffffffffffffffffffffffffffffffffff168273ffffffffffffffffffffffffffffffffffffffff1603611685576040517f08c379a000000000000000000000000000000000000000000000000000000000815260040161167c90613296565b60405180910390fd5b611690838383611d94565b6000600260008573ffffffffffffffffffffffffffffffffffffffff1673ffffffffffffffffffffffffffffffffffffffff16815260200190815260200160002054905081811015611717576040517f08c379a000000000000000000000000000000000000000000000000000000000815260040161170e90613328565b60405180910390fd5b818103600260008673ffffffffffffffffffffffffffffffffffffffff1673ffffffffffffffffffffffffffffffffffffffff1681526020019081526020016000208190555081600260008573ffffffffffffffffffffffffffffffffffffffff1673ffffffffffffffffffffffffffffffffffffffff168152602001908152602001600020600082825401925050819055508273ffffffffffffffffffffffffffffffffffffffff168473ffffffffffffffffffffffffffffffffffffffff167fddf252ad1be2c89b69c2b068fc378daa952ba7f163c4a11628f55a4df523b3ef846040516118079190612660565b60405180910390a361181a848484611da4565b50505050565b6118318161182c61134a565b611da9565b50565b61183e82826111c0565b61186381600160008581526020019081526020016000206112a090919063ffffffff16565b505050565b6118728282611e2e565b6118978160016000858152602001908152602001600020611f0f90919063ffffffff16565b505050565b6118a4611f3f565b6000600760006101000a81548160ff0219169083151502179055507f5db9ee0a495bf2e6ff9c91a7834c1ba4fdd244a5e8aa4e537bd38aeae4b073aa6118e861134a565b6040516118f5919061287b565b60405180910390a1565b600073ffffffffffffffffffffffffffffffffffffffff168273ffffffffffffffffffffffffffffffffffffffff160361196e576040517f08c379a000000000000000000000000000000000000000000000000000000000815260040161196590613394565b60405180910390fd5b61197a60008383611d94565b806004600082825461198c9190612ac5565b9250508190555080600260008473ffffffffffffffffffffffffffffffffffffffff1673ffffffffffffffffffffffffffffffffffffffff168152602001908152602001600020600082825401925050819055508173ffffffffffffffffffffffffffffffffffffffff16600073ffffffffffffffffffffffffffffffffffffffff167fddf252ad1be2c89b69c2b068fc378daa952ba7f163c4a11628f55a4df523b3ef83604051611a3e9190612660565b60405180910390a3611a5260008383611da4565b5050565b600073ffffffffffffffffffffffffffffffffffffffff168273ffffffffffffffffffffffffffffffffffffffff1603611ac5576040517f08c379a0000000000000000000000000000000000000000000000000000000008152600401611abc90613426565b60405180910390fd5b611ad182600083611d94565b6000600260008473ffffffffffffffffffffffffffffffffffffffff1673ffffffffffffffffffffffffffffffffffffffff16815260200190815260200160002054905081811015611b58576040517f08c379a0000000000000000000000000000000000000000000000000000000008152600401611b4f906134b8565b60405180910390fd5b818103600260008573ffffffffffffffffffffffffffffffffffffffff1673ffffffffffffffffffffffffffffffffffffffff1681526020019081526020016000208190555081600460008282540392505081905550600073ffffffffffffffffffffffffffffffffffffffff168373ffffffffffffffffffffffffffffffffffffffff167fddf252ad1be2c89b69c2b068fc378daa952ba7f163c4a11628f55a4df523b3ef84604051611c0c9190612660565b60405180910390a3611c2083600084611da4565b505050565b50565b611c30611f88565b6001600760006101000a81548160ff0219169083151502179055507f62e78cea01bee320cd4e420270b5ea74000d11b0c9f74754ebdbfc544b05a258611c7461134a565b604051611c81919061287b565b60405180910390a1565b6000611c9a8360000183611fd2565b60001c905092915050565b6000611cb382600001611ffd565b9050919050565b6000611cc6838361200e565b611d1f578260000182908060018154018082558091505060019003906000526020600020016000909190919091505582600001805490508360010160008481526020019081526020016000208190555060019050611d24565b600090505b92915050565b60007f01ffc9a7000000000000000000000000000000000000000000000000000000007bffffffffffffffffffffffffffffffffffffffffffffffffffffffff1916827bffffffffffffffffffffffffffffffffffffffffffffffffffffffff1916149050919050565b611d9f838383612031565b505050565b505050565b611db38282610bbb565b611e2a57611dc081612089565b611dce8360001c60206120b6565b604051602001611ddf9291906135a1565b6040516020818303038152906040526040517f08c379a0000000000000000000000000000000000000000000000000000000008152600401611e21919061255b565b60405180910390fd5b5050565b611e388282610bbb565b15611f0b57600080600084815260200190815260200160002060000160008373ffffffffffffffffffffffffffffffffffffffff1673ffffffffffffffffffffffffffffffffffffffff16815260200190815260200160002060006101000a81548160ff021916908315150217905550611eb061134a565b73ffffffffffffffffffffffffffffffffffffffff168173ffffffffffffffffffffffffffffffffffffffff16837ff6391f5c32d9c69d2a47ea670b442974b53935d1edc7fd64eb21e047a839171b60405160405180910390a45b5050565b6000611f37836000018373ffffffffffffffffffffffffffffffffffffffff1660001b6122f2565b905092915050565b611f47610a0d565b611f86576040517f08c379a0000000000000000000000000000000000000000000000000000000008152600401611f7d90613627565b60405180910390fd5b565b611f90610a0d565b15611fd0576040517f08c379a0000000000000000000000000000000000000000000000000000000008152600401611fc790613693565b60405180910390fd5b565b6000826000018281548110611fea57611fe96136b3565b5b9060005260206000200154905092915050565b600081600001805490509050919050565b600080836001016000848152602001908152602001600020541415905092915050565b61203c838383612406565b612044610a0d565b15612084576040517f08c379a000000000000000000000000000000000000000000000000000000000815260040161207b90613754565b60405180910390fd5b505050565b60606120af8273ffffffffffffffffffffffffffffffffffffffff16601460ff166120b6565b9050919050565b6060600060028360026120c99190613774565b6120d39190612ac5565b67ffffffffffffffff8111156120ec576120eb6137b6565b5b6040519080825280601f01601f19166020018201604052801561211e5781602001600182028036833780820191505090505b5090507f300000000000000000000000000000000000000000000000000000000000000081600081518110612156576121556136b3565b5b60200101907effffffffffffffffffffffffffffffffffffffffffffffffffffffffffffff1916908160001a9053507f7800000000000000000000000000000000000000000000000000000000000000816001815181106121ba576121b96136b3565b5b60200101907effffffffffffffffffffffffffffffffffffffffffffffffffffffffffffff1916908160001a905350600060018460026121fa9190613774565b6122049190612ac5565b90505b60018111156122a4577f3031323334353637383961626364656600000000000000000000000000000000600f861660108110612246576122456136b3565b5b1a60f81b82828151811061225d5761225c6136b3565b5b60200101907effffffffffffffffffffffffffffffffffffffffffffffffffffffffffffff1916908160001a905350600485901c94508061229d906137e5565b9050612207565b50600084146122e8576040517f08c379a00000000000000000000000000000000000000000000000000000000081526004016122df9061385a565b60405180910390fd5b8091505092915050565b600080836001016000848152602001908152602001600020549050600081146123fa576000600182612324919061387a565b905060006001866000018054905061233c919061387a565b90508181146123ab57600086600001828154811061235d5761235c6136b3565b5b9060005260206000200154905080876000018481548110612381576123806136b3565b5b90600052602060002001819055508387600101600083815260200190815260200160002081905550505b856000018054806123bf576123be6138ae565b5b600190038181906000526020600020016000905590558560010160008681526020019081526020016000206000905560019350505050612400565b60009150505b92915050565b505050565b600080fd5b60007fffffffff0000000000000000000000000000000000000000000000000000000082169050919050565b61244581612410565b811461245057600080fd5b50565b6000813590506124628161243c565b92915050565b60006020828403121561247e5761247d61240b565b5b600061248c84828501612453565b91505092915050565b60008115159050919050565b6124aa81612495565b82525050565b60006020820190506124c560008301846124a1565b92915050565b600081519050919050565b600082825260208201905092915050565b60005b838110156125055780820151818401526020810190506124ea565b60008484015250505050565b6000601f19601f8301169050919050565b600061252d826124cb565b61253781856124d6565b93506125478185602086016124e7565b61255081612511565b840191505092915050565b600060208201905081810360008301526125758184612522565b905092915050565b600073ffffffffffffffffffffffffffffffffffffffff82169050919050565b60006125a88261257d565b9050919050565b6125b88161259d565b81146125c357600080fd5b50565b6000813590506125d5816125af565b92915050565b6000819050919050565b6125ee816125db565b81146125f957600080fd5b50565b60008135905061260b816125e5565b92915050565b600080604083850312156126285761262761240b565b5b6000612636858286016125c6565b9250506020612647858286016125fc565b9150509250929050565b61265a816125db565b82525050565b60006020820190506126756000830184612651565b92915050565b6000806000606084860312156126945761269361240b565b5b60006126a2868287016125c6565b93505060206126b3868287016125c6565b92505060406126c4868287016125fc565b9150509250925092565b6000819050919050565b6126e1816126ce565b81146126ec57600080fd5b50565b6000813590506126fe816126d8565b92915050565b60006020828403121561271a5761271961240b565b5b6000612728848285016126ef565b91505092915050565b61273a816126ce565b82525050565b60006020820190506127556000830184612731565b92915050565b600080604083850312156127725761277161240b565b5b6000612780858286016126ef565b9250506020612791858286016125c6565b9150509250929050565b600060ff82169050919050565b6127b18161279b565b82525050565b60006020820190506127cc60008301846127a8565b92915050565b6000602082840312156127e8576127e761240b565b5b60006127f6848285016125fc565b91505092915050565b6000602082840312156128155761281461240b565b5b6000612823848285016125c6565b91505092915050565b600080604083850312156128435761284261240b565b5b6000612851858286016126ef565b9250506020612862858286016125fc565b9150509250929050565b6128758161259d565b82525050565b6000602082019050612890600083018461286c565b92915050565b61289f8161279b565b81146128aa57600080fd5b50565b6000813590506128bc81612896565b92915050565b600080600080600080600060e0888a0312156128e1576128e061240b565b5b60006128ef8a828b016125c6565b97505060206129008a828b016125c6565b96505060406129118a828b016125fc565b95505060606129228a828b016125fc565b94505060806129338a828b016128ad565b93505060a06129448a828b016126ef565b92505060c06129558a828b016126ef565b91505092959891949750929550565b6000806040838503121561297b5761297a61240b565b5b6000612989858286016125c6565b925050602061299a858286016125c6565b9150509250929050565b7f4e487b7100000000000000000000000000000000000000000000000000000000600052602260045260246000fd5b600060028204905060018216806129eb57607f821691505b6020821081036129fe576129fd6129a4565b5b50919050565b7f416363657373436f6e74726f6c3a2063616e206f6e6c792072656e6f756e636560008201527f20726f6c657320666f722073656c660000000000000000000000000000000000602082015250565b6000612a60602f836124d6565b9150612a6b82612a04565b604082019050919050565b60006020820190508181036000830152612a8f81612a53565b9050919050565b7f4e487b7100000000000000000000000000000000000000000000000000000000600052601160045260246000fd5b6000612ad0826125db565b9150612adb836125db565b9250828201905080821115612af357612af2612a96565b5b92915050565b7f45524332305072657365744d696e7465725061757365723a206d75737420686160008201527f76652070617573657220726f6c6520746f20756e706175736500000000000000602082015250565b6000612b556039836124d6565b9150612b6082612af9565b604082019050919050565b60006020820190508181036000830152612b8481612b48565b9050919050565b7f45524332305072657365744d696e7465725061757365723a206d75737420686160008201527f7665206d696e74657220726f6c6520746f206d696e7400000000000000000000602082015250565b6000612be76036836124d6565b9150612bf282612b8b565b604082019050919050565b60006020820190508181036000830152612c1681612bda565b9050919050565b7f45524332305072657365744d696e7465725061757365723a206d75737420686160008201527f76652070617573657220726f6c6520746f207061757365000000000000000000602082015250565b6000612c796037836124d6565b9150612c8482612c1d565b604082019050919050565b60006020820190508181036000830152612ca881612c6c565b9050919050565b7f45524332303a2064656372656173656420616c6c6f77616e63652062656c6f7760008201527f207a65726f000000000000000000000000000000000000000000000000000000602082015250565b6000612d0b6025836124d6565b9150612d1682612caf565b604082019050919050565b60006020820190508181036000830152612d3a81612cfe565b9050919050565b7f4552433230576974685065726d69743a20455850495245445f5349474e41545560008201527f5245000000000000000000000000000000000000000000000000000000000000602082015250565b6000612d9d6022836124d6565b9150612da882612d41565b604082019050919050565b60006020820190508181036000830152612dcc81612d90565b9050919050565b6000612dde826125db565b91507fffffffffffffffffffffffffffffffffffffffffffffffffffffffffffffffff8203612e1057612e0f612a96565b5b600182019050919050565b600060c082019050612e306000830189612731565b612e3d602083018861286c565b612e4a604083018761286c565b612e576060830186612651565b612e646080830185612651565b612e7160a0830184612651565b979650505050505050565b600081905092915050565b7f1901000000000000000000000000000000000000000000000000000000000000600082015250565b6000612ebd600283612e7c565b9150612ec882612e87565b600282019050919050565b6000819050919050565b612eee612ee9826126ce565b612ed3565b82525050565b6000612eff82612eb0565b9150612f0b8285612edd565b602082019150612f1b8284612edd565b6020820191508190509392505050565b6000608082019050612f406000830187612731565b612f4d60208301866127a8565b612f5a6040830185612731565b612f676060830184612731565b95945050505050565b7f4552433230576974685065726d69743a20494e56414c49445f5349474e41545560008201527f5245000000000000000000000000000000000000000000000000000000000000602082015250565b6000612fcc6022836124d6565b9150612fd782612f70565b604082019050919050565b60006020820190508181036000830152612ffb81612fbf565b9050919050565b7f45524332303a20617070726f76652066726f6d20746865207a65726f2061646460008201527f7265737300000000000000000000000000000000000000000000000000000000602082015250565b600061305e6024836124d6565b915061306982613002565b604082019050919050565b6000602082019050818103600083015261308d81613051565b9050919050565b7f45524332303a20617070726f766520746f20746865207a65726f20616464726560008201527f7373000000000000000000000000000000000000000000000000000000000000602082015250565b60006130f06022836124d6565b91506130fb82613094565b604082019050919050565b6000602082019050818103600083015261311f816130e3565b9050919050565b7f45524332303a20696e73756666696369656e7420616c6c6f77616e6365000000600082015250565b600061315c601d836124d6565b915061316782613126565b602082019050919050565b6000602082019050818103600083015261318b8161314f565b9050919050565b7f45524332303a207472616e736665722066726f6d20746865207a65726f20616460008201527f6472657373000000000000000000000000000000000000000000000000000000602082015250565b60006131ee6025836124d6565b91506131f982613192565b604082019050919050565b6000602082019050818103600083015261321d816131e1565b9050919050565b7f45524332303a207472616e7366657220746f20746865207a65726f206164647260008201527f6573730000000000000000000000000000000000000000000000000000000000602082015250565b60006132806023836124d6565b915061328b82613224565b604082019050919050565b600060208201905081810360008301526132af81613273565b9050919050565b7f45524332303a207472616e7366657220616d6f756e742065786365656473206260008201527f616c616e63650000000000000000000000000000000000000000000000000000602082015250565b60006133126026836124d6565b915061331d826132b6565b604082019050919050565b6000602082019050818103600083015261334181613305565b9050919050565b7f45524332303a206d696e7420746f20746865207a65726f206164647265737300600082015250565b600061337e601f836124d6565b915061338982613348565b602082019050919050565b600060208201905081810360008301526133ad81613371565b9050919050565b7f45524332303a206275726e2066726f6d20746865207a65726f2061646472657360008201527f7300000000000000000000000000000000000000000000000000000000000000602082015250565b60006134106021836124d6565b915061341b826133b4565b604082019050919050565b6000602082019050818103600083015261343f81613403565b9050919050565b7f45524332303a206275726e20616d6f756e7420657863656564732062616c616e60008201527f6365000000000000000000000000000000000000000000000000000000000000602082015250565b60006134a26022836124d6565b91506134ad82613446565b604082019050919050565b600060208201905081810360008301526134d181613495565b9050919050565b7f416363657373436f6e74726f6c3a206163636f756e7420000000000000000000600082015250565b600061350e601783612e7c565b9150613519826134d8565b601782019050919050565b600061352f826124cb565b6135398185612e7c565b93506135498185602086016124e7565b80840191505092915050565b7f206973206d697373696e6720726f6c6520000000000000000000000000000000600082015250565b600061358b601183612e7c565b915061359682613555565b601182019050919050565b60006135ac82613501565b91506135b88285613524565b91506135c38261357e565b91506135cf8284613524565b91508190509392505050565b7f5061757361626c653a206e6f7420706175736564000000000000000000000000600082015250565b60006136116014836124d6565b915061361c826135db565b602082019050919050565b6000602082019050818103600083015261364081613604565b9050919050565b7f5061757361626c653a2070617573656400000000000000000000000000000000600082015250565b600061367d6010836124d6565b915061368882613647565b602082019050919050565b600060208201905081810360008301526136ac81613670565b9050919050565b7f4e487b7100000000000000000000000000000000000000000000000000000000600052603260045260246000fd5b7f45524332305061757361626c653a20746f6b656e207472616e7366657220776860008201527f696c652070617573656400000000000000000000000000000000000000000000602082015250565b600061373e602a836124d6565b9150613749826136e2565b604082019050919050565b6000602082019050818103600083015261376d81613731565b9050919050565b600061377f826125db565b915061378a836125db565b9250828202613798816125db565b915082820484148315176137af576137ae612a96565b5b5092915050565b7f4e487b7100000000000000000000000000000000000000000000000000000000600052604160045260246000fd5b60006137f0826125db565b91506000820361380357613802612a96565b5b600182039050919050565b7f537472696e67733a20686578206c656e67746820696e73756666696369656e74600082015250565b60006138446020836124d6565b915061384f8261380e565b602082019050919050565b6000602082019050818103600083015261387381613837565b9050919050565b6000613885826125db565b9150613890836125db565b92508282039050818111156138a8576138a7612a96565b5b92915050565b7f4e487b7100000000000000000000000000000000000000000000000000000000600052603160045260246000fdfea26469706673582212200fb3795f61b1b25183ad6d88d4689168c2400da5d2f3ee95afe74df272b0e71c64736f6c63430008110033a264697066735822122085c37f5d03613802fb4f7b009415d386418ca784d935a9f1fa5fbca2f5dbc3d764736f6c63430008110033",
  "linkReferences": {},
  "deployedLinkReferences": {}
}