{
  "_format": "hh-sol-artifact-1",
  "contractName": "Bridge",
  "sourceName": "contracts/Bridge.sol",
  "abi": [
    {
      "inputs": [
        {
          "internalType": "string",
          "name": "contractName",
          "type": "string"
        }
      ],
      "stateMutability": "nonpayable",
      "type": "constructor"
    },
    {
      "inputs": [],
      "name": "AddressIsNotTheOwner",
      "type": "error"
    },
    {
      "inputs": [],
      "name": "CurrentAndProvidedChainsDoNotMatch",
      "type": "error"
    },
    {
      "inputs": [],
      "name": "DestinationChainCantBeCurrentChain",
      "type": "error"
    },
    {
      "inputs": [],
      "name": "FromAndSenderMustMatch",
      "type": "error"
    },
    {
      "inputs": [],
      "name": "IncorrectDestinationChain",
      "type": "error"
    },
    {
      "inputs": [],
      "name": "InvalidAddress",
      "type": "error"
    },
    {
      "inputs": [],
      "name": "InvalidChainId",
      "type": "error"
    },
    {
      "inputs": [],
      "name": "InvalidTokenAmount",
      "type": "error"
    },
    {
      "inputs": [],
      "name": "TransferFromIsUnsuccessful",
      "type": "error"
    },
    {
      "inputs": [],
      "name": "TransferIsUnsuccessful",
      "type": "error"
    },
    {
      "anonymous": false,
      "inputs": [
        {
          "indexed": false,
          "internalType": "address",
          "name": "burnedWrappedTokenAddress",
          "type": "address"
        },
        {
          "indexed": false,
          "internalType": "uint256",
          "name": "value",
          "type": "uint256"
        },
        {
          "indexed": false,
          "internalType": "address",
          "name": "sender",
          "type": "address"
        },
        {
          "indexed": false,
          "internalType": "address",
          "name": "recepient",
          "type": "address"
        },
        {
          "indexed": false,
          "internalType": "uint256",
          "name": "sourceChainId",
          "type": "uint256"
        },
        {
          "indexed": false,
          "internalType": "uint256",
          "name": "toChainId",
          "type": "uint256"
        },
        {
          "indexed": false,
          "internalType": "address",
          "name": "originalTokenAddress",
          "type": "address"
        },
        {
          "indexed": false,
          "internalType": "uint256",
          "name": "originalTokenChainId",
          "type": "uint256"
        }
      ],
      "name": "BurnWrappedToken",
      "type": "event"
    },
    {
      "anonymous": false,
      "inputs": [
        {
          "indexed": true,
          "internalType": "address",
          "name": "lockedTokenAddress",
          "type": "address"
        },
        {
          "indexed": false,
          "internalType": "uint256",
          "name": "value",
          "type": "uint256"
        },
        {
          "indexed": true,
          "internalType": "address",
          "name": "sender",
          "type": "address"
        },
        {
          "indexed": true,
          "internalType": "address",
          "name": "recepient",
          "type": "address"
        },
        {
          "indexed": false,
          "internalType": "uint256",
          "name": "sourceChainId",
          "type": "uint256"
        },
        {
          "indexed": false,
          "internalType": "uint256",
          "name": "toChainId",
          "type": "uint256"
        }
      ],
      "name": "LockOriginalToken",
      "type": "event"
    },
    {
      "anonymous": false,
      "inputs": [
        {
          "indexed": false,
          "internalType": "address",
          "name": "mintedTokenAddress",
          "type": "address"
        },
        {
          "indexed": false,
          "internalType": "uint256",
          "name": "value",
          "type": "uint256"
        },
        {
          "indexed": false,
          "internalType": "address",
          "name": "sender",
          "type": "address"
        },
        {
          "indexed": false,
          "internalType": "address",
          "name": "recepient",
          "type": "address"
        },
        {
          "indexed": false,
          "internalType": "uint256",
          "name": "sourceChainId",
          "type": "uint256"
        },
        {
          "indexed": false,
          "internalType": "uint256",
          "name": "toChainId",
          "type": "uint256"
        },
        {
          "indexed": false,
          "internalType": "address",
          "name": "originalTokenAddress",
          "type": "address"
        },
        {
          "indexed": false,
          "internalType": "uint256",
          "name": "originalChainId",
          "type": "uint256"
        }
      ],
      "name": "MintWrappedToken",
      "type": "event"
    },
    {
      "anonymous": false,
      "inputs": [
        {
          "indexed": true,
          "internalType": "address",
          "name": "previousOwner",
          "type": "address"
        },
        {
          "indexed": true,
          "internalType": "address",
          "name": "newOwner",
          "type": "address"
        }
      ],
      "name": "OwnershipTransferred",
      "type": "event"
    },
    {
      "anonymous": false,
      "inputs": [
        {
          "indexed": false,
          "internalType": "address",
          "name": "account",
          "type": "address"
        }
      ],
      "name": "Paused",
      "type": "event"
    },
    {
      "anonymous": false,
      "inputs": [
        {
          "indexed": false,
          "internalType": "address",
          "name": "releasedTokenAddress",
          "type": "address"
        },
        {
          "indexed": false,
          "internalType": "uint256",
          "name": "value",
          "type": "uint256"
        },
        {
          "indexed": false,
          "internalType": "address",
          "name": "sender",
          "type": "address"
        },
        {
          "indexed": false,
          "internalType": "address",
          "name": "recepient",
          "type": "address"
        },
        {
          "indexed": false,
          "internalType": "uint256",
          "name": "sourceChainId",
          "type": "uint256"
        },
        {
          "indexed": false,
          "internalType": "uint256",
          "name": "toChainId",
          "type": "uint256"
        },
        {
          "indexed": false,
          "internalType": "address",
          "name": "sourceWrappedTokenAddress",
          "type": "address"
        }
      ],
      "name": "ReleaseOriginalToken",
      "type": "event"
    },
    {
      "anonymous": false,
      "inputs": [
        {
          "indexed": false,
          "internalType": "address",
          "name": "account",
          "type": "address"
        }
      ],
      "name": "Unpaused",
      "type": "event"
    },
    {
      "inputs": [],
      "name": "CLAIMDATA_TYPEHASH",
      "outputs": [
        {
          "internalType": "bytes32",
          "name": "",
          "type": "bytes32"
        }
      ],
      "stateMutability": "view",
      "type": "function"
    },
    {
      "inputs": [],
      "name": "CLAIM_TYPEHASH",
      "outputs": [
        {
          "internalType": "bytes32",
          "name": "",
          "type": "bytes32"
        }
      ],
      "stateMutability": "view",
      "type": "function"
    },
    {
      "inputs": [],
      "name": "DOMAIN_SEPARATOR",
      "outputs": [
        {
          "internalType": "bytes32",
          "name": "",
          "type": "bytes32"
        }
      ],
      "stateMutability": "view",
      "type": "function"
    },
    {
      "inputs": [],
      "name": "ORIGINAL_TOKEN_TYPEHASH",
      "outputs": [
        {
          "internalType": "bytes32",
          "name": "",
          "type": "bytes32"
        }
      ],
      "stateMutability": "view",
      "type": "function"
    },
    {
      "inputs": [],
      "name": "SIGNATURE_TYPEHASH",
      "outputs": [
        {
          "internalType": "bytes32",
          "name": "",
          "type": "bytes32"
        }
      ],
      "stateMutability": "view",
      "type": "function"
    },
    {
      "inputs": [],
      "name": "USER_TYPEHASH",
      "outputs": [
        {
          "internalType": "bytes32",
          "name": "",
          "type": "bytes32"
        }
      ],
      "stateMutability": "view",
      "type": "function"
    },
    {
      "inputs": [
        {
          "components": [
            {
              "components": [
                {
                  "internalType": "address",
                  "name": "_address",
                  "type": "address"
                },
                {
                  "internalType": "uint256",
                  "name": "chainId",
                  "type": "uint256"
                }
              ],
              "internalType": "struct IBridge.User",
              "name": "from",
              "type": "tuple"
            },
            {
              "components": [
                {
                  "internalType": "address",
                  "name": "_address",
                  "type": "address"
                },
                {
                  "internalType": "uint256",
                  "name": "chainId",
                  "type": "uint256"
                }
              ],
              "internalType": "struct IBridge.User",
              "name": "to",
              "type": "tuple"
            },
            {
              "internalType": "uint256",
              "name": "value",
              "type": "uint256"
            },
            {
              "components": [
                {
                  "internalType": "address",
                  "name": "tokenAddress",
                  "type": "address"
                },
                {
                  "internalType": "uint256",
                  "name": "originChainId",
                  "type": "uint256"
                }
              ],
              "internalType": "struct IBridge.OriginalToken",
              "name": "token",
              "type": "tuple"
            },
            {
              "internalType": "address",
              "name": "depositTxSourceToken",
              "type": "address"
            },
            {
              "internalType": "address",
              "name": "targetTokenAddress",
              "type": "address"
            },
            {
              "internalType": "string",
              "name": "targetTokenName",
              "type": "string"
            },
            {
              "internalType": "string",
              "name": "targetTokenSymbol",
              "type": "string"
            },
            {
              "internalType": "uint256",
              "name": "deadline",
              "type": "uint256"
            }
          ],
          "internalType": "struct IBridge.ClaimData",
          "name": "_claimData",
          "type": "tuple"
        },
        {
          "components": [
            {
              "internalType": "uint8",
              "name": "v",
              "type": "uint8"
            },
            {
              "internalType": "bytes32",
              "name": "r",
              "type": "bytes32"
            },
            {
              "internalType": "bytes32",
              "name": "s",
              "type": "bytes32"
            }
          ],
          "internalType": "struct IBridge.Signature",
          "name": "claimSig",
          "type": "tuple"
        }
      ],
      "name": "claim",
      "outputs": [],
      "stateMutability": "nonpayable",
      "type": "function"
    },
    {
      "inputs": [
        {
          "components": [
            {
              "components": [
                {
                  "internalType": "address",
                  "name": "_address",
                  "type": "address"
                },
                {
                  "internalType": "uint256",
                  "name": "chainId",
                  "type": "uint256"
                }
              ],
              "internalType": "struct IBridge.User",
              "name": "from",
              "type": "tuple"
            },
            {
              "components": [
                {
                  "internalType": "address",
                  "name": "_address",
                  "type": "address"
                },
                {
                  "internalType": "uint256",
                  "name": "chainId",
                  "type": "uint256"
                }
              ],
              "internalType": "struct IBridge.User",
              "name": "to",
              "type": "tuple"
            },
            {
              "internalType": "address",
              "name": "spender",
              "type": "address"
            },
            {
              "internalType": "address",
              "name": "token",
              "type": "address"
            },
            {
              "internalType": "uint256",
              "name": "value",
              "type": "uint256"
            },
            {
              "internalType": "uint256",
              "name": "deadline",
              "type": "uint256"
            },
            {
              "components": [
                {
                  "internalType": "uint8",
                  "name": "v",
                  "type": "uint8"
                },
                {
                  "internalType": "bytes32",
                  "name": "r",
                  "type": "bytes32"
                },
                {
                  "internalType": "bytes32",
                  "name": "s",
                  "type": "bytes32"
                }
              ],
              "internalType": "struct IBridge.Signature",
              "name": "approveTokenTransferSig",
              "type": "tuple"
            }
          ],
          "internalType": "struct IBridge.DepositData",
          "name": "_depositData",
          "type": "tuple"
        }
      ],
      "name": "deposit",
      "outputs": [],
      "stateMutability": "nonpayable",
      "type": "function"
    },
    {
      "inputs": [
        {
          "components": [
            {
              "components": [
                {
                  "internalType": "address",
                  "name": "_address",
                  "type": "address"
                },
                {
                  "internalType": "uint256",
                  "name": "chainId",
                  "type": "uint256"
                }
              ],
              "internalType": "struct IBridge.User",
              "name": "from",
              "type": "tuple"
            },
            {
              "components": [
                {
                  "internalType": "address",
                  "name": "_address",
                  "type": "address"
                },
                {
                  "internalType": "uint256",
                  "name": "chainId",
                  "type": "uint256"
                }
              ],
              "internalType": "struct IBridge.User",
              "name": "to",
              "type": "tuple"
            },
            {
              "internalType": "address",
              "name": "spender",
              "type": "address"
            },
            {
              "internalType": "address",
              "name": "token",
              "type": "address"
            },
            {
              "internalType": "uint256",
              "name": "value",
              "type": "uint256"
            },
            {
              "internalType": "uint256",
              "name": "deadline",
              "type": "uint256"
            },
            {
              "components": [
                {
                  "internalType": "uint8",
                  "name": "v",
                  "type": "uint8"
                },
                {
                  "internalType": "bytes32",
                  "name": "r",
                  "type": "bytes32"
                },
                {
                  "internalType": "bytes32",
                  "name": "s",
                  "type": "bytes32"
                }
              ],
              "internalType": "struct IBridge.Signature",
              "name": "approveTokenTransferSig",
              "type": "tuple"
            }
          ],
          "internalType": "struct IBridge.DepositData",
          "name": "_depositData",
          "type": "tuple"
        }
      ],
      "name": "depositWithPermit",
      "outputs": [],
      "stateMutability": "nonpayable",
      "type": "function"
    },
    {
      "inputs": [],
      "name": "getNumberOfWrappedTokens",
      "outputs": [
        {
          "internalType": "uint256",
          "name": "",
          "type": "uint256"
        }
      ],
      "stateMutability": "view",
      "type": "function"
    },
    {
      "inputs": [],
      "name": "name",
      "outputs": [
        {
          "internalType": "string",
          "name": "",
          "type": "string"
        }
      ],
      "stateMutability": "view",
      "type": "function"
    },
    {
      "inputs": [
        {
          "internalType": "address",
          "name": "_owner",
          "type": "address"
        }
      ],
      "name": "nonce",
      "outputs": [
        {
          "internalType": "uint256",
          "name": "",
          "type": "uint256"
        }
      ],
      "stateMutability": "view",
      "type": "function"
    },
    {
      "inputs": [
        {
          "internalType": "address",
          "name": "",
          "type": "address"
        }
      ],
      "name": "originalTokenByWrappedToken",
      "outputs": [
        {
          "internalType": "address",
          "name": "tokenAddress",
          "type": "address"
        },
        {
          "internalType": "uint256",
          "name": "originChainId",
          "type": "uint256"
        }
      ],
      "stateMutability": "view",
      "type": "function"
    },
    {
      "inputs": [],
      "name": "owner",
      "outputs": [
        {
          "internalType": "address",
          "name": "",
          "type": "address"
        }
      ],
      "stateMutability": "view",
      "type": "function"
    },
    {
      "inputs": [],
      "name": "pause",
      "outputs": [],
      "stateMutability": "nonpayable",
      "type": "function"
    },
    {
      "inputs": [],
      "name": "paused",
      "outputs": [
        {
          "internalType": "bool",
          "name": "",
          "type": "bool"
        }
      ],
      "stateMutability": "view",
      "type": "function"
    },
    {
      "inputs": [],
      "name": "renounceOwnership",
      "outputs": [],
      "stateMutability": "nonpayable",
      "type": "function"
    },
    {
      "inputs": [
        {
          "internalType": "address",
          "name": "newOwner",
          "type": "address"
        }
      ],
      "name": "transferOwnership",
      "outputs": [],
      "stateMutability": "nonpayable",
      "type": "function"
    },
    {
      "inputs": [],
      "name": "unpause",
      "outputs": [],
      "stateMutability": "nonpayable",
      "type": "function"
    },
    {
      "inputs": [
        {
          "internalType": "uint256",
          "name": "",
          "type": "uint256"
        },
        {
          "internalType": "address",
          "name": "",
          "type": "address"
        }
      ],
      "name": "wrappedTokenByOriginalTokenByChainId",
      "outputs": [
        {
          "internalType": "address",
          "name": "",
          "type": "address"
        }
      ],
      "stateMutability": "view",
      "type": "function"
    },
    {
      "inputs": [
        {
          "internalType": "uint256",
          "name": "",
          "type": "uint256"
        }
      ],
      "name": "wrappedTokens",
      "outputs": [
        {
          "internalType": "address",
          "name": "",
          "type": "address"
        }
      ],
      "stateMutability": "view",
      "type": "function"
    }
  ],
  "bytecode": "0x60806040523480156200001157600080fd5b506040516200419438038062004194833981016040819052620000349162000232565b6200003f336200010e565b6000805460ff60a01b19169055600180556200005a6200015e565b600262000068828262000396565b50805160208083019190912060408051808201825260018152603160f81b9084015280517f8b73c3c69bb8fe3d512ecc4cf759cc79239f7b179b0ffacaa9a75d522b39400f938101939093528201527fc89efdaa54c0f20c7adf612882df0950f5a951637e0307cdcb4c672f298b8bc660608201524660808201523060a082015260c00160408051601f1981840301815291905280516020909101206007555062000462565b600080546001600160a01b038381166001600160a01b0319831681178455604051919092169283917f8be0079c531659141344cd1fd0a4f28419497f9722a3daafe3b4186f6b6457e09190a35050565b62000168620001c1565b6000805460ff60a01b1916600160a01b1790557f62e78cea01bee320cd4e420270b5ea74000d11b0c9f74754ebdbfc544b05a258620001a43390565b6040516001600160a01b03909116815260200160405180910390a1565b620001d5600054600160a01b900460ff1690565b156200021a5760405162461bcd60e51b815260206004820152601060248201526f14185d5cd8589b194e881c185d5cd95960821b604482015260640160405180910390fd5b565b634e487b7160e01b600052604160045260246000fd5b600060208083850312156200024657600080fd5b82516001600160401b03808211156200025e57600080fd5b818501915085601f8301126200027357600080fd5b8151818111156200028857620002886200021c565b604051601f8201601f19908116603f01168101908382118183101715620002b357620002b36200021c565b816040528281528886848701011115620002cc57600080fd5b600093505b82841015620002f05784840186015181850187015292850192620002d1565b600086848301015280965050505050505092915050565b600181811c908216806200031c57607f821691505b6020821081036200033d57634e487b7160e01b600052602260045260246000fd5b50919050565b601f8211156200039157600081815260208120601f850160051c810160208610156200036c5750805b601f850160051c820191505b818110156200038d5782815560010162000378565b5050505b505050565b81516001600160401b03811115620003b257620003b26200021c565b620003ca81620003c3845462000307565b8462000343565b602080601f831160018114620004025760008415620003e95750858301515b600019600386901b1c1916600185901b1785556200038d565b600085815260208120601f198616915b82811015620004335788860151825594840194600190910190840162000412565b5085821015620004525787850151600019600388901b60f8161c191681555b5050505050600190811b01905550565b613d2280620004726000396000f3fe60806040523480156200001157600080fd5b5060043610620001515760003560e01c80635f98ba0211620000c7578063821ae2111162000086578063821ae21114620003585780638456cb5914620003805780638da5cb5b146200038a578063923540f8146200039c578063c0bd65d714620003b3578063f2fde38b14620003db57600080fd5b80635f98ba0214620002bb5780636b0509b114620002e357806370ae92d2146200030b578063715018a61462000337578063794ae4fe146200034157600080fd5b80633644e51511620001145780633644e51514620001fc5780633f4ba83a146200020657806341439c7914620002105780634233666814620002475780635c975abb146200029d57600080fd5b806305f5120e146200015657806306fdde03146200016f57806309b9c5ba146200019157806314dd14b314620001a45780631add310814620001d4575b600080fd5b6200016d6200016736600462001890565b620003f2565b005b62000179620006ac565b604051620001889190620018f4565b60405180910390f35b6006545b60405190815260200162000188565b620001bb620001b536600462001944565b62000746565b6040516001600160a01b03909116815260200162000188565b620001957f265b4089f698d180c71c21e5c5a755d17cec5ca245cab57cf1f26696020008b681565b6200019560075481565b6200016d62000771565b620001bb620002213660046200197b565b60036020908152600092835260408084209091529082529020546001600160a01b031681565b6200027d62000258366004620019aa565b600460205260009081526040902080546001909101546001600160a01b039091169082565b604080516001600160a01b03909316835260208301919091520162000188565b600054600160a01b900460ff16604051901515815260200162000188565b620001957fa24126880bed04190203d04ec4d6365915e96e5977ee3b881ec3cfafa2b71c4981565b620001957f92f0142b6bb6777332444e4f035b692e77419f18a5ee2cd84f10c07c47e1474f81565b620001956200031c366004620019aa565b6001600160a01b031660009081526005602052604090205490565b6200016d62000787565b6200016d62000352366004620019cf565b6200079d565b620001957fe896384c688095ca54bad7d2e7b660c741bd270344665ff5a1e334e0e0c9f2df81565b6200016d62000902565b6000546001600160a01b0316620001bb565b6200016d620003ad366004620019cf565b62000916565b620001957fcea59b5eccb60256d918b7a2e778f6161148c37e6dada57c32e20db10c50b63181565b6200016d620003ec366004620019aa565b62000b71565b620003fc62000bf1565b6200040662000c40565b620004156020830183620019aa565b620004276060840160408501620019aa565b6200043960c0850160a08601620019aa565b60808501356001600160a01b038416620004665760405163e6c4247b60e01b815260040160405180910390fd5b6001600160a01b0383166200048e5760405163e6c4247b60e01b815260040160405180910390fd5b6001600160a01b038216620004b65760405163e6c4247b60e01b815260040160405180910390fd5b80600003620004d857604051632160733960e01b815260040160405180910390fd5b6007546000907f92f0142b6bb6777332444e4f035b692e77419f18a5ee2cd84f10c07c47e1474f6200050a8962000c9b565b600560006200051d60208d018d620019aa565b6001600160a01b03168152602081019190915260400160009081208054916200054683620019e9565b90915550604080516020810194909452830191909152606082015260800160405160208183030381529060405280519060200120604051602001620005a292919061190160f01b81526002810192909252602282015260420190565b6040516020818303038152906040528051906020012090506000600182886000016020810190620005d4919062001a11565b604080516000815260208181018084529490945260ff90921682820152918a0135606082015290890135608082015260a0016020604051602081039080840390855afa15801562000629573d6000803e3d6000fd5b5050604051601f1901519150506001600160a01b0381166200065e5760405163e6c4247b60e01b815260040160405180910390fd5b6000546001600160a01b038281169116146200068d5760405163828d7ab360e01b815260040160405180910390fd5b620006988862000ddb565b505050505050620006a860018055565b5050565b606060028054620006bd9062001a36565b80601f0160208091040260200160405190810160405280929190818152602001828054620006eb9062001a36565b80156200073c5780601f1062000710576101008083540402835291602001916200073c565b820191906000526020600020905b8154815290600101906020018083116200071e57829003601f168201915b5050505050905090565b600681815481106200075757600080fd5b6000918252602090912001546001600160a01b0316905081565b6200077b620011aa565b6200078562001206565b565b62000791620011aa565b6200078560006200125d565b620007a762000bf1565b620007b162000c40565b620007c06020820182620019aa565b620007d26060830160408401620019aa565b620007e460c0840160a08501620019aa565b60c08401356001600160a01b038416620008115760405163e6c4247b60e01b815260040160405180910390fd5b6001600160a01b038316620008395760405163e6c4247b60e01b815260040160405180910390fd5b6001600160a01b038216620008615760405163e6c4247b60e01b815260040160405180910390fd5b806000036200088357604051632160733960e01b815260040160405180910390fd5b6200089560a0860160808701620019aa565b60608601356001600160a01b038216620008c25760405163e6c4247b60e01b815260040160405180910390fd5b80600003620008e457604051633d23e4d160e11b815260040160405180910390fd5b620008ef87620012ad565b505050505050620008ff60018055565b50565b6200090c620011aa565b62000785620014e9565b6200092062000bf1565b6200092a62000c40565b620009396020820182620019aa565b6200094b6060830160408401620019aa565b6200095d60c0840160a08501620019aa565b60c08401356001600160a01b0384166200098a5760405163e6c4247b60e01b815260040160405180910390fd5b6001600160a01b038316620009b25760405163e6c4247b60e01b815260040160405180910390fd5b6001600160a01b038216620009da5760405163e6c4247b60e01b815260040160405180910390fd5b80600003620009fc57604051632160733960e01b815260040160405180910390fd5b62000a0e60a0860160808701620019aa565b60608601356001600160a01b03821662000a3b5760405163e6c4247b60e01b815260040160405180910390fd5b8060000362000a5d57604051633d23e4d160e11b815260040160405180910390fd5b600062000a7160c0890160a08a01620019aa565b90506001600160a01b03811663d505accf62000a9160208b018b620019aa565b62000aa360a08c0160808d01620019aa565b8b60c001358c60e001358d61010001600001602081019062000ac6919062001a11565b6040516001600160e01b031960e088901b1681526001600160a01b0395861660048201529490931660248501526044840191909152606483015260ff1660848201526101208b013560a48201526101408b013560c482015260e401600060405180830381600087803b15801562000b3c57600080fd5b505af115801562000b51573d6000803e3d6000fd5b5050505062000b6088620012ad565b50505050505050620008ff60018055565b62000b7b620011aa565b6001600160a01b03811662000be65760405162461bcd60e51b815260206004820152602660248201527f4f776e61626c653a206e6577206f776e657220697320746865207a65726f206160448201526564647265737360d01b60648201526084015b60405180910390fd5b620008ff816200125d565b600054600160a01b900460ff1615620007855760405162461bcd60e51b815260206004820152601060248201526f14185d5cd8589b194e881c185d5cd95960821b604482015260640162000bdd565b60026001540362000c945760405162461bcd60e51b815260206004820152601f60248201527f5265656e7472616e637947756172643a207265656e7472616e742063616c6c00604482015260640162000bdd565b6002600155565b60007fe896384c688095ca54bad7d2e7b660c741bd270344665ff5a1e334e0e0c9f2df62000cc9836200152f565b62000cd7846040016200152f565b846080013562000cea8660a0016200158f565b62000cfd610100880160e08901620019aa565b62000d1161012089016101008a01620019aa565b62000d216101208a018a62001a6c565b60405162000d3192919062001abd565b60405190819003902062000d4a6101408b018b62001a6c565b60405162000d5a92919062001abd565b60408051918290038220602083019a909a528101979097526060870195909552608086019390935260a08501919091526001600160a01b0390811660c08501521660e083015261010082015261012081019190915261016083810135610140830152015b604051602081830303815290604052805190602001209050919050565b602081013560000362000e0157604051633d23e4d160e11b815260040160405180910390fd5b6060810135461462000e2957604051600162fac06160e01b0319815260040160405180910390fd5b600062000e3f61012083016101008401620019aa565b6001600160a01b031603620010c75760c08101803560009081526003602052604081209091829062000e759060a08601620019aa565b6001600160a01b039081168252602082019290925260400160002054160362000ff257600062000eaa61012083018362001a6c565b62000eba61014085018562001a6c565b60405162000ec89062001882565b62000ed7949392919062001af6565b604051809103906000f08015801562000ef4573d6000803e3d6000fd5b5060c08301803560009081526003602052604081209293508392839290919062000f229060a08801620019aa565b6001600160a01b0390811682526020820192909252604090810160002080546001600160a01b0319169390921692909217905580518082019091528062000f7060c0860160a08701620019aa565b6001600160a01b03908116825260c0860135602092830152928316600081815260048352604081208451815496166001600160a01b031996871617815593909201516001938401556006805493840181559091527ff652222313e28459528d920b65115c16c04f3efc82aaedc97be59f3f377c0d3f9091018054909216179055505b60c081018035600090815260036020526040812090918290620010199060a08601620019aa565b6001600160a01b0390811682526020820192909252604090810160002054909116915081906340c10f1990620010569060608601908601620019aa565b6040516001600160e01b031960e084901b1681526001600160a01b03909116600482015260808501356024820152604401600060405180830381600087803b158015620010a257600080fd5b505af1158015620010b7573d6000803e3d6000fd5b50505050620006a88282620015c1565b6000620010dd61012083016101008401620019aa565b905060006001600160a01b03821663a9059cbb620011026060860160408701620019aa565b6040516001600160e01b031960e084901b1681526001600160a01b039091166004820152608086013560248201526044016020604051808303816000875af115801562001153573d6000803e3d6000fd5b505050506040513d601f19601f8201168201806040525081019062001179919062001b2c565b9050806200119a57604051631a3a0fa560e11b815260040160405180910390fd5b620011a5836200164b565b505050565b6000546001600160a01b03163314620007855760405162461bcd60e51b815260206004820181905260248201527f4f776e61626c653a2063616c6c6572206973206e6f7420746865206f776e6572604482015260640162000bdd565b620012106200170e565b6000805460ff60a01b191690557f5db9ee0a495bf2e6ff9c91a7834c1ba4fdd244a5e8aa4e537bd38aeae4b073aa335b6040516001600160a01b03909116815260200160405180910390a1565b600080546001600160a01b038381166001600160a01b0319831681178455604051919092169283917f8be0079c531659141344cd1fd0a4f28419497f9722a3daafe3b4186f6b6457e09190a35050565b620012bc6020820182620019aa565b6001600160a01b0316336001600160a01b031614620012ee5760405163fbc132d360e01b815260040160405180910390fd5b60006200130260c0830160a08401620019aa565b905060006001600160a01b0382166323b872dd336200132860a0870160808801620019aa565b6040516001600160e01b031960e085901b1681526001600160a01b0392831660048201529116602482015260c086013560448201526064016020604051808303816000875af115801562001380573d6000803e3d6000fd5b505050506040513d601f19601f82011682018060405250810190620013a6919062001b2c565b905080620013c7576040516301c6765160e11b815260040160405180910390fd5b6000600481620013de60c0870160a08801620019aa565b6001600160a01b03908116825260208083019390935260409182016000208251808401909352805490911680835260019091015492820192909252915015801590620014d757606085013546036200144957604051631a0e22b360e11b815260040160405180910390fd5b6200145b60c0860160a08701620019aa565b604051630852cd8d60e31b815260c087013560048201526001600160a01b0391909116906342966c6890602401600060405180830381600087803b158015620014a357600080fd5b505af1158015620014b8573d6000803e3d6000fd5b50505050620014d1858360000151846020015162001760565b620014e2565b620014e285620017e4565b5050505050565b620014f362000bf1565b6000805460ff60a01b1916600160a01b1790557f62e78cea01bee320cd4e420270b5ea74000d11b0c9f74754ebdbfc544b05a258620012403390565b60007f265b4089f698d180c71c21e5c5a755d17cec5ca245cab57cf1f26696020008b6620015616020840184620019aa565b604080516020818101949094526001600160a01b039092169082015290830135606082015260800162000dbe565b60007fa24126880bed04190203d04ec4d6365915e96e5977ee3b881ec3cfafa2b71c49620015616020840184620019aa565b7e3b247d68851bd7566dc2e4fcedb803c9f42864de3ac3ca3a4480c10ddd631d816080840135620015f66020860186620019aa565b620016086060870160408801620019aa565b602087013560608801356200162460c08a0160a08b01620019aa565b6040516200163f979695949392919060c08c01359062001b50565b60405180910390a15050565b7f14ebc53bef98a089143aaebfa7feb42300412fb8eacb318e3e6333f521000e8e6200168061012083016101008401620019aa565b6080830135620016946020850185620019aa565b620016a66060860160408701620019aa565b60208601356060870135620016c3610100890160e08a01620019aa565b604080516001600160a01b0398891681526020810197909752948716948601949094529185166060850152608084015260a083015290911660c082015260e00160405180910390a150565b600054600160a01b900460ff16620007855760405162461bcd60e51b815260206004820152601460248201527314185d5cd8589b194e881b9bdd081c185d5cd95960621b604482015260640162000bdd565b7f1007c5a30d556aa881634fee3f390d56a3c45cab419a08c67c07432d06f8bcdb6200179360c0850160a08601620019aa565b60c0850135620017a76020870187620019aa565b620017b96060880160408901620019aa565b604051620017d79493929190469060608b0135908a908a9062001b50565b60405180910390a1505050565b620017f66060820160408301620019aa565b6001600160a01b03166200180e6020830183620019aa565b6001600160a01b03166200182960c0840160a08501620019aa565b6040805160c08601358152466020820152606080870135928201929092526001600160a01b0392909216917f6d31f0c03e4fdb705b56d996d8af8b7eac9e00feb148fdf166ab3f31b48ead14910160405180910390a450565b6121538062001b9a83390190565b6000808284036080811215620018a557600080fd5b833567ffffffffffffffff811115620018bd57600080fd5b84016101808187031215620018d157600080fd5b92506060601f1982011215620018e657600080fd5b506020830190509250929050565b600060208083528351808285015260005b81811015620019235785810183015185820160400152820162001905565b506000604082860101526040601f19601f8301168501019250505092915050565b6000602082840312156200195757600080fd5b5035919050565b80356001600160a01b03811681146200197657600080fd5b919050565b600080604083850312156200198f57600080fd5b82359150620019a1602084016200195e565b90509250929050565b600060208284031215620019bd57600080fd5b620019c8826200195e565b9392505050565b60006101608284031215620019e357600080fd5b50919050565b60006001820162001a0a57634e487b7160e01b600052601160045260246000fd5b5060010190565b60006020828403121562001a2457600080fd5b813560ff81168114620019c857600080fd5b600181811c9082168062001a4b57607f821691505b602082108103620019e357634e487b7160e01b600052602260045260246000fd5b6000808335601e1984360301811262001a8457600080fd5b83018035915067ffffffffffffffff82111562001aa057600080fd5b60200191503681900382131562001ab657600080fd5b9250929050565b8183823760009101908152919050565b81835281816020850137506000828201602090810191909152601f909101601f19169091010190565b60408152600062001b0c60408301868862001acd565b828103602084015262001b2181858762001acd565b979650505050505050565b60006020828403121562001b3f57600080fd5b81518015158114620019c857600080fd5b6001600160a01b039889168152602081019790975294871660408701529286166060860152608085019190915260a084015290921660c082015260e0810191909152610100019056fe60806040523480156200001157600080fd5b50604051620021533803806200215383398101604081905262000034916200039a565b81818181600562000046838262000492565b50600662000055828262000492565b50506007805460ff19169055506200006f60003362000170565b6200009b7f9f2df0fed2c77648de5860a4cc508cd0818c85b8b8a1ab4ceeef8d981c8956a63362000170565b620000c77f65d7a28e3265b37a6474929f336521b332c1681b933f6cb9f3376673440d862a3362000170565b5050815160208084019190912060408051808201825260018152603160f81b9084015280517f8b73c3c69bb8fe3d512ecc4cf759cc79239f7b179b0ffacaa9a75d522b39400f938101939093528201527fc89efdaa54c0f20c7adf612882df0950f5a951637e0307cdcb4c672f298b8bc660608201524660808201523060a082015260c0016040516020818303038152906040528051906020012060098190555050506200055e565b6200017c828262000180565b5050565b620001978282620001c360201b62000c0a1760201c565b6000828152600160209081526040909120620001be91839062000c8e62000263821b17901c565b505050565b6000828152602081815260408083206001600160a01b038516845290915290205460ff166200017c576000828152602081815260408083206001600160a01b03851684529091529020805460ff191660011790556200021f3390565b6001600160a01b0316816001600160a01b0316837f2f8788117e7eff1d82e926ec794901d17c78024a50270940304540a733656f0d60405160405180910390a45050565b60006200027a836001600160a01b03841662000283565b90505b92915050565b6000818152600183016020526040812054620002cc575081546001818101845560008481526020808220909301849055845484825282860190935260409020919091556200027d565b5060006200027d565b634e487b7160e01b600052604160045260246000fd5b600082601f830112620002fd57600080fd5b81516001600160401b03808211156200031a576200031a620002d5565b604051601f8301601f19908116603f01168101908282118183101715620003455762000345620002d5565b816040528381526020925086838588010111156200036257600080fd5b600091505b8382101562000386578582018301518183018401529082019062000367565b600093810190920192909252949350505050565b60008060408385031215620003ae57600080fd5b82516001600160401b0380821115620003c657600080fd5b620003d486838701620002eb565b93506020850151915080821115620003eb57600080fd5b50620003fa85828601620002eb565b9150509250929050565b600181811c908216806200041957607f821691505b6020821081036200043a57634e487b7160e01b600052602260045260246000fd5b50919050565b601f821115620001be57600081815260208120601f850160051c81016020861015620004695750805b601f850160051c820191505b818110156200048a5782815560010162000475565b505050505050565b81516001600160401b03811115620004ae57620004ae620002d5565b620004c681620004bf845462000404565b8462000440565b602080601f831160018114620004fe5760008415620004e55750858301515b600019600386901b1c1916600185901b1785556200048a565b600085815260208120601f198616915b828110156200052f578886015182559484019460019091019084016200050e565b50858210156200054e5787850151600019600388901b60f8161c191681555b5050505050600190811b01905550565b611be5806200056e6000396000f3fe608060405234801561001057600080fd5b50600436106101f05760003560e01c806370a082311161010f578063a457c2d7116100a2578063d539139311610071578063d539139314610447578063d547741f1461046e578063dd62ed3e14610481578063e63ab1e91461049457600080fd5b8063a457c2d7146103fb578063a9059cbb1461040e578063ca15c87314610421578063d505accf1461043457600080fd5b80639010d07c116100de5780639010d07c146103ad57806391d14854146103d857806395d89b41146103eb578063a217fddf146103f357600080fd5b806370a082311461034057806379cc6790146103695780637ecebe001461037c5780638456cb59146103a557600080fd5b8063313ce567116101875780633f4ba83a116101565780633f4ba83a1461030757806340c10f191461030f57806342966c68146103225780635c975abb1461033557600080fd5b8063313ce567146102c95780633644e515146102d857806336568abe146102e157806339509351146102f457600080fd5b806323b872dd116101c357806323b872dd14610257578063248a9ca31461026a5780632f2ff15d1461028d57806330adf81f146102a257600080fd5b806301ffc9a7146101f557806306fdde031461021d578063095ea7b31461023257806318160ddd14610245575b600080fd5b610208610203366004611819565b6104bb565b60405190151581526020015b60405180910390f35b6102256104e6565b6040516102149190611867565b6102086102403660046118b6565b610578565b6004545b604051908152602001610214565b6102086102653660046118e0565b610590565b61024961027836600461191c565b60009081526020819052604090206001015490565b6102a061029b366004611935565b6105b4565b005b6102497f6e71edae12b1b97f4d1f60370fef10105fa2faae0126114a169c64845d6126c981565b60405160128152602001610214565b61024960095481565b6102a06102ef366004611935565b6105de565b6102086103023660046118b6565b610661565b6102a0610683565b6102a061031d3660046118b6565b610729565b6102a061033036600461191c565b6107c8565b60075460ff16610208565b61024961034e366004611961565b6001600160a01b031660009081526002602052604090205490565b6102a06103773660046118b6565b6107d5565b61024961038a366004611961565b6001600160a01b031660009081526008602052604090205490565b6102a06107ea565b6103c06103bb36600461197c565b61088e565b6040516001600160a01b039091168152602001610214565b6102086103e6366004611935565b6108ad565b6102256108d6565b610249600081565b6102086104093660046118b6565b6108e5565b61020861041c3660046118b6565b610960565b61024961042f36600461191c565b61096e565b6102a061044236600461199e565b610985565b6102497f9f2df0fed2c77648de5860a4cc508cd0818c85b8b8a1ab4ceeef8d981c8956a681565b6102a061047c366004611935565b610bba565b61024961048f366004611a11565b610bdf565b6102497f65d7a28e3265b37a6474929f336521b332c1681b933f6cb9f3376673440d862a81565b60006001600160e01b03198216635a05180f60e01b14806104e057506104e082610ca3565b92915050565b6060600580546104f590611a3b565b80601f016020809104026020016040519081016040528092919081815260200182805461052190611a3b565b801561056e5780601f106105435761010080835404028352916020019161056e565b820191906000526020600020905b81548152906001019060200180831161055157829003601f168201915b5050505050905090565b600033610586818585610cd8565b5060019392505050565b60003361059e858285610dfc565b6105a9858585610e76565b506001949350505050565b6000828152602081905260409020600101546105cf8161102c565b6105d98383611036565b505050565b6001600160a01b03811633146106535760405162461bcd60e51b815260206004820152602f60248201527f416363657373436f6e74726f6c3a2063616e206f6e6c792072656e6f756e636560448201526e103937b632b9903337b91039b2b63360891b60648201526084015b60405180910390fd5b61065d8282611058565b5050565b6000336105868185856106748383610bdf565b61067e9190611a8b565b610cd8565b6106ad7f65d7a28e3265b37a6474929f336521b332c1681b933f6cb9f3376673440d862a336108ad565b61071f5760405162461bcd60e51b815260206004820152603960248201527f45524332305072657365744d696e7465725061757365723a206d75737420686160448201527f76652070617573657220726f6c6520746f20756e706175736500000000000000606482015260840161064a565b61072761107a565b565b6107537f9f2df0fed2c77648de5860a4cc508cd0818c85b8b8a1ab4ceeef8d981c8956a6336108ad565b6107be5760405162461bcd60e51b815260206004820152603660248201527f45524332305072657365744d696e7465725061757365723a206d7573742068616044820152751d99481b5a5b9d195c881c9bdb19481d1bc81b5a5b9d60521b606482015260840161064a565b61065d82826110cc565b6107d23382611199565b50565b6107e0823383610dfc565b61065d8282611199565b6108147f65d7a28e3265b37a6474929f336521b332c1681b933f6cb9f3376673440d862a336108ad565b6108865760405162461bcd60e51b815260206004820152603760248201527f45524332305072657365744d696e7465725061757365723a206d75737420686160448201527f76652070617573657220726f6c6520746f207061757365000000000000000000606482015260840161064a565b6107276112d9565b60008281526001602052604081206108a69083611316565b9392505050565b6000918252602082815260408084206001600160a01b0393909316845291905290205460ff1690565b6060600680546104f590611a3b565b600033816108f38286610bdf565b9050838110156109535760405162461bcd60e51b815260206004820152602560248201527f45524332303a2064656372656173656420616c6c6f77616e63652062656c6f77604482015264207a65726f60d81b606482015260840161064a565b6105a98286868403610cd8565b600033610586818585610e76565b60008181526001602052604081206104e090611322565b428410156109e05760405162461bcd60e51b815260206004820152602260248201527f4552433230576974685065726d69743a20455850495245445f5349474e415455604482015261524560f01b606482015260840161064a565b6009546001600160a01b038816600090815260086020526040812080549192917f6e71edae12b1b97f4d1f60370fef10105fa2faae0126114a169c64845d6126c9918b918b918b919087610a3383611a9e565b909155506040805160208101969096526001600160a01b0394851690860152929091166060840152608083015260a082015260c0810187905260e00160405160208183030381529060405280519060200120604051602001610aac92919061190160f01b81526002810192909252602282015260420190565b60408051601f198184030181528282528051602091820120600080855291840180845281905260ff88169284019290925260608301869052608083018590529092509060019060a0016020604051602081039080840390855afa158015610b17573d6000803e3d6000fd5b5050604051601f1901519150506001600160a01b03811615801590610b4d5750886001600160a01b0316816001600160a01b0316145b610ba45760405162461bcd60e51b815260206004820152602260248201527f4552433230576974685065726d69743a20494e56414c49445f5349474e415455604482015261524560f01b606482015260840161064a565b610baf898989610cd8565b505050505050505050565b600082815260208190526040902060010154610bd58161102c565b6105d98383611058565b6001600160a01b03918216600090815260036020908152604080832093909416825291909152205490565b610c1482826108ad565b61065d576000828152602081815260408083206001600160a01b03851684529091529020805460ff19166001179055610c4a3390565b6001600160a01b0316816001600160a01b0316837f2f8788117e7eff1d82e926ec794901d17c78024a50270940304540a733656f0d60405160405180910390a45050565b60006108a6836001600160a01b03841661132c565b60006001600160e01b03198216637965db0b60e01b14806104e057506301ffc9a760e01b6001600160e01b03198316146104e0565b6001600160a01b038316610d3a5760405162461bcd60e51b8152602060048201526024808201527f45524332303a20617070726f76652066726f6d20746865207a65726f206164646044820152637265737360e01b606482015260840161064a565b6001600160a01b038216610d9b5760405162461bcd60e51b815260206004820152602260248201527f45524332303a20617070726f766520746f20746865207a65726f206164647265604482015261737360f01b606482015260840161064a565b6001600160a01b0383811660008181526003602090815260408083209487168084529482529182902085905590518481527f8c5be1e5ebec7d5bd14f71427d1e84f3dd0314c0f7b2291e5b200ac8c7c3b925910160405180910390a3505050565b6000610e088484610bdf565b90506000198114610e705781811015610e635760405162461bcd60e51b815260206004820152601d60248201527f45524332303a20696e73756666696369656e7420616c6c6f77616e6365000000604482015260640161064a565b610e708484848403610cd8565b50505050565b6001600160a01b038316610eda5760405162461bcd60e51b815260206004820152602560248201527f45524332303a207472616e736665722066726f6d20746865207a65726f206164604482015264647265737360d81b606482015260840161064a565b6001600160a01b038216610f3c5760405162461bcd60e51b815260206004820152602360248201527f45524332303a207472616e7366657220746f20746865207a65726f206164647260448201526265737360e81b606482015260840161064a565b610f4783838361137b565b6001600160a01b03831660009081526002602052604090205481811015610fbf5760405162461bcd60e51b815260206004820152602660248201527f45524332303a207472616e7366657220616d6f756e7420657863656564732062604482015265616c616e636560d01b606482015260840161064a565b6001600160a01b0380851660008181526002602052604080822086860390559286168082529083902080548601905591517fddf252ad1be2c89b69c2b068fc378daa952ba7f163c4a11628f55a4df523b3ef9061101f9086815260200190565b60405180910390a3610e70565b6107d28133611386565b6110408282610c0a565b60008281526001602052604090206105d99082610c8e565b61106282826113df565b60008281526001602052604090206105d99082611444565b611082611459565b6007805460ff191690557f5db9ee0a495bf2e6ff9c91a7834c1ba4fdd244a5e8aa4e537bd38aeae4b073aa335b6040516001600160a01b03909116815260200160405180910390a1565b6001600160a01b0382166111225760405162461bcd60e51b815260206004820152601f60248201527f45524332303a206d696e7420746f20746865207a65726f206164647265737300604482015260640161064a565b61112e6000838361137b565b80600460008282546111409190611a8b565b90915550506001600160a01b0382166000818152600260209081526040808320805486019055518481527fddf252ad1be2c89b69c2b068fc378daa952ba7f163c4a11628f55a4df523b3ef910160405180910390a35050565b6001600160a01b0382166111f95760405162461bcd60e51b815260206004820152602160248201527f45524332303a206275726e2066726f6d20746865207a65726f206164647265736044820152607360f81b606482015260840161064a565b6112058260008361137b565b6001600160a01b038216600090815260026020526040902054818110156112795760405162461bcd60e51b815260206004820152602260248201527f45524332303a206275726e20616d6f756e7420657863656564732062616c616e604482015261636560f01b606482015260840161064a565b6001600160a01b03831660008181526002602090815260408083208686039055600480548790039055518581529192917fddf252ad1be2c89b69c2b068fc378daa952ba7f163c4a11628f55a4df523b3ef910160405180910390a3505050565b6112e16114a2565b6007805460ff191660011790557f62e78cea01bee320cd4e420270b5ea74000d11b0c9f74754ebdbfc544b05a2586110af3390565b60006108a683836114e8565b60006104e0825490565b6000818152600183016020526040812054611373575081546001818101845560008481526020808220909301849055845484825282860190935260409020919091556104e0565b5060006104e0565b6105d9838383611512565b61139082826108ad565b61065d5761139d81611578565b6113a883602061158a565b6040516020016113b9929190611ab7565b60408051601f198184030181529082905262461bcd60e51b825261064a91600401611867565b6113e982826108ad565b1561065d576000828152602081815260408083206001600160a01b0385168085529252808320805460ff1916905551339285917ff6391f5c32d9c69d2a47ea670b442974b53935d1edc7fd64eb21e047a839171b9190a45050565b60006108a6836001600160a01b038416611726565b60075460ff166107275760405162461bcd60e51b815260206004820152601460248201527314185d5cd8589b194e881b9bdd081c185d5cd95960621b604482015260640161064a565b60075460ff16156107275760405162461bcd60e51b815260206004820152601060248201526f14185d5cd8589b194e881c185d5cd95960821b604482015260640161064a565b60008260000182815481106114ff576114ff611b2c565b9060005260206000200154905092915050565b60075460ff16156105d95760405162461bcd60e51b815260206004820152602a60248201527f45524332305061757361626c653a20746f6b656e207472616e736665722077686044820152691a5b19481c185d5cd95960b21b606482015260840161064a565b60606104e06001600160a01b03831660145b60606000611599836002611b42565b6115a4906002611a8b565b67ffffffffffffffff8111156115bc576115bc611b59565b6040519080825280601f01601f1916602001820160405280156115e6576020820181803683370190505b509050600360fc1b8160008151811061160157611601611b2c565b60200101906001600160f81b031916908160001a905350600f60fb1b8160018151811061163057611630611b2c565b60200101906001600160f81b031916908160001a9053506000611654846002611b42565b61165f906001611a8b565b90505b60018111156116d7576f181899199a1a9b1b9c1cb0b131b232b360811b85600f166010811061169357611693611b2c565b1a60f81b8282815181106116a9576116a9611b2c565b60200101906001600160f81b031916908160001a90535060049490941c936116d081611b6f565b9050611662565b5083156108a65760405162461bcd60e51b815260206004820181905260248201527f537472696e67733a20686578206c656e67746820696e73756666696369656e74604482015260640161064a565b6000818152600183016020526040812054801561180f57600061174a600183611b86565b855490915060009061175e90600190611b86565b90508181146117c357600086600001828154811061177e5761177e611b2c565b90600052602060002001549050808760000184815481106117a1576117a1611b2c565b6000918252602080832090910192909255918252600188019052604090208390555b85548690806117d4576117d4611b99565b6001900381819060005260206000200160009055905585600101600086815260200190815260200160002060009055600193505050506104e0565b60009150506104e0565b60006020828403121561182b57600080fd5b81356001600160e01b0319811681146108a657600080fd5b60005b8381101561185e578181015183820152602001611846565b50506000910152565b6020815260008251806020840152611886816040850160208701611843565b601f01601f19169190910160400192915050565b80356001600160a01b03811681146118b157600080fd5b919050565b600080604083850312156118c957600080fd5b6118d28361189a565b946020939093013593505050565b6000806000606084860312156118f557600080fd5b6118fe8461189a565b925061190c6020850161189a565b9150604084013590509250925092565b60006020828403121561192e57600080fd5b5035919050565b6000806040838503121561194857600080fd5b823591506119586020840161189a565b90509250929050565b60006020828403121561197357600080fd5b6108a68261189a565b6000806040838503121561198f57600080fd5b50508035926020909101359150565b600080600080600080600060e0888a0312156119b957600080fd5b6119c28861189a565b96506119d06020890161189a565b95506040880135945060608801359350608088013560ff811681146119f457600080fd5b9699959850939692959460a0840135945060c09093013592915050565b60008060408385031215611a2457600080fd5b611a2d8361189a565b91506119586020840161189a565b600181811c90821680611a4f57607f821691505b602082108103611a6f57634e487b7160e01b600052602260045260246000fd5b50919050565b634e487b7160e01b600052601160045260246000fd5b808201808211156104e0576104e0611a75565b600060018201611ab057611ab0611a75565b5060010190565b7f416363657373436f6e74726f6c3a206163636f756e7420000000000000000000815260008351611aef816017850160208801611843565b7001034b99036b4b9b9b4b733903937b6329607d1b6017918401918201528351611b20816028840160208801611843565b01602801949350505050565b634e487b7160e01b600052603260045260246000fd5b80820281158282048414176104e0576104e0611a75565b634e487b7160e01b600052604160045260246000fd5b600081611b7e57611b7e611a75565b506000190190565b818103818111156104e0576104e0611a75565b634e487b7160e01b600052603160045260246000fdfea2646970667358221220851c01690a9fd31b9bf22b0274a02062fee53587f320d5a17d3ee73ddb851c4b64736f6c63430008110033a26469706673582212200ccd06a7d7d67ded292472d9690ae4620142e696e9b90be31188f3529c84a9e864736f6c63430008110033",
  "linkReferences": {},
  "deployedLinkReferences": {}
}