{
  "_format": "hh-sol-artifact-1",
  "contractName": "PermitERC20",
  "sourceName": "contracts/PermitERC20.sol",
  "abi": [
    {
      "inputs": [
        {
          "internalType": "string",
          "name": "_name",
          "type": "string"
        },
        {
          "internalType": "string",
          "name": "_symbol",
          "type": "string"
        }
      ],
      "stateMutability": "nonpayable",
      "type": "constructor"
    },
    {
      "anonymous": false,
      "inputs": [
        {
          "indexed": true,
          "internalType": "address",
          "name": "owner",
          "type": "address"
        },
        {
          "indexed": true,
          "internalType": "address",
          "name": "spender",
          "type": "address"
        },
        {
          "indexed": false,
          "internalType": "uint256",
          "name": "value",
          "type": "uint256"
        }
      ],
      "name": "Approval",
      "type": "event"
    },
    {
      "anonymous": false,
      "inputs": [
        {
          "indexed": false,
          "internalType": "address",
          "name": "account",
          "type": "address"
        }
      ],
      "name": "Paused",
      "type": "event"
    },
    {
      "anonymous": false,
      "inputs": [
        {
          "indexed": true,
          "internalType": "bytes32",
          "name": "role",
          "type": "bytes32"
        },
        {
          "indexed": true,
          "internalType": "bytes32",
          "name": "previousAdminRole",
          "type": "bytes32"
        },
        {
          "indexed": true,
          "internalType": "bytes32",
          "name": "newAdminRole",
          "type": "bytes32"
        }
      ],
      "name": "RoleAdminChanged",
      "type": "event"
    },
    {
      "anonymous": false,
      "inputs": [
        {
          "indexed": true,
          "internalType": "bytes32",
          "name": "role",
          "type": "bytes32"
        },
        {
          "indexed": true,
          "internalType": "address",
          "name": "account",
          "type": "address"
        },
        {
          "indexed": true,
          "internalType": "address",
          "name": "sender",
          "type": "address"
        }
      ],
      "name": "RoleGranted",
      "type": "event"
    },
    {
      "anonymous": false,
      "inputs": [
        {
          "indexed": true,
          "internalType": "bytes32",
          "name": "role",
          "type": "bytes32"
        },
        {
          "indexed": true,
          "internalType": "address",
          "name": "account",
          "type": "address"
        },
        {
          "indexed": true,
          "internalType": "address",
          "name": "sender",
          "type": "address"
        }
      ],
      "name": "RoleRevoked",
      "type": "event"
    },
    {
      "anonymous": false,
      "inputs": [
        {
          "indexed": true,
          "internalType": "address",
          "name": "from",
          "type": "address"
        },
        {
          "indexed": true,
          "internalType": "address",
          "name": "to",
          "type": "address"
        },
        {
          "indexed": false,
          "internalType": "uint256",
          "name": "value",
          "type": "uint256"
        }
      ],
      "name": "Transfer",
      "type": "event"
    },
    {
      "anonymous": false,
      "inputs": [
        {
          "indexed": false,
          "internalType": "address",
          "name": "account",
          "type": "address"
        }
      ],
      "name": "Unpaused",
      "type": "event"
    },
    {
      "inputs": [],
      "name": "DEFAULT_ADMIN_ROLE",
      "outputs": [
        {
          "internalType": "bytes32",
          "name": "",
          "type": "bytes32"
        }
      ],
      "stateMutability": "view",
      "type": "function"
    },
    {
      "inputs": [],
      "name": "DOMAIN_SEPARATOR",
      "outputs": [
        {
          "internalType": "bytes32",
          "name": "",
          "type": "bytes32"
        }
      ],
      "stateMutability": "view",
      "type": "function"
    },
    {
      "inputs": [],
      "name": "MINTER_ROLE",
      "outputs": [
        {
          "internalType": "bytes32",
          "name": "",
          "type": "bytes32"
        }
      ],
      "stateMutability": "view",
      "type": "function"
    },
    {
      "inputs": [],
      "name": "PAUSER_ROLE",
      "outputs": [
        {
          "internalType": "bytes32",
          "name": "",
          "type": "bytes32"
        }
      ],
      "stateMutability": "view",
      "type": "function"
    },
    {
      "inputs": [],
      "name": "PERMIT_TYPEHASH",
      "outputs": [
        {
          "internalType": "bytes32",
          "name": "",
          "type": "bytes32"
        }
      ],
      "stateMutability": "view",
      "type": "function"
    },
    {
      "inputs": [
        {
          "internalType": "address",
          "name": "owner",
          "type": "address"
        },
        {
          "internalType": "address",
          "name": "spender",
          "type": "address"
        }
      ],
      "name": "allowance",
      "outputs": [
        {
          "internalType": "uint256",
          "name": "",
          "type": "uint256"
        }
      ],
      "stateMutability": "view",
      "type": "function"
    },
    {
      "inputs": [
        {
          "internalType": "address",
          "name": "spender",
          "type": "address"
        },
        {
          "internalType": "uint256",
          "name": "amount",
          "type": "uint256"
        }
      ],
      "name": "approve",
      "outputs": [
        {
          "internalType": "bool",
          "name": "",
          "type": "bool"
        }
      ],
      "stateMutability": "nonpayable",
      "type": "function"
    },
    {
      "inputs": [
        {
          "internalType": "address",
          "name": "account",
          "type": "address"
        }
      ],
      "name": "balanceOf",
      "outputs": [
        {
          "internalType": "uint256",
          "name": "",
          "type": "uint256"
        }
      ],
      "stateMutability": "view",
      "type": "function"
    },
    {
      "inputs": [
        {
          "internalType": "uint256",
          "name": "amount",
          "type": "uint256"
        }
      ],
      "name": "burn",
      "outputs": [],
      "stateMutability": "nonpayable",
      "type": "function"
    },
    {
      "inputs": [
        {
          "internalType": "address",
          "name": "account",
          "type": "address"
        },
        {
          "internalType": "uint256",
          "name": "amount",
          "type": "uint256"
        }
      ],
      "name": "burnFrom",
      "outputs": [],
      "stateMutability": "nonpayable",
      "type": "function"
    },
    {
      "inputs": [],
      "name": "decimals",
      "outputs": [
        {
          "internalType": "uint8",
          "name": "",
          "type": "uint8"
        }
      ],
      "stateMutability": "view",
      "type": "function"
    },
    {
      "inputs": [
        {
          "internalType": "address",
          "name": "spender",
          "type": "address"
        },
        {
          "internalType": "uint256",
          "name": "subtractedValue",
          "type": "uint256"
        }
      ],
      "name": "decreaseAllowance",
      "outputs": [
        {
          "internalType": "bool",
          "name": "",
          "type": "bool"
        }
      ],
      "stateMutability": "nonpayable",
      "type": "function"
    },
    {
      "inputs": [
        {
          "internalType": "bytes32",
          "name": "role",
          "type": "bytes32"
        }
      ],
      "name": "getRoleAdmin",
      "outputs": [
        {
          "internalType": "bytes32",
          "name": "",
          "type": "bytes32"
        }
      ],
      "stateMutability": "view",
      "type": "function"
    },
    {
      "inputs": [
        {
          "internalType": "bytes32",
          "name": "role",
          "type": "bytes32"
        },
        {
          "internalType": "uint256",
          "name": "index",
          "type": "uint256"
        }
      ],
      "name": "getRoleMember",
      "outputs": [
        {
          "internalType": "address",
          "name": "",
          "type": "address"
        }
      ],
      "stateMutability": "view",
      "type": "function"
    },
    {
      "inputs": [
        {
          "internalType": "bytes32",
          "name": "role",
          "type": "bytes32"
        }
      ],
      "name": "getRoleMemberCount",
      "outputs": [
        {
          "internalType": "uint256",
          "name": "",
          "type": "uint256"
        }
      ],
      "stateMutability": "view",
      "type": "function"
    },
    {
      "inputs": [
        {
          "internalType": "bytes32",
          "name": "role",
          "type": "bytes32"
        },
        {
          "internalType": "address",
          "name": "account",
          "type": "address"
        }
      ],
      "name": "grantRole",
      "outputs": [],
      "stateMutability": "nonpayable",
      "type": "function"
    },
    {
      "inputs": [
        {
          "internalType": "bytes32",
          "name": "role",
          "type": "bytes32"
        },
        {
          "internalType": "address",
          "name": "account",
          "type": "address"
        }
      ],
      "name": "hasRole",
      "outputs": [
        {
          "internalType": "bool",
          "name": "",
          "type": "bool"
        }
      ],
      "stateMutability": "view",
      "type": "function"
    },
    {
      "inputs": [
        {
          "internalType": "address",
          "name": "spender",
          "type": "address"
        },
        {
          "internalType": "uint256",
          "name": "addedValue",
          "type": "uint256"
        }
      ],
      "name": "increaseAllowance",
      "outputs": [
        {
          "internalType": "bool",
          "name": "",
          "type": "bool"
        }
      ],
      "stateMutability": "nonpayable",
      "type": "function"
    },
    {
      "inputs": [
        {
          "internalType": "address",
          "name": "to",
          "type": "address"
        },
        {
          "internalType": "uint256",
          "name": "amount",
          "type": "uint256"
        }
      ],
      "name": "mint",
      "outputs": [],
      "stateMutability": "nonpayable",
      "type": "function"
    },
    {
      "inputs": [],
      "name": "name",
      "outputs": [
        {
          "internalType": "string",
          "name": "",
          "type": "string"
        }
      ],
      "stateMutability": "view",
      "type": "function"
    },
    {
      "inputs": [
        {
          "internalType": "address",
          "name": "owner",
          "type": "address"
        }
      ],
      "name": "nonces",
      "outputs": [
        {
          "internalType": "uint256",
          "name": "",
          "type": "uint256"
        }
      ],
      "stateMutability": "view",
      "type": "function"
    },
    {
      "inputs": [],
      "name": "pause",
      "outputs": [],
      "stateMutability": "nonpayable",
      "type": "function"
    },
    {
      "inputs": [],
      "name": "paused",
      "outputs": [
        {
          "internalType": "bool",
          "name": "",
          "type": "bool"
        }
      ],
      "stateMutability": "view",
      "type": "function"
    },
    {
      "inputs": [
        {
          "internalType": "address",
          "name": "owner",
          "type": "address"
        },
        {
          "internalType": "address",
          "name": "spender",
          "type": "address"
        },
        {
          "internalType": "uint256",
          "name": "value",
          "type": "uint256"
        },
        {
          "internalType": "uint256",
          "name": "deadline",
          "type": "uint256"
        },
        {
          "internalType": "uint8",
          "name": "v",
          "type": "uint8"
        },
        {
          "internalType": "bytes32",
          "name": "r",
          "type": "bytes32"
        },
        {
          "internalType": "bytes32",
          "name": "s",
          "type": "bytes32"
        }
      ],
      "name": "permit",
      "outputs": [],
      "stateMutability": "nonpayable",
      "type": "function"
    },
    {
      "inputs": [
        {
          "internalType": "bytes32",
          "name": "role",
          "type": "bytes32"
        },
        {
          "internalType": "address",
          "name": "account",
          "type": "address"
        }
      ],
      "name": "renounceRole",
      "outputs": [],
      "stateMutability": "nonpayable",
      "type": "function"
    },
    {
      "inputs": [
        {
          "internalType": "bytes32",
          "name": "role",
          "type": "bytes32"
        },
        {
          "internalType": "address",
          "name": "account",
          "type": "address"
        }
      ],
      "name": "revokeRole",
      "outputs": [],
      "stateMutability": "nonpayable",
      "type": "function"
    },
    {
      "inputs": [
        {
          "internalType": "bytes4",
          "name": "interfaceId",
          "type": "bytes4"
        }
      ],
      "name": "supportsInterface",
      "outputs": [
        {
          "internalType": "bool",
          "name": "",
          "type": "bool"
        }
      ],
      "stateMutability": "view",
      "type": "function"
    },
    {
      "inputs": [],
      "name": "symbol",
      "outputs": [
        {
          "internalType": "string",
          "name": "",
          "type": "string"
        }
      ],
      "stateMutability": "view",
      "type": "function"
    },
    {
      "inputs": [],
      "name": "totalSupply",
      "outputs": [
        {
          "internalType": "uint256",
          "name": "",
          "type": "uint256"
        }
      ],
      "stateMutability": "view",
      "type": "function"
    },
    {
      "inputs": [
        {
          "internalType": "address",
          "name": "to",
          "type": "address"
        },
        {
          "internalType": "uint256",
          "name": "amount",
          "type": "uint256"
        }
      ],
      "name": "transfer",
      "outputs": [
        {
          "internalType": "bool",
          "name": "",
          "type": "bool"
        }
      ],
      "stateMutability": "nonpayable",
      "type": "function"
    },
    {
      "inputs": [
        {
          "internalType": "address",
          "name": "from",
          "type": "address"
        },
        {
          "internalType": "address",
          "name": "to",
          "type": "address"
        },
        {
          "internalType": "uint256",
          "name": "amount",
          "type": "uint256"
        }
      ],
      "name": "transferFrom",
      "outputs": [
        {
          "internalType": "bool",
          "name": "",
          "type": "bool"
        }
      ],
      "stateMutability": "nonpayable",
      "type": "function"
    },
    {
      "inputs": [],
      "name": "unpause",
      "outputs": [],
      "stateMutability": "nonpayable",
      "type": "function"
    }
  ],
  "bytecode": "0x60806040523480156200001157600080fd5b50604051620021533803806200215383398101604081905262000034916200039a565b81818181600562000046838262000492565b50600662000055828262000492565b50506007805460ff19169055506200006f60003362000170565b6200009b7f9f2df0fed2c77648de5860a4cc508cd0818c85b8b8a1ab4ceeef8d981c8956a63362000170565b620000c77f65d7a28e3265b37a6474929f336521b332c1681b933f6cb9f3376673440d862a3362000170565b5050815160208084019190912060408051808201825260018152603160f81b9084015280517f8b73c3c69bb8fe3d512ecc4cf759cc79239f7b179b0ffacaa9a75d522b39400f938101939093528201527fc89efdaa54c0f20c7adf612882df0950f5a951637e0307cdcb4c672f298b8bc660608201524660808201523060a082015260c0016040516020818303038152906040528051906020012060098190555050506200055e565b6200017c828262000180565b5050565b620001978282620001c360201b62000c0a1760201c565b6000828152600160209081526040909120620001be91839062000c8e62000263821b17901c565b505050565b6000828152602081815260408083206001600160a01b038516845290915290205460ff166200017c576000828152602081815260408083206001600160a01b03851684529091529020805460ff191660011790556200021f3390565b6001600160a01b0316816001600160a01b0316837f2f8788117e7eff1d82e926ec794901d17c78024a50270940304540a733656f0d60405160405180910390a45050565b60006200027a836001600160a01b03841662000283565b90505b92915050565b6000818152600183016020526040812054620002cc575081546001818101845560008481526020808220909301849055845484825282860190935260409020919091556200027d565b5060006200027d565b634e487b7160e01b600052604160045260246000fd5b600082601f830112620002fd57600080fd5b81516001600160401b03808211156200031a576200031a620002d5565b604051601f8301601f19908116603f01168101908282118183101715620003455762000345620002d5565b816040528381526020925086838588010111156200036257600080fd5b600091505b8382101562000386578582018301518183018401529082019062000367565b600093810190920192909252949350505050565b60008060408385031215620003ae57600080fd5b82516001600160401b0380821115620003c657600080fd5b620003d486838701620002eb565b93506020850151915080821115620003eb57600080fd5b50620003fa85828601620002eb565b9150509250929050565b600181811c908216806200041957607f821691505b6020821081036200043a57634e487b7160e01b600052602260045260246000fd5b50919050565b601f821115620001be57600081815260208120601f850160051c81016020861015620004695750805b601f850160051c820191505b818110156200048a5782815560010162000475565b505050505050565b81516001600160401b03811115620004ae57620004ae620002d5565b620004c681620004bf845462000404565b8462000440565b602080601f831160018114620004fe5760008415620004e55750858301515b600019600386901b1c1916600185901b1785556200048a565b600085815260208120601f198616915b828110156200052f578886015182559484019460019091019084016200050e565b50858210156200054e5787850151600019600388901b60f8161c191681555b5050505050600190811b01905550565b611be5806200056e6000396000f3fe608060405234801561001057600080fd5b50600436106101f05760003560e01c806370a082311161010f578063a457c2d7116100a2578063d539139311610071578063d539139314610447578063d547741f1461046e578063dd62ed3e14610481578063e63ab1e91461049457600080fd5b8063a457c2d7146103fb578063a9059cbb1461040e578063ca15c87314610421578063d505accf1461043457600080fd5b80639010d07c116100de5780639010d07c146103ad57806391d14854146103d857806395d89b41146103eb578063a217fddf146103f357600080fd5b806370a082311461034057806379cc6790146103695780637ecebe001461037c5780638456cb59146103a557600080fd5b8063313ce567116101875780633f4ba83a116101565780633f4ba83a1461030757806340c10f191461030f57806342966c68146103225780635c975abb1461033557600080fd5b8063313ce567146102c95780633644e515146102d857806336568abe146102e157806339509351146102f457600080fd5b806323b872dd116101c357806323b872dd14610257578063248a9ca31461026a5780632f2ff15d1461028d57806330adf81f146102a257600080fd5b806301ffc9a7146101f557806306fdde031461021d578063095ea7b31461023257806318160ddd14610245575b600080fd5b610208610203366004611819565b6104bb565b60405190151581526020015b60405180910390f35b6102256104e6565b6040516102149190611867565b6102086102403660046118b6565b610578565b6004545b604051908152602001610214565b6102086102653660046118e0565b610590565b61024961027836600461191c565b60009081526020819052604090206001015490565b6102a061029b366004611935565b6105b4565b005b6102497f6e71edae12b1b97f4d1f60370fef10105fa2faae0126114a169c64845d6126c981565b60405160128152602001610214565b61024960095481565b6102a06102ef366004611935565b6105de565b6102086103023660046118b6565b610661565b6102a0610683565b6102a061031d3660046118b6565b610729565b6102a061033036600461191c565b6107c8565b60075460ff16610208565b61024961034e366004611961565b6001600160a01b031660009081526002602052604090205490565b6102a06103773660046118b6565b6107d5565b61024961038a366004611961565b6001600160a01b031660009081526008602052604090205490565b6102a06107ea565b6103c06103bb36600461197c565b61088e565b6040516001600160a01b039091168152602001610214565b6102086103e6366004611935565b6108ad565b6102256108d6565b610249600081565b6102086104093660046118b6565b6108e5565b61020861041c3660046118b6565b610960565b61024961042f36600461191c565b61096e565b6102a061044236600461199e565b610985565b6102497f9f2df0fed2c77648de5860a4cc508cd0818c85b8b8a1ab4ceeef8d981c8956a681565b6102a061047c366004611935565b610bba565b61024961048f366004611a11565b610bdf565b6102497f65d7a28e3265b37a6474929f336521b332c1681b933f6cb9f3376673440d862a81565b60006001600160e01b03198216635a05180f60e01b14806104e057506104e082610ca3565b92915050565b6060600580546104f590611a3b565b80601f016020809104026020016040519081016040528092919081815260200182805461052190611a3b565b801561056e5780601f106105435761010080835404028352916020019161056e565b820191906000526020600020905b81548152906001019060200180831161055157829003601f168201915b5050505050905090565b600033610586818585610cd8565b5060019392505050565b60003361059e858285610dfc565b6105a9858585610e76565b506001949350505050565b6000828152602081905260409020600101546105cf8161102c565b6105d98383611036565b505050565b6001600160a01b03811633146106535760405162461bcd60e51b815260206004820152602f60248201527f416363657373436f6e74726f6c3a2063616e206f6e6c792072656e6f756e636560448201526e103937b632b9903337b91039b2b63360891b60648201526084015b60405180910390fd5b61065d8282611058565b5050565b6000336105868185856106748383610bdf565b61067e9190611a8b565b610cd8565b6106ad7f65d7a28e3265b37a6474929f336521b332c1681b933f6cb9f3376673440d862a336108ad565b61071f5760405162461bcd60e51b815260206004820152603960248201527f45524332305072657365744d696e7465725061757365723a206d75737420686160448201527f76652070617573657220726f6c6520746f20756e706175736500000000000000606482015260840161064a565b61072761107a565b565b6107537f9f2df0fed2c77648de5860a4cc508cd0818c85b8b8a1ab4ceeef8d981c8956a6336108ad565b6107be5760405162461bcd60e51b815260206004820152603660248201527f45524332305072657365744d696e7465725061757365723a206d7573742068616044820152751d99481b5a5b9d195c881c9bdb19481d1bc81b5a5b9d60521b606482015260840161064a565b61065d82826110cc565b6107d23382611199565b50565b6107e0823383610dfc565b61065d8282611199565b6108147f65d7a28e3265b37a6474929f336521b332c1681b933f6cb9f3376673440d862a336108ad565b6108865760405162461bcd60e51b815260206004820152603760248201527f45524332305072657365744d696e7465725061757365723a206d75737420686160448201527f76652070617573657220726f6c6520746f207061757365000000000000000000606482015260840161064a565b6107276112d9565b60008281526001602052604081206108a69083611316565b9392505050565b6000918252602082815260408084206001600160a01b0393909316845291905290205460ff1690565b6060600680546104f590611a3b565b600033816108f38286610bdf565b9050838110156109535760405162461bcd60e51b815260206004820152602560248201527f45524332303a2064656372656173656420616c6c6f77616e63652062656c6f77604482015264207a65726f60d81b606482015260840161064a565b6105a98286868403610cd8565b600033610586818585610e76565b60008181526001602052604081206104e090611322565b428410156109e05760405162461bcd60e51b815260206004820152602260248201527f4552433230576974685065726d69743a20455850495245445f5349474e415455604482015261524560f01b606482015260840161064a565b6009546001600160a01b038816600090815260086020526040812080549192917f6e71edae12b1b97f4d1f60370fef10105fa2faae0126114a169c64845d6126c9918b918b918b919087610a3383611a9e565b909155506040805160208101969096526001600160a01b0394851690860152929091166060840152608083015260a082015260c0810187905260e00160405160208183030381529060405280519060200120604051602001610aac92919061190160f01b81526002810192909252602282015260420190565b60408051601f198184030181528282528051602091820120600080855291840180845281905260ff88169284019290925260608301869052608083018590529092509060019060a0016020604051602081039080840390855afa158015610b17573d6000803e3d6000fd5b5050604051601f1901519150506001600160a01b03811615801590610b4d5750886001600160a01b0316816001600160a01b0316145b610ba45760405162461bcd60e51b815260206004820152602260248201527f4552433230576974685065726d69743a20494e56414c49445f5349474e415455604482015261524560f01b606482015260840161064a565b610baf898989610cd8565b505050505050505050565b600082815260208190526040902060010154610bd58161102c565b6105d98383611058565b6001600160a01b03918216600090815260036020908152604080832093909416825291909152205490565b610c1482826108ad565b61065d576000828152602081815260408083206001600160a01b03851684529091529020805460ff19166001179055610c4a3390565b6001600160a01b0316816001600160a01b0316837f2f8788117e7eff1d82e926ec794901d17c78024a50270940304540a733656f0d60405160405180910390a45050565b60006108a6836001600160a01b03841661132c565b60006001600160e01b03198216637965db0b60e01b14806104e057506301ffc9a760e01b6001600160e01b03198316146104e0565b6001600160a01b038316610d3a5760405162461bcd60e51b8152602060048201526024808201527f45524332303a20617070726f76652066726f6d20746865207a65726f206164646044820152637265737360e01b606482015260840161064a565b6001600160a01b038216610d9b5760405162461bcd60e51b815260206004820152602260248201527f45524332303a20617070726f766520746f20746865207a65726f206164647265604482015261737360f01b606482015260840161064a565b6001600160a01b0383811660008181526003602090815260408083209487168084529482529182902085905590518481527f8c5be1e5ebec7d5bd14f71427d1e84f3dd0314c0f7b2291e5b200ac8c7c3b925910160405180910390a3505050565b6000610e088484610bdf565b90506000198114610e705781811015610e635760405162461bcd60e51b815260206004820152601d60248201527f45524332303a20696e73756666696369656e7420616c6c6f77616e6365000000604482015260640161064a565b610e708484848403610cd8565b50505050565b6001600160a01b038316610eda5760405162461bcd60e51b815260206004820152602560248201527f45524332303a207472616e736665722066726f6d20746865207a65726f206164604482015264647265737360d81b606482015260840161064a565b6001600160a01b038216610f3c5760405162461bcd60e51b815260206004820152602360248201527f45524332303a207472616e7366657220746f20746865207a65726f206164647260448201526265737360e81b606482015260840161064a565b610f4783838361137b565b6001600160a01b03831660009081526002602052604090205481811015610fbf5760405162461bcd60e51b815260206004820152602660248201527f45524332303a207472616e7366657220616d6f756e7420657863656564732062604482015265616c616e636560d01b606482015260840161064a565b6001600160a01b0380851660008181526002602052604080822086860390559286168082529083902080548601905591517fddf252ad1be2c89b69c2b068fc378daa952ba7f163c4a11628f55a4df523b3ef9061101f9086815260200190565b60405180910390a3610e70565b6107d28133611386565b6110408282610c0a565b60008281526001602052604090206105d99082610c8e565b61106282826113df565b60008281526001602052604090206105d99082611444565b611082611459565b6007805460ff191690557f5db9ee0a495bf2e6ff9c91a7834c1ba4fdd244a5e8aa4e537bd38aeae4b073aa335b6040516001600160a01b03909116815260200160405180910390a1565b6001600160a01b0382166111225760405162461bcd60e51b815260206004820152601f60248201527f45524332303a206d696e7420746f20746865207a65726f206164647265737300604482015260640161064a565b61112e6000838361137b565b80600460008282546111409190611a8b565b90915550506001600160a01b0382166000818152600260209081526040808320805486019055518481527fddf252ad1be2c89b69c2b068fc378daa952ba7f163c4a11628f55a4df523b3ef910160405180910390a35050565b6001600160a01b0382166111f95760405162461bcd60e51b815260206004820152602160248201527f45524332303a206275726e2066726f6d20746865207a65726f206164647265736044820152607360f81b606482015260840161064a565b6112058260008361137b565b6001600160a01b038216600090815260026020526040902054818110156112795760405162461bcd60e51b815260206004820152602260248201527f45524332303a206275726e20616d6f756e7420657863656564732062616c616e604482015261636560f01b606482015260840161064a565b6001600160a01b03831660008181526002602090815260408083208686039055600480548790039055518581529192917fddf252ad1be2c89b69c2b068fc378daa952ba7f163c4a11628f55a4df523b3ef910160405180910390a3505050565b6112e16114a2565b6007805460ff191660011790557f62e78cea01bee320cd4e420270b5ea74000d11b0c9f74754ebdbfc544b05a2586110af3390565b60006108a683836114e8565b60006104e0825490565b6000818152600183016020526040812054611373575081546001818101845560008481526020808220909301849055845484825282860190935260409020919091556104e0565b5060006104e0565b6105d9838383611512565b61139082826108ad565b61065d5761139d81611578565b6113a883602061158a565b6040516020016113b9929190611ab7565b60408051601f198184030181529082905262461bcd60e51b825261064a91600401611867565b6113e982826108ad565b1561065d576000828152602081815260408083206001600160a01b0385168085529252808320805460ff1916905551339285917ff6391f5c32d9c69d2a47ea670b442974b53935d1edc7fd64eb21e047a839171b9190a45050565b60006108a6836001600160a01b038416611726565b60075460ff166107275760405162461bcd60e51b815260206004820152601460248201527314185d5cd8589b194e881b9bdd081c185d5cd95960621b604482015260640161064a565b60075460ff16156107275760405162461bcd60e51b815260206004820152601060248201526f14185d5cd8589b194e881c185d5cd95960821b604482015260640161064a565b60008260000182815481106114ff576114ff611b2c565b9060005260206000200154905092915050565b60075460ff16156105d95760405162461bcd60e51b815260206004820152602a60248201527f45524332305061757361626c653a20746f6b656e207472616e736665722077686044820152691a5b19481c185d5cd95960b21b606482015260840161064a565b60606104e06001600160a01b03831660145b60606000611599836002611b42565b6115a4906002611a8b565b67ffffffffffffffff8111156115bc576115bc611b59565b6040519080825280601f01601f1916602001820160405280156115e6576020820181803683370190505b509050600360fc1b8160008151811061160157611601611b2c565b60200101906001600160f81b031916908160001a905350600f60fb1b8160018151811061163057611630611b2c565b60200101906001600160f81b031916908160001a9053506000611654846002611b42565b61165f906001611a8b565b90505b60018111156116d7576f181899199a1a9b1b9c1cb0b131b232b360811b85600f166010811061169357611693611b2c565b1a60f81b8282815181106116a9576116a9611b2c565b60200101906001600160f81b031916908160001a90535060049490941c936116d081611b6f565b9050611662565b5083156108a65760405162461bcd60e51b815260206004820181905260248201527f537472696e67733a20686578206c656e67746820696e73756666696369656e74604482015260640161064a565b6000818152600183016020526040812054801561180f57600061174a600183611b86565b855490915060009061175e90600190611b86565b90508181146117c357600086600001828154811061177e5761177e611b2c565b90600052602060002001549050808760000184815481106117a1576117a1611b2c565b6000918252602080832090910192909255918252600188019052604090208390555b85548690806117d4576117d4611b99565b6001900381819060005260206000200160009055905585600101600086815260200190815260200160002060009055600193505050506104e0565b60009150506104e0565b60006020828403121561182b57600080fd5b81356001600160e01b0319811681146108a657600080fd5b60005b8381101561185e578181015183820152602001611846565b50506000910152565b6020815260008251806020840152611886816040850160208701611843565b601f01601f19169190910160400192915050565b80356001600160a01b03811681146118b157600080fd5b919050565b600080604083850312156118c957600080fd5b6118d28361189a565b946020939093013593505050565b6000806000606084860312156118f557600080fd5b6118fe8461189a565b925061190c6020850161189a565b9150604084013590509250925092565b60006020828403121561192e57600080fd5b5035919050565b6000806040838503121561194857600080fd5b823591506119586020840161189a565b90509250929050565b60006020828403121561197357600080fd5b6108a68261189a565b6000806040838503121561198f57600080fd5b50508035926020909101359150565b600080600080600080600060e0888a0312156119b957600080fd5b6119c28861189a565b96506119d06020890161189a565b95506040880135945060608801359350608088013560ff811681146119f457600080fd5b9699959850939692959460a0840135945060c09093013592915050565b60008060408385031215611a2457600080fd5b611a2d8361189a565b91506119586020840161189a565b600181811c90821680611a4f57607f821691505b602082108103611a6f57634e487b7160e01b600052602260045260246000fd5b50919050565b634e487b7160e01b600052601160045260246000fd5b808201808211156104e0576104e0611a75565b600060018201611ab057611ab0611a75565b5060010190565b7f416363657373436f6e74726f6c3a206163636f756e7420000000000000000000815260008351611aef816017850160208801611843565b7001034b99036b4b9b9b4b733903937b6329607d1b6017918401918201528351611b20816028840160208801611843565b01602801949350505050565b634e487b7160e01b600052603260045260246000fd5b80820281158282048414176104e0576104e0611a75565b634e487b7160e01b600052604160045260246000fd5b600081611b7e57611b7e611a75565b506000190190565b818103818111156104e0576104e0611a75565b634e487b7160e01b600052603160045260246000fdfea2646970667358221220851c01690a9fd31b9bf22b0274a02062fee53587f320d5a17d3ee73ddb851c4b64736f6c63430008110033",
  "linkReferences": {},
  "deployedLinkReferences": {}
}