{
  "_format": "hh-sol-artifact-1",
  "contractName": "PermitERC20",
  "sourceName": "contracts/PermitERC20.sol",
  "abi": [
    {
      "inputs": [
        {
          "internalType": "string",
          "name": "_name",
          "type": "string"
        },
        {
          "internalType": "string",
          "name": "_symbol",
          "type": "string"
        }
      ],
      "stateMutability": "nonpayable",
      "type": "constructor"
    },
    {
      "anonymous": false,
      "inputs": [
        {
          "indexed": true,
          "internalType": "address",
          "name": "owner",
          "type": "address"
        },
        {
          "indexed": true,
          "internalType": "address",
          "name": "spender",
          "type": "address"
        },
        {
          "indexed": false,
          "internalType": "uint256",
          "name": "value",
          "type": "uint256"
        }
      ],
      "name": "Approval",
      "type": "event"
    },
    {
      "anonymous": false,
      "inputs": [
        {
          "indexed": false,
          "internalType": "address",
          "name": "account",
          "type": "address"
        }
      ],
      "name": "Paused",
      "type": "event"
    },
    {
      "anonymous": false,
      "inputs": [
        {
          "indexed": true,
          "internalType": "bytes32",
          "name": "role",
          "type": "bytes32"
        },
        {
          "indexed": true,
          "internalType": "bytes32",
          "name": "previousAdminRole",
          "type": "bytes32"
        },
        {
          "indexed": true,
          "internalType": "bytes32",
          "name": "newAdminRole",
          "type": "bytes32"
        }
      ],
      "name": "RoleAdminChanged",
      "type": "event"
    },
    {
      "anonymous": false,
      "inputs": [
        {
          "indexed": true,
          "internalType": "bytes32",
          "name": "role",
          "type": "bytes32"
        },
        {
          "indexed": true,
          "internalType": "address",
          "name": "account",
          "type": "address"
        },
        {
          "indexed": true,
          "internalType": "address",
          "name": "sender",
          "type": "address"
        }
      ],
      "name": "RoleGranted",
      "type": "event"
    },
    {
      "anonymous": false,
      "inputs": [
        {
          "indexed": true,
          "internalType": "bytes32",
          "name": "role",
          "type": "bytes32"
        },
        {
          "indexed": true,
          "internalType": "address",
          "name": "account",
          "type": "address"
        },
        {
          "indexed": true,
          "internalType": "address",
          "name": "sender",
          "type": "address"
        }
      ],
      "name": "RoleRevoked",
      "type": "event"
    },
    {
      "anonymous": false,
      "inputs": [
        {
          "indexed": true,
          "internalType": "address",
          "name": "from",
          "type": "address"
        },
        {
          "indexed": true,
          "internalType": "address",
          "name": "to",
          "type": "address"
        },
        {
          "indexed": false,
          "internalType": "uint256",
          "name": "value",
          "type": "uint256"
        }
      ],
      "name": "Transfer",
      "type": "event"
    },
    {
      "anonymous": false,
      "inputs": [
        {
          "indexed": false,
          "internalType": "address",
          "name": "account",
          "type": "address"
        }
      ],
      "name": "Unpaused",
      "type": "event"
    },
    {
      "inputs": [],
      "name": "DEFAULT_ADMIN_ROLE",
      "outputs": [
        {
          "internalType": "bytes32",
          "name": "",
          "type": "bytes32"
        }
      ],
      "stateMutability": "view",
      "type": "function"
    },
    {
      "inputs": [],
      "name": "DOMAIN_SEPARATOR",
      "outputs": [
        {
          "internalType": "bytes32",
          "name": "",
          "type": "bytes32"
        }
      ],
      "stateMutability": "view",
      "type": "function"
    },
    {
      "inputs": [],
      "name": "MINTER_ROLE",
      "outputs": [
        {
          "internalType": "bytes32",
          "name": "",
          "type": "bytes32"
        }
      ],
      "stateMutability": "view",
      "type": "function"
    },
    {
      "inputs": [],
      "name": "PAUSER_ROLE",
      "outputs": [
        {
          "internalType": "bytes32",
          "name": "",
          "type": "bytes32"
        }
      ],
      "stateMutability": "view",
      "type": "function"
    },
    {
      "inputs": [],
      "name": "PERMIT_TYPEHASH",
      "outputs": [
        {
          "internalType": "bytes32",
          "name": "",
          "type": "bytes32"
        }
      ],
      "stateMutability": "view",
      "type": "function"
    },
    {
      "inputs": [
        {
          "internalType": "address",
          "name": "owner",
          "type": "address"
        },
        {
          "internalType": "address",
          "name": "spender",
          "type": "address"
        }
      ],
      "name": "allowance",
      "outputs": [
        {
          "internalType": "uint256",
          "name": "",
          "type": "uint256"
        }
      ],
      "stateMutability": "view",
      "type": "function"
    },
    {
      "inputs": [
        {
          "internalType": "address",
          "name": "spender",
          "type": "address"
        },
        {
          "internalType": "uint256",
          "name": "amount",
          "type": "uint256"
        }
      ],
      "name": "approve",
      "outputs": [
        {
          "internalType": "bool",
          "name": "",
          "type": "bool"
        }
      ],
      "stateMutability": "nonpayable",
      "type": "function"
    },
    {
      "inputs": [
        {
          "internalType": "address",
          "name": "account",
          "type": "address"
        }
      ],
      "name": "balanceOf",
      "outputs": [
        {
          "internalType": "uint256",
          "name": "",
          "type": "uint256"
        }
      ],
      "stateMutability": "view",
      "type": "function"
    },
    {
      "inputs": [
        {
          "internalType": "uint256",
          "name": "amount",
          "type": "uint256"
        }
      ],
      "name": "burn",
      "outputs": [],
      "stateMutability": "nonpayable",
      "type": "function"
    },
    {
      "inputs": [
        {
          "internalType": "address",
          "name": "account",
          "type": "address"
        },
        {
          "internalType": "uint256",
          "name": "amount",
          "type": "uint256"
        }
      ],
      "name": "burnFrom",
      "outputs": [],
      "stateMutability": "nonpayable",
      "type": "function"
    },
    {
      "inputs": [],
      "name": "decimals",
      "outputs": [
        {
          "internalType": "uint8",
          "name": "",
          "type": "uint8"
        }
      ],
      "stateMutability": "view",
      "type": "function"
    },
    {
      "inputs": [
        {
          "internalType": "address",
          "name": "spender",
          "type": "address"
        },
        {
          "internalType": "uint256",
          "name": "subtractedValue",
          "type": "uint256"
        }
      ],
      "name": "decreaseAllowance",
      "outputs": [
        {
          "internalType": "bool",
          "name": "",
          "type": "bool"
        }
      ],
      "stateMutability": "nonpayable",
      "type": "function"
    },
    {
      "inputs": [
        {
          "internalType": "bytes32",
          "name": "role",
          "type": "bytes32"
        }
      ],
      "name": "getRoleAdmin",
      "outputs": [
        {
          "internalType": "bytes32",
          "name": "",
          "type": "bytes32"
        }
      ],
      "stateMutability": "view",
      "type": "function"
    },
    {
      "inputs": [
        {
          "internalType": "bytes32",
          "name": "role",
          "type": "bytes32"
        },
        {
          "internalType": "uint256",
          "name": "index",
          "type": "uint256"
        }
      ],
      "name": "getRoleMember",
      "outputs": [
        {
          "internalType": "address",
          "name": "",
          "type": "address"
        }
      ],
      "stateMutability": "view",
      "type": "function"
    },
    {
      "inputs": [
        {
          "internalType": "bytes32",
          "name": "role",
          "type": "bytes32"
        }
      ],
      "name": "getRoleMemberCount",
      "outputs": [
        {
          "internalType": "uint256",
          "name": "",
          "type": "uint256"
        }
      ],
      "stateMutability": "view",
      "type": "function"
    },
    {
      "inputs": [
        {
          "internalType": "bytes32",
          "name": "role",
          "type": "bytes32"
        },
        {
          "internalType": "address",
          "name": "account",
          "type": "address"
        }
      ],
      "name": "grantRole",
      "outputs": [],
      "stateMutability": "nonpayable",
      "type": "function"
    },
    {
      "inputs": [
        {
          "internalType": "bytes32",
          "name": "role",
          "type": "bytes32"
        },
        {
          "internalType": "address",
          "name": "account",
          "type": "address"
        }
      ],
      "name": "hasRole",
      "outputs": [
        {
          "internalType": "bool",
          "name": "",
          "type": "bool"
        }
      ],
      "stateMutability": "view",
      "type": "function"
    },
    {
      "inputs": [
        {
          "internalType": "address",
          "name": "spender",
          "type": "address"
        },
        {
          "internalType": "uint256",
          "name": "addedValue",
          "type": "uint256"
        }
      ],
      "name": "increaseAllowance",
      "outputs": [
        {
          "internalType": "bool",
          "name": "",
          "type": "bool"
        }
      ],
      "stateMutability": "nonpayable",
      "type": "function"
    },
    {
      "inputs": [
        {
          "internalType": "address",
          "name": "to",
          "type": "address"
        },
        {
          "internalType": "uint256",
          "name": "amount",
          "type": "uint256"
        }
      ],
      "name": "mint",
      "outputs": [],
      "stateMutability": "nonpayable",
      "type": "function"
    },
    {
      "inputs": [],
      "name": "name",
      "outputs": [
        {
          "internalType": "string",
          "name": "",
          "type": "string"
        }
      ],
      "stateMutability": "view",
      "type": "function"
    },
    {
      "inputs": [
        {
          "internalType": "address",
          "name": "owner",
          "type": "address"
        }
      ],
      "name": "nonces",
      "outputs": [
        {
          "internalType": "uint256",
          "name": "",
          "type": "uint256"
        }
      ],
      "stateMutability": "view",
      "type": "function"
    },
    {
      "inputs": [],
      "name": "pause",
      "outputs": [],
      "stateMutability": "nonpayable",
      "type": "function"
    },
    {
      "inputs": [],
      "name": "paused",
      "outputs": [
        {
          "internalType": "bool",
          "name": "",
          "type": "bool"
        }
      ],
      "stateMutability": "view",
      "type": "function"
    },
    {
      "inputs": [
        {
          "internalType": "address",
          "name": "owner",
          "type": "address"
        },
        {
          "internalType": "address",
          "name": "spender",
          "type": "address"
        },
        {
          "internalType": "uint256",
          "name": "value",
          "type": "uint256"
        },
        {
          "internalType": "uint256",
          "name": "deadline",
          "type": "uint256"
        },
        {
          "internalType": "uint8",
          "name": "v",
          "type": "uint8"
        },
        {
          "internalType": "bytes32",
          "name": "r",
          "type": "bytes32"
        },
        {
          "internalType": "bytes32",
          "name": "s",
          "type": "bytes32"
        }
      ],
      "name": "permit",
      "outputs": [],
      "stateMutability": "nonpayable",
      "type": "function"
    },
    {
      "inputs": [
        {
          "internalType": "bytes32",
          "name": "role",
          "type": "bytes32"
        },
        {
          "internalType": "address",
          "name": "account",
          "type": "address"
        }
      ],
      "name": "renounceRole",
      "outputs": [],
      "stateMutability": "nonpayable",
      "type": "function"
    },
    {
      "inputs": [
        {
          "internalType": "bytes32",
          "name": "role",
          "type": "bytes32"
        },
        {
          "internalType": "address",
          "name": "account",
          "type": "address"
        }
      ],
      "name": "revokeRole",
      "outputs": [],
      "stateMutability": "nonpayable",
      "type": "function"
    },
    {
      "inputs": [
        {
          "internalType": "bytes4",
          "name": "interfaceId",
          "type": "bytes4"
        }
      ],
      "name": "supportsInterface",
      "outputs": [
        {
          "internalType": "bool",
          "name": "",
          "type": "bool"
        }
      ],
      "stateMutability": "view",
      "type": "function"
    },
    {
      "inputs": [],
      "name": "symbol",
      "outputs": [
        {
          "internalType": "string",
          "name": "",
          "type": "string"
        }
      ],
      "stateMutability": "view",
      "type": "function"
    },
    {
      "inputs": [],
      "name": "totalSupply",
      "outputs": [
        {
          "internalType": "uint256",
          "name": "",
          "type": "uint256"
        }
      ],
      "stateMutability": "view",
      "type": "function"
    },
    {
      "inputs": [
        {
          "internalType": "address",
          "name": "to",
          "type": "address"
        },
        {
          "internalType": "uint256",
          "name": "amount",
          "type": "uint256"
        }
      ],
      "name": "transfer",
      "outputs": [
        {
          "internalType": "bool",
          "name": "",
          "type": "bool"
        }
      ],
      "stateMutability": "nonpayable",
      "type": "function"
    },
    {
      "inputs": [
        {
          "internalType": "address",
          "name": "from",
          "type": "address"
        },
        {
          "internalType": "address",
          "name": "to",
          "type": "address"
        },
        {
          "internalType": "uint256",
          "name": "amount",
          "type": "uint256"
        }
      ],
      "name": "transferFrom",
      "outputs": [
        {
          "internalType": "bool",
          "name": "",
          "type": "bool"
        }
      ],
      "stateMutability": "nonpayable",
      "type": "function"
    },
    {
      "inputs": [],
      "name": "unpause",
      "outputs": [],
      "stateMutability": "nonpayable",
      "type": "function"
    }
  ],
  "bytecode": "0x60806040523480156200001157600080fd5b50604051620043d2380380620043d283398181016040528101906200003791906200062a565b8181818181600590816200004c9190620008fa565b5080600690816200005e9190620008fa565b5050506000600760006101000a81548160ff021916908315150217905550620000a06000801b62000094620001fe60201b60201c565b6200020660201b60201c565b620000e17f9f2df0fed2c77648de5860a4cc508cd0818c85b8b8a1ab4ceeef8d981c8956a6620000d5620001fe60201b60201c565b6200020660201b60201c565b620001227f65d7a28e3265b37a6474929f336521b332c1681b933f6cb9f3376673440d862a62000116620001fe60201b60201c565b6200020660201b60201c565b50506200014067cdb2753071cf914b60c01b6200021c60201b60201c565b6200015c67e9958df70116be8160c01b6200021c60201b60201c565b7f8b73c3c69bb8fe3d512ecc4cf759cc79239f7b179b0ffacaa9a75d522b39400f82805190602001206040518060400160405280600181526020017f3100000000000000000000000000000000000000000000000000000000000000815250805190602001204630604051602001620001da95949392919062000a52565b60405160208183030381529060405280519060200120600981905550505062000aaf565b600033905090565b6200021882826200021f60201b60201c565b5050565b50565b6200023682826200026760201b620011c01760201c565b6200026281600160008581526020019081526020016000206200035860201b620012a01790919060201c565b505050565b6200027982826200039060201b60201c565b6200035457600160008084815260200190815260200160002060000160008373ffffffffffffffffffffffffffffffffffffffff1673ffffffffffffffffffffffffffffffffffffffff16815260200190815260200160002060006101000a81548160ff021916908315150217905550620002f9620001fe60201b60201c565b73ffffffffffffffffffffffffffffffffffffffff168173ffffffffffffffffffffffffffffffffffffffff16837f2f8788117e7eff1d82e926ec794901d17c78024a50270940304540a733656f0d60405160405180910390a45b5050565b600062000388836000018373ffffffffffffffffffffffffffffffffffffffff1660001b620003fa60201b60201c565b905092915050565b600080600084815260200190815260200160002060000160008373ffffffffffffffffffffffffffffffffffffffff1673ffffffffffffffffffffffffffffffffffffffff16815260200190815260200160002060009054906101000a900460ff16905092915050565b60006200040e83836200047460201b60201c565b620004695782600001829080600181540180825580915050600190039060005260206000200160009091909190915055826000018054905083600101600084815260200190815260200160002081905550600190506200046e565b600090505b92915050565b600080836001016000848152602001908152602001600020541415905092915050565b6000604051905090565b600080fd5b600080fd5b600080fd5b600080fd5b6000601f19601f8301169050919050565b7f4e487b7100000000000000000000000000000000000000000000000000000000600052604160045260246000fd5b6200050082620004b5565b810181811067ffffffffffffffff82111715620005225762000521620004c6565b5b80604052505050565b60006200053762000497565b9050620005458282620004f5565b919050565b600067ffffffffffffffff821115620005685762000567620004c6565b5b6200057382620004b5565b9050602081019050919050565b60005b83811015620005a057808201518184015260208101905062000583565b60008484015250505050565b6000620005c3620005bd846200054a565b6200052b565b905082815260208101848484011115620005e257620005e1620004b0565b5b620005ef84828562000580565b509392505050565b600082601f8301126200060f576200060e620004ab565b5b815162000621848260208601620005ac565b91505092915050565b60008060408385031215620006445762000643620004a1565b5b600083015167ffffffffffffffff811115620006655762000664620004a6565b5b6200067385828601620005f7565b925050602083015167ffffffffffffffff811115620006975762000696620004a6565b5b620006a585828601620005f7565b9150509250929050565b600081519050919050565b7f4e487b7100000000000000000000000000000000000000000000000000000000600052602260045260246000fd5b600060028204905060018216806200070257607f821691505b602082108103620007185762000717620006ba565b5b50919050565b60008190508160005260206000209050919050565b60006020601f8301049050919050565b600082821b905092915050565b600060088302620007827fffffffffffffffffffffffffffffffffffffffffffffffffffffffffffffffff8262000743565b6200078e868362000743565b95508019841693508086168417925050509392505050565b6000819050919050565b6000819050919050565b6000620007db620007d5620007cf84620007a6565b620007b0565b620007a6565b9050919050565b6000819050919050565b620007f783620007ba565b6200080f6200080682620007e2565b84845462000750565b825550505050565b600090565b6200082662000817565b62000833818484620007ec565b505050565b5b818110156200085b576200084f6000826200081c565b60018101905062000839565b5050565b601f821115620008aa5762000874816200071e565b6200087f8462000733565b810160208510156200088f578190505b620008a76200089e8562000733565b83018262000838565b50505b505050565b600082821c905092915050565b6000620008cf60001984600802620008af565b1980831691505092915050565b6000620008ea8383620008bc565b9150826002028217905092915050565b6200090582620006af565b67ffffffffffffffff811115620009215762000920620004c6565b5b6200092d8254620006e9565b6200093a8282856200085f565b600060209050601f8311600181146200097257600084156200095d578287015190505b620009698582620008dc565b865550620009d9565b601f19841662000982866200071e565b60005b82811015620009ac5784890151825560018201915060208501945060208101905062000985565b86831015620009cc5784890151620009c8601f891682620008bc565b8355505b6001600288020188555050505b505050505050565b6000819050919050565b620009f681620009e1565b82525050565b62000a0781620007a6565b82525050565b600073ffffffffffffffffffffffffffffffffffffffff82169050919050565b600062000a3a8262000a0d565b9050919050565b62000a4c8162000a2d565b82525050565b600060a08201905062000a696000830188620009eb565b62000a786020830187620009eb565b62000a876040830186620009eb565b62000a966060830185620009fc565b62000aa5608083018462000a41565b9695505050505050565b6139138062000abf6000396000f3fe608060405234801561001057600080fd5b50600436106101f05760003560e01c806370a082311161010f578063a457c2d7116100a2578063d539139311610071578063d5391393146105e1578063d547741f146105ff578063dd62ed3e1461061b578063e63ab1e91461064b576101f0565b8063a457c2d714610535578063a9059cbb14610565578063ca15c87314610595578063d505accf146105c5576101f0565b80639010d07c116100de5780639010d07c1461049957806391d14854146104c957806395d89b41146104f9578063a217fddf14610517576101f0565b806370a082311461041357806379cc6790146104435780637ecebe001461045f5780638456cb591461048f576101f0565b8063313ce567116101875780633f4ba83a116101565780633f4ba83a146103b357806340c10f19146103bd57806342966c68146103d95780635c975abb146103f5576101f0565b8063313ce5671461032b5780633644e5151461034957806336568abe146103675780633950935114610383576101f0565b806323b872dd116101c357806323b872dd14610291578063248a9ca3146102c15780632f2ff15d146102f157806330adf81f1461030d576101f0565b806301ffc9a7146101f557806306fdde0314610225578063095ea7b31461024357806318160ddd14610273575b600080fd5b61020f600480360381019061020a9190612468565b610669565b60405161021c91906124b0565b60405180910390f35b61022d6106e3565b60405161023a919061255b565b60405180910390f35b61025d60048036038101906102589190612611565b610775565b60405161026a91906124b0565b60405180910390f35b61027b610798565b6040516102889190612660565b60405180910390f35b6102ab60048036038101906102a6919061267b565b6107a2565b6040516102b891906124b0565b60405180910390f35b6102db60048036038101906102d69190612704565b6107d1565b6040516102e89190612740565b60405180910390f35b61030b6004803603810190610306919061275b565b6107f0565b005b610315610811565b6040516103229190612740565b60405180910390f35b610333610838565b60405161034091906127b7565b60405180910390f35b610351610841565b60405161035e9190612740565b60405180910390f35b610381600480360381019061037c919061275b565b610847565b005b61039d60048036038101906103989190612611565b6108ca565b6040516103aa91906124b0565b60405180910390f35b6103bb610901565b005b6103d760048036038101906103d29190612611565b61097b565b005b6103f360048036038101906103ee91906127d2565b6109f9565b005b6103fd610a0d565b60405161040a91906124b0565b60405180910390f35b61042d600480360381019061042891906127ff565b610a24565b60405161043a9190612660565b60405180910390f35b61045d60048036038101906104589190612611565b610a6d565b005b610479600480360381019061047491906127ff565b610a8d565b6040516104869190612660565b60405180910390f35b610497610b12565b005b6104b360048036038101906104ae919061282c565b610b8c565b6040516104c0919061287b565b60405180910390f35b6104e360048036038101906104de919061275b565b610bbb565b6040516104f091906124b0565b60405180910390f35b610501610c25565b60405161050e919061255b565b60405180910390f35b61051f610cb7565b60405161052c9190612740565b60405180910390f35b61054f600480360381019061054a9190612611565b610cbe565b60405161055c91906124b0565b60405180910390f35b61057f600480360381019061057a9190612611565b610d35565b60405161058c91906124b0565b60405180910390f35b6105af60048036038101906105aa9190612704565b610d58565b6040516105bc9190612660565b60405180910390f35b6105df60048036038101906105da91906128c2565b610d7c565b005b6105e96110d0565b6040516105f69190612740565b60405180910390f35b6106196004803603810190610614919061275b565b6110f4565b005b61063560048036038101906106309190612964565b611115565b6040516106429190612660565b60405180910390f35b61065361119c565b6040516106609190612740565b60405180910390f35b60007f5a05180f000000000000000000000000000000000000000000000000000000007bffffffffffffffffffffffffffffffffffffffffffffffffffffffff1916827bffffffffffffffffffffffffffffffffffffffffffffffffffffffff191614806106dc57506106db826112d0565b5b9050919050565b6060600580546106f2906129d3565b80601f016020809104026020016040519081016040528092919081815260200182805461071e906129d3565b801561076b5780601f106107405761010080835404028352916020019161076b565b820191906000526020600020905b81548152906001019060200180831161074e57829003601f168201915b5050505050905090565b60008061078061134a565b905061078d818585611352565b600191505092915050565b6000600454905090565b6000806107ad61134a565b90506107ba85828561151b565b6107c58585856115a7565b60019150509392505050565b6000806000838152602001908152602001600020600101549050919050565b6107f9826107d1565b61080281611820565b61080c8383611834565b505050565b7f6e71edae12b1b97f4d1f60370fef10105fa2faae0126114a169c64845d6126c960001b81565b60006012905090565b60095481565b61084f61134a565b73ffffffffffffffffffffffffffffffffffffffff168173ffffffffffffffffffffffffffffffffffffffff16146108bc576040517f08c379a00000000000000000000000000000000000000000000000000000000081526004016108b390612a76565b60405180910390fd5b6108c68282611868565b5050565b6000806108d561134a565b90506108f68185856108e78589611115565b6108f19190612ac5565b611352565b600191505092915050565b6109327f65d7a28e3265b37a6474929f336521b332c1681b933f6cb9f3376673440d862a61092d61134a565b610bbb565b610971576040517f08c379a000000000000000000000000000000000000000000000000000000000815260040161096890612b6b565b60405180910390fd5b61097961189c565b565b6109ac7f9f2df0fed2c77648de5860a4cc508cd0818c85b8b8a1ab4ceeef8d981c8956a66109a761134a565b610bbb565b6109eb576040517f08c379a00000000000000000000000000000000000000000000000000000000081526004016109e290612bfd565b60405180910390fd5b6109f582826118ff565b5050565b610a0a610a0461134a565b82611a56565b50565b6000600760009054906101000a900460ff16905090565b6000600260008373ffffffffffffffffffffffffffffffffffffffff1673ffffffffffffffffffffffffffffffffffffffff168152602001908152602001600020549050919050565b610a7f82610a7961134a565b8361151b565b610a898282611a56565b5050565b6000610aa367babf5790a49e968b60c01b611c25565b610ab7673ee9e6a3ab2ab5f060c01b611c25565b610acb67d14c01ca36f1e7f660c01b611c25565b600860008373ffffffffffffffffffffffffffffffffffffffff1673ffffffffffffffffffffffffffffffffffffffff168152602001908152602001600020549050919050565b610b437f65d7a28e3265b37a6474929f336521b332c1681b933f6cb9f3376673440d862a610b3e61134a565b610bbb565b610b82576040517f08c379a0000000000000000000000000000000000000000000000000000000008152600401610b7990612c8f565b60405180910390fd5b610b8a611c28565b565b6000610bb38260016000868152602001908152602001600020611c8b90919063ffffffff16565b905092915050565b600080600084815260200190815260200160002060000160008373ffffffffffffffffffffffffffffffffffffffff1673ffffffffffffffffffffffffffffffffffffffff16815260200190815260200160002060009054906101000a900460ff16905092915050565b606060068054610c34906129d3565b80601f0160208091040260200160405190810160405280929190818152602001828054610c60906129d3565b8015610cad5780601f10610c8257610100808354040283529160200191610cad565b820191906000526020600020905b815481529060010190602001808311610c9057829003601f168201915b5050505050905090565b6000801b81565b600080610cc961134a565b90506000610cd78286611115565b905083811015610d1c576040517f08c379a0000000000000000000000000000000000000000000000000000000008152600401610d1390612d21565b60405180910390fd5b610d298286868403611352565b60019250505092915050565b600080610d4061134a565b9050610d4d8185856115a7565b600191505092915050565b6000610d7560016000848152602001908152602001600020611ca5565b9050919050565b610d9067823686818bd78bec60c01b611c25565b610da46721382c8219aaa99060c01b611c25565b610db867d34da3ef9a7d597260c01b611c25565b610dcc67a9240277a90e293f60c01b611c25565b42841015610e0f576040517f08c379a0000000000000000000000000000000000000000000000000000000008152600401610e0690612db3565b60405180910390fd5b610e2367bf68fc42d9625cff60c01b611c25565b610e3767f1fc16d7313f33c560c01b611c25565b610e4b67f5dc1dc15f8189fe60c01b611c25565b60006009547f6e71edae12b1b97f4d1f60370fef10105fa2faae0126114a169c64845d6126c960001b898989600860008e73ffffffffffffffffffffffffffffffffffffffff1673ffffffffffffffffffffffffffffffffffffffff1681526020019081526020016000206000815480929190610ec790612dd3565b919050558a604051602001610ee196959493929190612e1b565b60405160208183030381529060405280519060200120604051602001610f08929190612ef4565b604051602081830303815290604052805190602001209050610f34675507f4b15c7cca4160c01b611c25565b610f48678eee0220a2cfaab160c01b611c25565b600060018286868660405160008152602001604052604051610f6d9493929190612f2b565b6020604051602081039080840390855afa158015610f8f573d6000803e3d6000fd5b505050602060405103519050610faf6724a4c55682e4d64460c01b611c25565b610fc3675074b55bff2cbc5f60c01b611c25565b610fd7673736b2863013467a60c01b611c25565b600073ffffffffffffffffffffffffffffffffffffffff168173ffffffffffffffffffffffffffffffffffffffff161415801561103f57508873ffffffffffffffffffffffffffffffffffffffff168173ffffffffffffffffffffffffffffffffffffffff16145b61107e576040517f08c379a000000000000000000000000000000000000000000000000000000000815260040161107590612fe2565b60405180910390fd5b61109267e93529c7a030e91e60c01b611c25565b6110a6670637f7f6bb93328960c01b611c25565b6110ba670ff507695ededf3960c01b611c25565b6110c5898989611352565b505050505050505050565b7f9f2df0fed2c77648de5860a4cc508cd0818c85b8b8a1ab4ceeef8d981c8956a681565b6110fd826107d1565b61110681611820565b6111108383611868565b505050565b6000600360008473ffffffffffffffffffffffffffffffffffffffff1673ffffffffffffffffffffffffffffffffffffffff16815260200190815260200160002060008373ffffffffffffffffffffffffffffffffffffffff1673ffffffffffffffffffffffffffffffffffffffff16815260200190815260200160002054905092915050565b7f65d7a28e3265b37a6474929f336521b332c1681b933f6cb9f3376673440d862a81565b6111ca8282610bbb565b61129c57600160008084815260200190815260200160002060000160008373ffffffffffffffffffffffffffffffffffffffff1673ffffffffffffffffffffffffffffffffffffffff16815260200190815260200160002060006101000a81548160ff02191690831515021790555061124161134a565b73ffffffffffffffffffffffffffffffffffffffff168173ffffffffffffffffffffffffffffffffffffffff16837f2f8788117e7eff1d82e926ec794901d17c78024a50270940304540a733656f0d60405160405180910390a45b5050565b60006112c8836000018373ffffffffffffffffffffffffffffffffffffffff1660001b611cba565b905092915050565b60007f7965db0b000000000000000000000000000000000000000000000000000000007bffffffffffffffffffffffffffffffffffffffffffffffffffffffff1916827bffffffffffffffffffffffffffffffffffffffffffffffffffffffff19161480611343575061134282611d2a565b5b9050919050565b600033905090565b600073ffffffffffffffffffffffffffffffffffffffff168373ffffffffffffffffffffffffffffffffffffffff16036113c1576040517f08c379a00000000000000000000000000000000000000000000000000000000081526004016113b890613074565b60405180910390fd5b600073ffffffffffffffffffffffffffffffffffffffff168273ffffffffffffffffffffffffffffffffffffffff1603611430576040517f08c379a000000000000000000000000000000000000000000000000000000000815260040161142790613106565b60405180910390fd5b80600360008573ffffffffffffffffffffffffffffffffffffffff1673ffffffffffffffffffffffffffffffffffffffff16815260200190815260200160002060008473ffffffffffffffffffffffffffffffffffffffff1673ffffffffffffffffffffffffffffffffffffffff168152602001908152602001600020819055508173ffffffffffffffffffffffffffffffffffffffff168373ffffffffffffffffffffffffffffffffffffffff167f8c5be1e5ebec7d5bd14f71427d1e84f3dd0314c0f7b2291e5b200ac8c7c3b9258360405161150e9190612660565b60405180910390a3505050565b60006115278484611115565b90507fffffffffffffffffffffffffffffffffffffffffffffffffffffffffffffffff81146115a15781811015611593576040517f08c379a000000000000000000000000000000000000000000000000000000000815260040161158a90613172565b60405180910390fd5b6115a08484848403611352565b5b50505050565b600073ffffffffffffffffffffffffffffffffffffffff168373ffffffffffffffffffffffffffffffffffffffff1603611616576040517f08c379a000000000000000000000000000000000000000000000000000000000815260040161160d90613204565b60405180910390fd5b600073ffffffffffffffffffffffffffffffffffffffff168273ffffffffffffffffffffffffffffffffffffffff1603611685576040517f08c379a000000000000000000000000000000000000000000000000000000000815260040161167c90613296565b60405180910390fd5b611690838383611d94565b6000600260008573ffffffffffffffffffffffffffffffffffffffff1673ffffffffffffffffffffffffffffffffffffffff16815260200190815260200160002054905081811015611717576040517f08c379a000000000000000000000000000000000000000000000000000000000815260040161170e90613328565b60405180910390fd5b818103600260008673ffffffffffffffffffffffffffffffffffffffff1673ffffffffffffffffffffffffffffffffffffffff1681526020019081526020016000208190555081600260008573ffffffffffffffffffffffffffffffffffffffff1673ffffffffffffffffffffffffffffffffffffffff168152602001908152602001600020600082825401925050819055508273ffffffffffffffffffffffffffffffffffffffff168473ffffffffffffffffffffffffffffffffffffffff167fddf252ad1be2c89b69c2b068fc378daa952ba7f163c4a11628f55a4df523b3ef846040516118079190612660565b60405180910390a361181a848484611da4565b50505050565b6118318161182c61134a565b611da9565b50565b61183e82826111c0565b61186381600160008581526020019081526020016000206112a090919063ffffffff16565b505050565b6118728282611e2e565b6118978160016000858152602001908152602001600020611f0f90919063ffffffff16565b505050565b6118a4611f3f565b6000600760006101000a81548160ff0219169083151502179055507f5db9ee0a495bf2e6ff9c91a7834c1ba4fdd244a5e8aa4e537bd38aeae4b073aa6118e861134a565b6040516118f5919061287b565b60405180910390a1565b600073ffffffffffffffffffffffffffffffffffffffff168273ffffffffffffffffffffffffffffffffffffffff160361196e576040517f08c379a000000000000000000000000000000000000000000000000000000000815260040161196590613394565b60405180910390fd5b61197a60008383611d94565b806004600082825461198c9190612ac5565b9250508190555080600260008473ffffffffffffffffffffffffffffffffffffffff1673ffffffffffffffffffffffffffffffffffffffff168152602001908152602001600020600082825401925050819055508173ffffffffffffffffffffffffffffffffffffffff16600073ffffffffffffffffffffffffffffffffffffffff167fddf252ad1be2c89b69c2b068fc378daa952ba7f163c4a11628f55a4df523b3ef83604051611a3e9190612660565b60405180910390a3611a5260008383611da4565b5050565b600073ffffffffffffffffffffffffffffffffffffffff168273ffffffffffffffffffffffffffffffffffffffff1603611ac5576040517f08c379a0000000000000000000000000000000000000000000000000000000008152600401611abc90613426565b60405180910390fd5b611ad182600083611d94565b6000600260008473ffffffffffffffffffffffffffffffffffffffff1673ffffffffffffffffffffffffffffffffffffffff16815260200190815260200160002054905081811015611b58576040517f08c379a0000000000000000000000000000000000000000000000000000000008152600401611b4f906134b8565b60405180910390fd5b818103600260008573ffffffffffffffffffffffffffffffffffffffff1673ffffffffffffffffffffffffffffffffffffffff1681526020019081526020016000208190555081600460008282540392505081905550600073ffffffffffffffffffffffffffffffffffffffff168373ffffffffffffffffffffffffffffffffffffffff167fddf252ad1be2c89b69c2b068fc378daa952ba7f163c4a11628f55a4df523b3ef84604051611c0c9190612660565b60405180910390a3611c2083600084611da4565b505050565b50565b611c30611f88565b6001600760006101000a81548160ff0219169083151502179055507f62e78cea01bee320cd4e420270b5ea74000d11b0c9f74754ebdbfc544b05a258611c7461134a565b604051611c81919061287b565b60405180910390a1565b6000611c9a8360000183611fd2565b60001c905092915050565b6000611cb382600001611ffd565b9050919050565b6000611cc6838361200e565b611d1f578260000182908060018154018082558091505060019003906000526020600020016000909190919091505582600001805490508360010160008481526020019081526020016000208190555060019050611d24565b600090505b92915050565b60007f01ffc9a7000000000000000000000000000000000000000000000000000000007bffffffffffffffffffffffffffffffffffffffffffffffffffffffff1916827bffffffffffffffffffffffffffffffffffffffffffffffffffffffff1916149050919050565b611d9f838383612031565b505050565b505050565b611db38282610bbb565b611e2a57611dc081612089565b611dce8360001c60206120b6565b604051602001611ddf9291906135a1565b6040516020818303038152906040526040517f08c379a0000000000000000000000000000000000000000000000000000000008152600401611e21919061255b565b60405180910390fd5b5050565b611e388282610bbb565b15611f0b57600080600084815260200190815260200160002060000160008373ffffffffffffffffffffffffffffffffffffffff1673ffffffffffffffffffffffffffffffffffffffff16815260200190815260200160002060006101000a81548160ff021916908315150217905550611eb061134a565b73ffffffffffffffffffffffffffffffffffffffff168173ffffffffffffffffffffffffffffffffffffffff16837ff6391f5c32d9c69d2a47ea670b442974b53935d1edc7fd64eb21e047a839171b60405160405180910390a45b5050565b6000611f37836000018373ffffffffffffffffffffffffffffffffffffffff1660001b6122f2565b905092915050565b611f47610a0d565b611f86576040517f08c379a0000000000000000000000000000000000000000000000000000000008152600401611f7d90613627565b60405180910390fd5b565b611f90610a0d565b15611fd0576040517f08c379a0000000000000000000000000000000000000000000000000000000008152600401611fc790613693565b60405180910390fd5b565b6000826000018281548110611fea57611fe96136b3565b5b9060005260206000200154905092915050565b600081600001805490509050919050565b600080836001016000848152602001908152602001600020541415905092915050565b61203c838383612406565b612044610a0d565b15612084576040517f08c379a000000000000000000000000000000000000000000000000000000000815260040161207b90613754565b60405180910390fd5b505050565b60606120af8273ffffffffffffffffffffffffffffffffffffffff16601460ff166120b6565b9050919050565b6060600060028360026120c99190613774565b6120d39190612ac5565b67ffffffffffffffff8111156120ec576120eb6137b6565b5b6040519080825280601f01601f19166020018201604052801561211e5781602001600182028036833780820191505090505b5090507f300000000000000000000000000000000000000000000000000000000000000081600081518110612156576121556136b3565b5b60200101907effffffffffffffffffffffffffffffffffffffffffffffffffffffffffffff1916908160001a9053507f7800000000000000000000000000000000000000000000000000000000000000816001815181106121ba576121b96136b3565b5b60200101907effffffffffffffffffffffffffffffffffffffffffffffffffffffffffffff1916908160001a905350600060018460026121fa9190613774565b6122049190612ac5565b90505b60018111156122a4577f3031323334353637383961626364656600000000000000000000000000000000600f861660108110612246576122456136b3565b5b1a60f81b82828151811061225d5761225c6136b3565b5b60200101907effffffffffffffffffffffffffffffffffffffffffffffffffffffffffffff1916908160001a905350600485901c94508061229d906137e5565b9050612207565b50600084146122e8576040517f08c379a00000000000000000000000000000000000000000000000000000000081526004016122df9061385a565b60405180910390fd5b8091505092915050565b600080836001016000848152602001908152602001600020549050600081146123fa576000600182612324919061387a565b905060006001866000018054905061233c919061387a565b90508181146123ab57600086600001828154811061235d5761235c6136b3565b5b9060005260206000200154905080876000018481548110612381576123806136b3565b5b90600052602060002001819055508387600101600083815260200190815260200160002081905550505b856000018054806123bf576123be6138ae565b5b600190038181906000526020600020016000905590558560010160008681526020019081526020016000206000905560019350505050612400565b60009150505b92915050565b505050565b600080fd5b60007fffffffff0000000000000000000000000000000000000000000000000000000082169050919050565b61244581612410565b811461245057600080fd5b50565b6000813590506124628161243c565b92915050565b60006020828403121561247e5761247d61240b565b5b600061248c84828501612453565b91505092915050565b60008115159050919050565b6124aa81612495565b82525050565b60006020820190506124c560008301846124a1565b92915050565b600081519050919050565b600082825260208201905092915050565b60005b838110156125055780820151818401526020810190506124ea565b60008484015250505050565b6000601f19601f8301169050919050565b600061252d826124cb565b61253781856124d6565b93506125478185602086016124e7565b61255081612511565b840191505092915050565b600060208201905081810360008301526125758184612522565b905092915050565b600073ffffffffffffffffffffffffffffffffffffffff82169050919050565b60006125a88261257d565b9050919050565b6125b88161259d565b81146125c357600080fd5b50565b6000813590506125d5816125af565b92915050565b6000819050919050565b6125ee816125db565b81146125f957600080fd5b50565b60008135905061260b816125e5565b92915050565b600080604083850312156126285761262761240b565b5b6000612636858286016125c6565b9250506020612647858286016125fc565b9150509250929050565b61265a816125db565b82525050565b60006020820190506126756000830184612651565b92915050565b6000806000606084860312156126945761269361240b565b5b60006126a2868287016125c6565b93505060206126b3868287016125c6565b92505060406126c4868287016125fc565b9150509250925092565b6000819050919050565b6126e1816126ce565b81146126ec57600080fd5b50565b6000813590506126fe816126d8565b92915050565b60006020828403121561271a5761271961240b565b5b6000612728848285016126ef565b91505092915050565b61273a816126ce565b82525050565b60006020820190506127556000830184612731565b92915050565b600080604083850312156127725761277161240b565b5b6000612780858286016126ef565b9250506020612791858286016125c6565b9150509250929050565b600060ff82169050919050565b6127b18161279b565b82525050565b60006020820190506127cc60008301846127a8565b92915050565b6000602082840312156127e8576127e761240b565b5b60006127f6848285016125fc565b91505092915050565b6000602082840312156128155761281461240b565b5b6000612823848285016125c6565b91505092915050565b600080604083850312156128435761284261240b565b5b6000612851858286016126ef565b9250506020612862858286016125fc565b9150509250929050565b6128758161259d565b82525050565b6000602082019050612890600083018461286c565b92915050565b61289f8161279b565b81146128aa57600080fd5b50565b6000813590506128bc81612896565b92915050565b600080600080600080600060e0888a0312156128e1576128e061240b565b5b60006128ef8a828b016125c6565b97505060206129008a828b016125c6565b96505060406129118a828b016125fc565b95505060606129228a828b016125fc565b94505060806129338a828b016128ad565b93505060a06129448a828b016126ef565b92505060c06129558a828b016126ef565b91505092959891949750929550565b6000806040838503121561297b5761297a61240b565b5b6000612989858286016125c6565b925050602061299a858286016125c6565b9150509250929050565b7f4e487b7100000000000000000000000000000000000000000000000000000000600052602260045260246000fd5b600060028204905060018216806129eb57607f821691505b6020821081036129fe576129fd6129a4565b5b50919050565b7f416363657373436f6e74726f6c3a2063616e206f6e6c792072656e6f756e636560008201527f20726f6c657320666f722073656c660000000000000000000000000000000000602082015250565b6000612a60602f836124d6565b9150612a6b82612a04565b604082019050919050565b60006020820190508181036000830152612a8f81612a53565b9050919050565b7f4e487b7100000000000000000000000000000000000000000000000000000000600052601160045260246000fd5b6000612ad0826125db565b9150612adb836125db565b9250828201905080821115612af357612af2612a96565b5b92915050565b7f45524332305072657365744d696e7465725061757365723a206d75737420686160008201527f76652070617573657220726f6c6520746f20756e706175736500000000000000602082015250565b6000612b556039836124d6565b9150612b6082612af9565b604082019050919050565b60006020820190508181036000830152612b8481612b48565b9050919050565b7f45524332305072657365744d696e7465725061757365723a206d75737420686160008201527f7665206d696e74657220726f6c6520746f206d696e7400000000000000000000602082015250565b6000612be76036836124d6565b9150612bf282612b8b565b604082019050919050565b60006020820190508181036000830152612c1681612bda565b9050919050565b7f45524332305072657365744d696e7465725061757365723a206d75737420686160008201527f76652070617573657220726f6c6520746f207061757365000000000000000000602082015250565b6000612c796037836124d6565b9150612c8482612c1d565b604082019050919050565b60006020820190508181036000830152612ca881612c6c565b9050919050565b7f45524332303a2064656372656173656420616c6c6f77616e63652062656c6f7760008201527f207a65726f000000000000000000000000000000000000000000000000000000602082015250565b6000612d0b6025836124d6565b9150612d1682612caf565b604082019050919050565b60006020820190508181036000830152612d3a81612cfe565b9050919050565b7f4552433230576974685065726d69743a20455850495245445f5349474e41545560008201527f5245000000000000000000000000000000000000000000000000000000000000602082015250565b6000612d9d6022836124d6565b9150612da882612d41565b604082019050919050565b60006020820190508181036000830152612dcc81612d90565b9050919050565b6000612dde826125db565b91507fffffffffffffffffffffffffffffffffffffffffffffffffffffffffffffffff8203612e1057612e0f612a96565b5b600182019050919050565b600060c082019050612e306000830189612731565b612e3d602083018861286c565b612e4a604083018761286c565b612e576060830186612651565b612e646080830185612651565b612e7160a0830184612651565b979650505050505050565b600081905092915050565b7f1901000000000000000000000000000000000000000000000000000000000000600082015250565b6000612ebd600283612e7c565b9150612ec882612e87565b600282019050919050565b6000819050919050565b612eee612ee9826126ce565b612ed3565b82525050565b6000612eff82612eb0565b9150612f0b8285612edd565b602082019150612f1b8284612edd565b6020820191508190509392505050565b6000608082019050612f406000830187612731565b612f4d60208301866127a8565b612f5a6040830185612731565b612f676060830184612731565b95945050505050565b7f4552433230576974685065726d69743a20494e56414c49445f5349474e41545560008201527f5245000000000000000000000000000000000000000000000000000000000000602082015250565b6000612fcc6022836124d6565b9150612fd782612f70565b604082019050919050565b60006020820190508181036000830152612ffb81612fbf565b9050919050565b7f45524332303a20617070726f76652066726f6d20746865207a65726f2061646460008201527f7265737300000000000000000000000000000000000000000000000000000000602082015250565b600061305e6024836124d6565b915061306982613002565b604082019050919050565b6000602082019050818103600083015261308d81613051565b9050919050565b7f45524332303a20617070726f766520746f20746865207a65726f20616464726560008201527f7373000000000000000000000000000000000000000000000000000000000000602082015250565b60006130f06022836124d6565b91506130fb82613094565b604082019050919050565b6000602082019050818103600083015261311f816130e3565b9050919050565b7f45524332303a20696e73756666696369656e7420616c6c6f77616e6365000000600082015250565b600061315c601d836124d6565b915061316782613126565b602082019050919050565b6000602082019050818103600083015261318b8161314f565b9050919050565b7f45524332303a207472616e736665722066726f6d20746865207a65726f20616460008201527f6472657373000000000000000000000000000000000000000000000000000000602082015250565b60006131ee6025836124d6565b91506131f982613192565b604082019050919050565b6000602082019050818103600083015261321d816131e1565b9050919050565b7f45524332303a207472616e7366657220746f20746865207a65726f206164647260008201527f6573730000000000000000000000000000000000000000000000000000000000602082015250565b60006132806023836124d6565b915061328b82613224565b604082019050919050565b600060208201905081810360008301526132af81613273565b9050919050565b7f45524332303a207472616e7366657220616d6f756e742065786365656473206260008201527f616c616e63650000000000000000000000000000000000000000000000000000602082015250565b60006133126026836124d6565b915061331d826132b6565b604082019050919050565b6000602082019050818103600083015261334181613305565b9050919050565b7f45524332303a206d696e7420746f20746865207a65726f206164647265737300600082015250565b600061337e601f836124d6565b915061338982613348565b602082019050919050565b600060208201905081810360008301526133ad81613371565b9050919050565b7f45524332303a206275726e2066726f6d20746865207a65726f2061646472657360008201527f7300000000000000000000000000000000000000000000000000000000000000602082015250565b60006134106021836124d6565b915061341b826133b4565b604082019050919050565b6000602082019050818103600083015261343f81613403565b9050919050565b7f45524332303a206275726e20616d6f756e7420657863656564732062616c616e60008201527f6365000000000000000000000000000000000000000000000000000000000000602082015250565b60006134a26022836124d6565b91506134ad82613446565b604082019050919050565b600060208201905081810360008301526134d181613495565b9050919050565b7f416363657373436f6e74726f6c3a206163636f756e7420000000000000000000600082015250565b600061350e601783612e7c565b9150613519826134d8565b601782019050919050565b600061352f826124cb565b6135398185612e7c565b93506135498185602086016124e7565b80840191505092915050565b7f206973206d697373696e6720726f6c6520000000000000000000000000000000600082015250565b600061358b601183612e7c565b915061359682613555565b601182019050919050565b60006135ac82613501565b91506135b88285613524565b91506135c38261357e565b91506135cf8284613524565b91508190509392505050565b7f5061757361626c653a206e6f7420706175736564000000000000000000000000600082015250565b60006136116014836124d6565b915061361c826135db565b602082019050919050565b6000602082019050818103600083015261364081613604565b9050919050565b7f5061757361626c653a2070617573656400000000000000000000000000000000600082015250565b600061367d6010836124d6565b915061368882613647565b602082019050919050565b600060208201905081810360008301526136ac81613670565b9050919050565b7f4e487b7100000000000000000000000000000000000000000000000000000000600052603260045260246000fd5b7f45524332305061757361626c653a20746f6b656e207472616e7366657220776860008201527f696c652070617573656400000000000000000000000000000000000000000000602082015250565b600061373e602a836124d6565b9150613749826136e2565b604082019050919050565b6000602082019050818103600083015261376d81613731565b9050919050565b600061377f826125db565b915061378a836125db565b9250828202613798816125db565b915082820484148315176137af576137ae612a96565b5b5092915050565b7f4e487b7100000000000000000000000000000000000000000000000000000000600052604160045260246000fd5b60006137f0826125db565b91506000820361380357613802612a96565b5b600182039050919050565b7f537472696e67733a20686578206c656e67746820696e73756666696369656e74600082015250565b60006138446020836124d6565b915061384f8261380e565b602082019050919050565b6000602082019050818103600083015261387381613837565b9050919050565b6000613885826125db565b9150613890836125db565b92508282039050818111156138a8576138a7612a96565b5b92915050565b7f4e487b7100000000000000000000000000000000000000000000000000000000600052603160045260246000fdfea26469706673582212200fb3795f61b1b25183ad6d88d4689168c2400da5d2f3ee95afe74df272b0e71c64736f6c63430008110033",
  "linkReferences": {},
  "deployedLinkReferences": {}
}